
NucleoF446ZE_USB_HID_HOST.elf:     file format elf32-littlearm

Sections:
Idx Name          Size      VMA       LMA       File off  Algn
  0 .isr_vector   000001c4  08000000  08000000  00010000  2**0
                  CONTENTS, ALLOC, LOAD, READONLY, DATA
  1 .text         000095e0  080001d0  080001d0  000101d0  2**4
                  CONTENTS, ALLOC, LOAD, READONLY, CODE
  2 .rodata       00000730  080097b0  080097b0  000197b0  2**2
                  CONTENTS, ALLOC, LOAD, READONLY, DATA
  3 .ARM.extab    00000000  08009ee0  08009ee0  00020090  2**0
                  CONTENTS
  4 .ARM          00000008  08009ee0  08009ee0  00019ee0  2**2
                  CONTENTS, ALLOC, LOAD, READONLY, DATA
  5 .preinit_array 00000000  08009ee8  08009ee8  00020090  2**0
                  CONTENTS, ALLOC, LOAD, DATA
  6 .init_array   00000004  08009ee8  08009ee8  00019ee8  2**2
                  CONTENTS, ALLOC, LOAD, DATA
  7 .fini_array   00000004  08009eec  08009eec  00019eec  2**2
                  CONTENTS, ALLOC, LOAD, DATA
  8 .data         00000090  20000000  08009ef0  00020000  2**2
                  CONTENTS, ALLOC, LOAD, DATA
  9 .bss          00000848  20000090  08009f80  00020090  2**2
                  ALLOC
 10 ._user_heap_stack 00004000  200008d8  08009f80  000208d8  2**0
                  ALLOC
 11 .ARM.attributes 00000030  00000000  00000000  00020090  2**0
                  CONTENTS, READONLY
 12 .debug_info   0001e0f1  00000000  00000000  000200c0  2**0
                  CONTENTS, READONLY, DEBUGGING, OCTETS
 13 .debug_abbrev 00004047  00000000  00000000  0003e1b1  2**0
                  CONTENTS, READONLY, DEBUGGING, OCTETS
 14 .debug_aranges 00000e58  00000000  00000000  000421f8  2**3
                  CONTENTS, READONLY, DEBUGGING, OCTETS
 15 .debug_ranges 00000cf0  00000000  00000000  00043050  2**3
                  CONTENTS, READONLY, DEBUGGING, OCTETS
 16 .debug_macro  00026180  00000000  00000000  00043d40  2**0
                  CONTENTS, READONLY, DEBUGGING, OCTETS
 17 .debug_line   00014eac  00000000  00000000  00069ec0  2**0
                  CONTENTS, READONLY, DEBUGGING, OCTETS
 18 .debug_str    000d0645  00000000  00000000  0007ed6c  2**0
                  CONTENTS, READONLY, DEBUGGING, OCTETS
 19 .comment      00000053  00000000  00000000  0014f3b1  2**0
                  CONTENTS, READONLY
 20 .debug_frame  00004384  00000000  00000000  0014f404  2**2
                  CONTENTS, READONLY, DEBUGGING, OCTETS

Disassembly of section .text:

080001d0 <__do_global_dtors_aux>:
 80001d0:	b510      	push	{r4, lr}
 80001d2:	4c05      	ldr	r4, [pc, #20]	; (80001e8 <__do_global_dtors_aux+0x18>)
 80001d4:	7823      	ldrb	r3, [r4, #0]
 80001d6:	b933      	cbnz	r3, 80001e6 <__do_global_dtors_aux+0x16>
 80001d8:	4b04      	ldr	r3, [pc, #16]	; (80001ec <__do_global_dtors_aux+0x1c>)
 80001da:	b113      	cbz	r3, 80001e2 <__do_global_dtors_aux+0x12>
 80001dc:	4804      	ldr	r0, [pc, #16]	; (80001f0 <__do_global_dtors_aux+0x20>)
 80001de:	f3af 8000 	nop.w
 80001e2:	2301      	movs	r3, #1
 80001e4:	7023      	strb	r3, [r4, #0]
 80001e6:	bd10      	pop	{r4, pc}
 80001e8:	20000090 	.word	0x20000090
 80001ec:	00000000 	.word	0x00000000
 80001f0:	08009798 	.word	0x08009798

080001f4 <frame_dummy>:
 80001f4:	b508      	push	{r3, lr}
 80001f6:	4b03      	ldr	r3, [pc, #12]	; (8000204 <frame_dummy+0x10>)
 80001f8:	b11b      	cbz	r3, 8000202 <frame_dummy+0xe>
 80001fa:	4903      	ldr	r1, [pc, #12]	; (8000208 <frame_dummy+0x14>)
 80001fc:	4803      	ldr	r0, [pc, #12]	; (800020c <frame_dummy+0x18>)
 80001fe:	f3af 8000 	nop.w
 8000202:	bd08      	pop	{r3, pc}
 8000204:	00000000 	.word	0x00000000
 8000208:	20000094 	.word	0x20000094
 800020c:	08009798 	.word	0x08009798

08000210 <memchr>:
 8000210:	f001 01ff 	and.w	r1, r1, #255	; 0xff
 8000214:	2a10      	cmp	r2, #16
 8000216:	db2b      	blt.n	8000270 <memchr+0x60>
 8000218:	f010 0f07 	tst.w	r0, #7
 800021c:	d008      	beq.n	8000230 <memchr+0x20>
 800021e:	f810 3b01 	ldrb.w	r3, [r0], #1
 8000222:	3a01      	subs	r2, #1
 8000224:	428b      	cmp	r3, r1
 8000226:	d02d      	beq.n	8000284 <memchr+0x74>
 8000228:	f010 0f07 	tst.w	r0, #7
 800022c:	b342      	cbz	r2, 8000280 <memchr+0x70>
 800022e:	d1f6      	bne.n	800021e <memchr+0xe>
 8000230:	b4f0      	push	{r4, r5, r6, r7}
 8000232:	ea41 2101 	orr.w	r1, r1, r1, lsl #8
 8000236:	ea41 4101 	orr.w	r1, r1, r1, lsl #16
 800023a:	f022 0407 	bic.w	r4, r2, #7
 800023e:	f07f 0700 	mvns.w	r7, #0
 8000242:	2300      	movs	r3, #0
 8000244:	e8f0 5602 	ldrd	r5, r6, [r0], #8
 8000248:	3c08      	subs	r4, #8
 800024a:	ea85 0501 	eor.w	r5, r5, r1
 800024e:	ea86 0601 	eor.w	r6, r6, r1
 8000252:	fa85 f547 	uadd8	r5, r5, r7
 8000256:	faa3 f587 	sel	r5, r3, r7
 800025a:	fa86 f647 	uadd8	r6, r6, r7
 800025e:	faa5 f687 	sel	r6, r5, r7
 8000262:	b98e      	cbnz	r6, 8000288 <memchr+0x78>
 8000264:	d1ee      	bne.n	8000244 <memchr+0x34>
 8000266:	bcf0      	pop	{r4, r5, r6, r7}
 8000268:	f001 01ff 	and.w	r1, r1, #255	; 0xff
 800026c:	f002 0207 	and.w	r2, r2, #7
 8000270:	b132      	cbz	r2, 8000280 <memchr+0x70>
 8000272:	f810 3b01 	ldrb.w	r3, [r0], #1
 8000276:	3a01      	subs	r2, #1
 8000278:	ea83 0301 	eor.w	r3, r3, r1
 800027c:	b113      	cbz	r3, 8000284 <memchr+0x74>
 800027e:	d1f8      	bne.n	8000272 <memchr+0x62>
 8000280:	2000      	movs	r0, #0
 8000282:	4770      	bx	lr
 8000284:	3801      	subs	r0, #1
 8000286:	4770      	bx	lr
 8000288:	2d00      	cmp	r5, #0
 800028a:	bf06      	itte	eq
 800028c:	4635      	moveq	r5, r6
 800028e:	3803      	subeq	r0, #3
 8000290:	3807      	subne	r0, #7
 8000292:	f015 0f01 	tst.w	r5, #1
 8000296:	d107      	bne.n	80002a8 <memchr+0x98>
 8000298:	3001      	adds	r0, #1
 800029a:	f415 7f80 	tst.w	r5, #256	; 0x100
 800029e:	bf02      	ittt	eq
 80002a0:	3001      	addeq	r0, #1
 80002a2:	f415 3fc0 	tsteq.w	r5, #98304	; 0x18000
 80002a6:	3001      	addeq	r0, #1
 80002a8:	bcf0      	pop	{r4, r5, r6, r7}
 80002aa:	3801      	subs	r0, #1
 80002ac:	4770      	bx	lr
 80002ae:	bf00      	nop

080002b0 <__aeabi_uldivmod>:
 80002b0:	b953      	cbnz	r3, 80002c8 <__aeabi_uldivmod+0x18>
 80002b2:	b94a      	cbnz	r2, 80002c8 <__aeabi_uldivmod+0x18>
 80002b4:	2900      	cmp	r1, #0
 80002b6:	bf08      	it	eq
 80002b8:	2800      	cmpeq	r0, #0
 80002ba:	bf1c      	itt	ne
 80002bc:	f04f 31ff 	movne.w	r1, #4294967295
 80002c0:	f04f 30ff 	movne.w	r0, #4294967295
 80002c4:	f000 b96e 	b.w	80005a4 <__aeabi_idiv0>
 80002c8:	f1ad 0c08 	sub.w	ip, sp, #8
 80002cc:	e96d ce04 	strd	ip, lr, [sp, #-16]!
 80002d0:	f000 f806 	bl	80002e0 <__udivmoddi4>
 80002d4:	f8dd e004 	ldr.w	lr, [sp, #4]
 80002d8:	e9dd 2302 	ldrd	r2, r3, [sp, #8]
 80002dc:	b004      	add	sp, #16
 80002de:	4770      	bx	lr

080002e0 <__udivmoddi4>:
 80002e0:	e92d 47f0 	stmdb	sp!, {r4, r5, r6, r7, r8, r9, sl, lr}
 80002e4:	9d08      	ldr	r5, [sp, #32]
 80002e6:	4604      	mov	r4, r0
 80002e8:	468c      	mov	ip, r1
 80002ea:	2b00      	cmp	r3, #0
 80002ec:	f040 8083 	bne.w	80003f6 <__udivmoddi4+0x116>
 80002f0:	428a      	cmp	r2, r1
 80002f2:	4617      	mov	r7, r2
 80002f4:	d947      	bls.n	8000386 <__udivmoddi4+0xa6>
 80002f6:	fab2 f282 	clz	r2, r2
 80002fa:	b142      	cbz	r2, 800030e <__udivmoddi4+0x2e>
 80002fc:	f1c2 0020 	rsb	r0, r2, #32
 8000300:	fa24 f000 	lsr.w	r0, r4, r0
 8000304:	4091      	lsls	r1, r2
 8000306:	4097      	lsls	r7, r2
 8000308:	ea40 0c01 	orr.w	ip, r0, r1
 800030c:	4094      	lsls	r4, r2
 800030e:	ea4f 4817 	mov.w	r8, r7, lsr #16
 8000312:	0c23      	lsrs	r3, r4, #16
 8000314:	fbbc f6f8 	udiv	r6, ip, r8
 8000318:	fa1f fe87 	uxth.w	lr, r7
 800031c:	fb08 c116 	mls	r1, r8, r6, ip
 8000320:	ea43 4301 	orr.w	r3, r3, r1, lsl #16
 8000324:	fb06 f10e 	mul.w	r1, r6, lr
 8000328:	4299      	cmp	r1, r3
 800032a:	d909      	bls.n	8000340 <__udivmoddi4+0x60>
 800032c:	18fb      	adds	r3, r7, r3
 800032e:	f106 30ff 	add.w	r0, r6, #4294967295
 8000332:	f080 8119 	bcs.w	8000568 <__udivmoddi4+0x288>
 8000336:	4299      	cmp	r1, r3
 8000338:	f240 8116 	bls.w	8000568 <__udivmoddi4+0x288>
 800033c:	3e02      	subs	r6, #2
 800033e:	443b      	add	r3, r7
 8000340:	1a5b      	subs	r3, r3, r1
 8000342:	b2a4      	uxth	r4, r4
 8000344:	fbb3 f0f8 	udiv	r0, r3, r8
 8000348:	fb08 3310 	mls	r3, r8, r0, r3
 800034c:	ea44 4403 	orr.w	r4, r4, r3, lsl #16
 8000350:	fb00 fe0e 	mul.w	lr, r0, lr
 8000354:	45a6      	cmp	lr, r4
 8000356:	d909      	bls.n	800036c <__udivmoddi4+0x8c>
 8000358:	193c      	adds	r4, r7, r4
 800035a:	f100 33ff 	add.w	r3, r0, #4294967295
 800035e:	f080 8105 	bcs.w	800056c <__udivmoddi4+0x28c>
 8000362:	45a6      	cmp	lr, r4
 8000364:	f240 8102 	bls.w	800056c <__udivmoddi4+0x28c>
 8000368:	3802      	subs	r0, #2
 800036a:	443c      	add	r4, r7
 800036c:	ea40 4006 	orr.w	r0, r0, r6, lsl #16
 8000370:	eba4 040e 	sub.w	r4, r4, lr
 8000374:	2600      	movs	r6, #0
 8000376:	b11d      	cbz	r5, 8000380 <__udivmoddi4+0xa0>
 8000378:	40d4      	lsrs	r4, r2
 800037a:	2300      	movs	r3, #0
 800037c:	e9c5 4300 	strd	r4, r3, [r5]
 8000380:	4631      	mov	r1, r6
 8000382:	e8bd 87f0 	ldmia.w	sp!, {r4, r5, r6, r7, r8, r9, sl, pc}
 8000386:	b902      	cbnz	r2, 800038a <__udivmoddi4+0xaa>
 8000388:	deff      	udf	#255	; 0xff
 800038a:	fab2 f282 	clz	r2, r2
 800038e:	2a00      	cmp	r2, #0
 8000390:	d150      	bne.n	8000434 <__udivmoddi4+0x154>
 8000392:	1bcb      	subs	r3, r1, r7
 8000394:	ea4f 4e17 	mov.w	lr, r7, lsr #16
 8000398:	fa1f f887 	uxth.w	r8, r7
 800039c:	2601      	movs	r6, #1
 800039e:	fbb3 fcfe 	udiv	ip, r3, lr
 80003a2:	0c21      	lsrs	r1, r4, #16
 80003a4:	fb0e 331c 	mls	r3, lr, ip, r3
 80003a8:	ea41 4103 	orr.w	r1, r1, r3, lsl #16
 80003ac:	fb08 f30c 	mul.w	r3, r8, ip
 80003b0:	428b      	cmp	r3, r1
 80003b2:	d907      	bls.n	80003c4 <__udivmoddi4+0xe4>
 80003b4:	1879      	adds	r1, r7, r1
 80003b6:	f10c 30ff 	add.w	r0, ip, #4294967295
 80003ba:	d202      	bcs.n	80003c2 <__udivmoddi4+0xe2>
 80003bc:	428b      	cmp	r3, r1
 80003be:	f200 80e9 	bhi.w	8000594 <__udivmoddi4+0x2b4>
 80003c2:	4684      	mov	ip, r0
 80003c4:	1ac9      	subs	r1, r1, r3
 80003c6:	b2a3      	uxth	r3, r4
 80003c8:	fbb1 f0fe 	udiv	r0, r1, lr
 80003cc:	fb0e 1110 	mls	r1, lr, r0, r1
 80003d0:	ea43 4401 	orr.w	r4, r3, r1, lsl #16
 80003d4:	fb08 f800 	mul.w	r8, r8, r0
 80003d8:	45a0      	cmp	r8, r4
 80003da:	d907      	bls.n	80003ec <__udivmoddi4+0x10c>
 80003dc:	193c      	adds	r4, r7, r4
 80003de:	f100 33ff 	add.w	r3, r0, #4294967295
 80003e2:	d202      	bcs.n	80003ea <__udivmoddi4+0x10a>
 80003e4:	45a0      	cmp	r8, r4
 80003e6:	f200 80d9 	bhi.w	800059c <__udivmoddi4+0x2bc>
 80003ea:	4618      	mov	r0, r3
 80003ec:	eba4 0408 	sub.w	r4, r4, r8
 80003f0:	ea40 400c 	orr.w	r0, r0, ip, lsl #16
 80003f4:	e7bf      	b.n	8000376 <__udivmoddi4+0x96>
 80003f6:	428b      	cmp	r3, r1
 80003f8:	d909      	bls.n	800040e <__udivmoddi4+0x12e>
 80003fa:	2d00      	cmp	r5, #0
 80003fc:	f000 80b1 	beq.w	8000562 <__udivmoddi4+0x282>
 8000400:	2600      	movs	r6, #0
 8000402:	e9c5 0100 	strd	r0, r1, [r5]
 8000406:	4630      	mov	r0, r6
 8000408:	4631      	mov	r1, r6
 800040a:	e8bd 87f0 	ldmia.w	sp!, {r4, r5, r6, r7, r8, r9, sl, pc}
 800040e:	fab3 f683 	clz	r6, r3
 8000412:	2e00      	cmp	r6, #0
 8000414:	d14a      	bne.n	80004ac <__udivmoddi4+0x1cc>
 8000416:	428b      	cmp	r3, r1
 8000418:	d302      	bcc.n	8000420 <__udivmoddi4+0x140>
 800041a:	4282      	cmp	r2, r0
 800041c:	f200 80b8 	bhi.w	8000590 <__udivmoddi4+0x2b0>
 8000420:	1a84      	subs	r4, r0, r2
 8000422:	eb61 0103 	sbc.w	r1, r1, r3
 8000426:	2001      	movs	r0, #1
 8000428:	468c      	mov	ip, r1
 800042a:	2d00      	cmp	r5, #0
 800042c:	d0a8      	beq.n	8000380 <__udivmoddi4+0xa0>
 800042e:	e9c5 4c00 	strd	r4, ip, [r5]
 8000432:	e7a5      	b.n	8000380 <__udivmoddi4+0xa0>
 8000434:	f1c2 0320 	rsb	r3, r2, #32
 8000438:	fa20 f603 	lsr.w	r6, r0, r3
 800043c:	4097      	lsls	r7, r2
 800043e:	fa01 f002 	lsl.w	r0, r1, r2
 8000442:	ea4f 4e17 	mov.w	lr, r7, lsr #16
 8000446:	40d9      	lsrs	r1, r3
 8000448:	4330      	orrs	r0, r6
 800044a:	0c03      	lsrs	r3, r0, #16
 800044c:	fbb1 f6fe 	udiv	r6, r1, lr
 8000450:	fa1f f887 	uxth.w	r8, r7
 8000454:	fb0e 1116 	mls	r1, lr, r6, r1
 8000458:	ea43 4301 	orr.w	r3, r3, r1, lsl #16
 800045c:	fb06 f108 	mul.w	r1, r6, r8
 8000460:	4299      	cmp	r1, r3
 8000462:	fa04 f402 	lsl.w	r4, r4, r2
 8000466:	d909      	bls.n	800047c <__udivmoddi4+0x19c>
 8000468:	18fb      	adds	r3, r7, r3
 800046a:	f106 3cff 	add.w	ip, r6, #4294967295
 800046e:	f080 808d 	bcs.w	800058c <__udivmoddi4+0x2ac>
 8000472:	4299      	cmp	r1, r3
 8000474:	f240 808a 	bls.w	800058c <__udivmoddi4+0x2ac>
 8000478:	3e02      	subs	r6, #2
 800047a:	443b      	add	r3, r7
 800047c:	1a5b      	subs	r3, r3, r1
 800047e:	b281      	uxth	r1, r0
 8000480:	fbb3 f0fe 	udiv	r0, r3, lr
 8000484:	fb0e 3310 	mls	r3, lr, r0, r3
 8000488:	ea41 4103 	orr.w	r1, r1, r3, lsl #16
 800048c:	fb00 f308 	mul.w	r3, r0, r8
 8000490:	428b      	cmp	r3, r1
 8000492:	d907      	bls.n	80004a4 <__udivmoddi4+0x1c4>
 8000494:	1879      	adds	r1, r7, r1
 8000496:	f100 3cff 	add.w	ip, r0, #4294967295
 800049a:	d273      	bcs.n	8000584 <__udivmoddi4+0x2a4>
 800049c:	428b      	cmp	r3, r1
 800049e:	d971      	bls.n	8000584 <__udivmoddi4+0x2a4>
 80004a0:	3802      	subs	r0, #2
 80004a2:	4439      	add	r1, r7
 80004a4:	1acb      	subs	r3, r1, r3
 80004a6:	ea40 4606 	orr.w	r6, r0, r6, lsl #16
 80004aa:	e778      	b.n	800039e <__udivmoddi4+0xbe>
 80004ac:	f1c6 0c20 	rsb	ip, r6, #32
 80004b0:	fa03 f406 	lsl.w	r4, r3, r6
 80004b4:	fa22 f30c 	lsr.w	r3, r2, ip
 80004b8:	431c      	orrs	r4, r3
 80004ba:	fa20 f70c 	lsr.w	r7, r0, ip
 80004be:	fa01 f306 	lsl.w	r3, r1, r6
 80004c2:	ea4f 4e14 	mov.w	lr, r4, lsr #16
 80004c6:	fa21 f10c 	lsr.w	r1, r1, ip
 80004ca:	431f      	orrs	r7, r3
 80004cc:	0c3b      	lsrs	r3, r7, #16
 80004ce:	fbb1 f9fe 	udiv	r9, r1, lr
 80004d2:	fa1f f884 	uxth.w	r8, r4
 80004d6:	fb0e 1119 	mls	r1, lr, r9, r1
 80004da:	ea43 4101 	orr.w	r1, r3, r1, lsl #16
 80004de:	fb09 fa08 	mul.w	sl, r9, r8
 80004e2:	458a      	cmp	sl, r1
 80004e4:	fa02 f206 	lsl.w	r2, r2, r6
 80004e8:	fa00 f306 	lsl.w	r3, r0, r6
 80004ec:	d908      	bls.n	8000500 <__udivmoddi4+0x220>
 80004ee:	1861      	adds	r1, r4, r1
 80004f0:	f109 30ff 	add.w	r0, r9, #4294967295
 80004f4:	d248      	bcs.n	8000588 <__udivmoddi4+0x2a8>
 80004f6:	458a      	cmp	sl, r1
 80004f8:	d946      	bls.n	8000588 <__udivmoddi4+0x2a8>
 80004fa:	f1a9 0902 	sub.w	r9, r9, #2
 80004fe:	4421      	add	r1, r4
 8000500:	eba1 010a 	sub.w	r1, r1, sl
 8000504:	b2bf      	uxth	r7, r7
 8000506:	fbb1 f0fe 	udiv	r0, r1, lr
 800050a:	fb0e 1110 	mls	r1, lr, r0, r1
 800050e:	ea47 4701 	orr.w	r7, r7, r1, lsl #16
 8000512:	fb00 f808 	mul.w	r8, r0, r8
 8000516:	45b8      	cmp	r8, r7
 8000518:	d907      	bls.n	800052a <__udivmoddi4+0x24a>
 800051a:	19e7      	adds	r7, r4, r7
 800051c:	f100 31ff 	add.w	r1, r0, #4294967295
 8000520:	d22e      	bcs.n	8000580 <__udivmoddi4+0x2a0>
 8000522:	45b8      	cmp	r8, r7
 8000524:	d92c      	bls.n	8000580 <__udivmoddi4+0x2a0>
 8000526:	3802      	subs	r0, #2
 8000528:	4427      	add	r7, r4
 800052a:	ea40 4009 	orr.w	r0, r0, r9, lsl #16
 800052e:	eba7 0708 	sub.w	r7, r7, r8
 8000532:	fba0 8902 	umull	r8, r9, r0, r2
 8000536:	454f      	cmp	r7, r9
 8000538:	46c6      	mov	lr, r8
 800053a:	4649      	mov	r1, r9
 800053c:	d31a      	bcc.n	8000574 <__udivmoddi4+0x294>
 800053e:	d017      	beq.n	8000570 <__udivmoddi4+0x290>
 8000540:	b15d      	cbz	r5, 800055a <__udivmoddi4+0x27a>
 8000542:	ebb3 020e 	subs.w	r2, r3, lr
 8000546:	eb67 0701 	sbc.w	r7, r7, r1
 800054a:	fa07 fc0c 	lsl.w	ip, r7, ip
 800054e:	40f2      	lsrs	r2, r6
 8000550:	ea4c 0202 	orr.w	r2, ip, r2
 8000554:	40f7      	lsrs	r7, r6
 8000556:	e9c5 2700 	strd	r2, r7, [r5]
 800055a:	2600      	movs	r6, #0
 800055c:	4631      	mov	r1, r6
 800055e:	e8bd 87f0 	ldmia.w	sp!, {r4, r5, r6, r7, r8, r9, sl, pc}
 8000562:	462e      	mov	r6, r5
 8000564:	4628      	mov	r0, r5
 8000566:	e70b      	b.n	8000380 <__udivmoddi4+0xa0>
 8000568:	4606      	mov	r6, r0
 800056a:	e6e9      	b.n	8000340 <__udivmoddi4+0x60>
 800056c:	4618      	mov	r0, r3
 800056e:	e6fd      	b.n	800036c <__udivmoddi4+0x8c>
 8000570:	4543      	cmp	r3, r8
 8000572:	d2e5      	bcs.n	8000540 <__udivmoddi4+0x260>
 8000574:	ebb8 0e02 	subs.w	lr, r8, r2
 8000578:	eb69 0104 	sbc.w	r1, r9, r4
 800057c:	3801      	subs	r0, #1
 800057e:	e7df      	b.n	8000540 <__udivmoddi4+0x260>
 8000580:	4608      	mov	r0, r1
 8000582:	e7d2      	b.n	800052a <__udivmoddi4+0x24a>
 8000584:	4660      	mov	r0, ip
 8000586:	e78d      	b.n	80004a4 <__udivmoddi4+0x1c4>
 8000588:	4681      	mov	r9, r0
 800058a:	e7b9      	b.n	8000500 <__udivmoddi4+0x220>
 800058c:	4666      	mov	r6, ip
 800058e:	e775      	b.n	800047c <__udivmoddi4+0x19c>
 8000590:	4630      	mov	r0, r6
 8000592:	e74a      	b.n	800042a <__udivmoddi4+0x14a>
 8000594:	f1ac 0c02 	sub.w	ip, ip, #2
 8000598:	4439      	add	r1, r7
 800059a:	e713      	b.n	80003c4 <__udivmoddi4+0xe4>
 800059c:	3802      	subs	r0, #2
 800059e:	443c      	add	r4, r7
 80005a0:	e724      	b.n	80003ec <__udivmoddi4+0x10c>
 80005a2:	bf00      	nop

080005a4 <__aeabi_idiv0>:
 80005a4:	4770      	bx	lr
 80005a6:	bf00      	nop

080005a8 <ITM_SendChar>:
           \li Is blocking when a debugger is connected, but the previous character sent has not been transmitted.
  \param [in]     ch  Character to transmit.
  \returns            Character to transmit.
 */
__STATIC_INLINE uint32_t ITM_SendChar (uint32_t ch)
{
 80005a8:	b480      	push	{r7}
 80005aa:	b083      	sub	sp, #12
 80005ac:	af00      	add	r7, sp, #0
 80005ae:	6078      	str	r0, [r7, #4]
  if (((ITM->TCR & ITM_TCR_ITMENA_Msk) != 0UL) &&      /* ITM enabled */
 80005b0:	f04f 4360 	mov.w	r3, #3758096384	; 0xe0000000
 80005b4:	f8d3 3e80 	ldr.w	r3, [r3, #3712]	; 0xe80
 80005b8:	f003 0301 	and.w	r3, r3, #1
 80005bc:	2b00      	cmp	r3, #0
 80005be:	d013      	beq.n	80005e8 <ITM_SendChar+0x40>
      ((ITM->TER & 1UL               ) != 0UL)   )     /* ITM Port #0 enabled */
 80005c0:	f04f 4360 	mov.w	r3, #3758096384	; 0xe0000000
 80005c4:	f8d3 3e00 	ldr.w	r3, [r3, #3584]	; 0xe00
 80005c8:	f003 0301 	and.w	r3, r3, #1
  if (((ITM->TCR & ITM_TCR_ITMENA_Msk) != 0UL) &&      /* ITM enabled */
 80005cc:	2b00      	cmp	r3, #0
 80005ce:	d00b      	beq.n	80005e8 <ITM_SendChar+0x40>
  {
    while (ITM->PORT[0U].u32 == 0UL)
 80005d0:	e000      	b.n	80005d4 <ITM_SendChar+0x2c>
    {
      __NOP();
 80005d2:	bf00      	nop
    while (ITM->PORT[0U].u32 == 0UL)
 80005d4:	f04f 4360 	mov.w	r3, #3758096384	; 0xe0000000
 80005d8:	681b      	ldr	r3, [r3, #0]
 80005da:	2b00      	cmp	r3, #0
 80005dc:	d0f9      	beq.n	80005d2 <ITM_SendChar+0x2a>
    }
    ITM->PORT[0U].u8 = (uint8_t)ch;
 80005de:	f04f 4360 	mov.w	r3, #3758096384	; 0xe0000000
 80005e2:	687a      	ldr	r2, [r7, #4]
 80005e4:	b2d2      	uxtb	r2, r2
 80005e6:	701a      	strb	r2, [r3, #0]
  }
  return (ch);
 80005e8:	687b      	ldr	r3, [r7, #4]
}
 80005ea:	4618      	mov	r0, r3
 80005ec:	370c      	adds	r7, #12
 80005ee:	46bd      	mov	sp, r7
 80005f0:	f85d 7b04 	ldr.w	r7, [sp], #4
 80005f4:	4770      	bx	lr
	...

080005f8 <main>:
/**
  * @brief  The application entry point.
  * @retval int
  */
int main(void)
{
 80005f8:	b580      	push	{r7, lr}
 80005fa:	af00      	add	r7, sp, #0
  /* USER CODE END 1 */

  /* MCU Configuration--------------------------------------------------------*/

  /* Reset of all peripherals, Initializes the Flash interface and the Systick. */
  HAL_Init();
 80005fc:	f000 fbe0 	bl	8000dc0 <HAL_Init>
  /* USER CODE BEGIN Init */

  /* USER CODE END Init */

  /* Configure the system clock */
  SystemClock_Config();
 8000600:	f000 f810 	bl	8000624 <SystemClock_Config>
  /* USER CODE BEGIN SysInit */

  /* USER CODE END SysInit */

  /* Initialize all configured peripherals */
  MX_GPIO_Init();
 8000604:	f000 f8ec 	bl	80007e0 <MX_GPIO_Init>
  MX_USART3_UART_Init();
 8000608:	f000 f8c0 	bl	800078c <MX_USART3_UART_Init>
  MX_USB_HOST_Init();
 800060c:	f007 fb7e 	bl	8007d0c <MX_USB_HOST_Init>
  MX_USART2_UART_Init();
 8000610:	f000 f892 	bl	8000738 <MX_USART2_UART_Init>
  /* USER CODE BEGIN 2 */

  printf("this is printf\n");
 8000614:	4802      	ldr	r0, [pc, #8]	; (8000620 <main+0x28>)
 8000616:	f008 f809 	bl	800862c <puts>
  /* USER CODE BEGIN WHILE */
  while (1)
  {

    /* USER CODE END WHILE */
    MX_USB_HOST_Process();
 800061a:	f007 fb9d 	bl	8007d58 <MX_USB_HOST_Process>
 800061e:	e7fc      	b.n	800061a <main+0x22>
 8000620:	080097b0 	.word	0x080097b0

08000624 <SystemClock_Config>:
/**
  * @brief System Clock Configuration
  * @retval None
  */
void SystemClock_Config(void)
{
 8000624:	b580      	push	{r7, lr}
 8000626:	b0ac      	sub	sp, #176	; 0xb0
 8000628:	af00      	add	r7, sp, #0
  RCC_OscInitTypeDef RCC_OscInitStruct = {0};
 800062a:	f107 037c 	add.w	r3, r7, #124	; 0x7c
 800062e:	2234      	movs	r2, #52	; 0x34
 8000630:	2100      	movs	r1, #0
 8000632:	4618      	mov	r0, r3
 8000634:	f007 feac 	bl	8008390 <memset>
  RCC_ClkInitTypeDef RCC_ClkInitStruct = {0};
 8000638:	f107 0368 	add.w	r3, r7, #104	; 0x68
 800063c:	2200      	movs	r2, #0
 800063e:	601a      	str	r2, [r3, #0]
 8000640:	605a      	str	r2, [r3, #4]
 8000642:	609a      	str	r2, [r3, #8]
 8000644:	60da      	str	r2, [r3, #12]
 8000646:	611a      	str	r2, [r3, #16]
  RCC_PeriphCLKInitTypeDef PeriphClkInitStruct = {0};
 8000648:	f107 030c 	add.w	r3, r7, #12
 800064c:	225c      	movs	r2, #92	; 0x5c
 800064e:	2100      	movs	r1, #0
 8000650:	4618      	mov	r0, r3
 8000652:	f007 fe9d 	bl	8008390 <memset>

  /** Configure the main internal regulator output voltage
  */
  __HAL_RCC_PWR_CLK_ENABLE();
 8000656:	2300      	movs	r3, #0
 8000658:	60bb      	str	r3, [r7, #8]
 800065a:	4b35      	ldr	r3, [pc, #212]	; (8000730 <SystemClock_Config+0x10c>)
 800065c:	6c1b      	ldr	r3, [r3, #64]	; 0x40
 800065e:	4a34      	ldr	r2, [pc, #208]	; (8000730 <SystemClock_Config+0x10c>)
 8000660:	f043 5380 	orr.w	r3, r3, #268435456	; 0x10000000
 8000664:	6413      	str	r3, [r2, #64]	; 0x40
 8000666:	4b32      	ldr	r3, [pc, #200]	; (8000730 <SystemClock_Config+0x10c>)
 8000668:	6c1b      	ldr	r3, [r3, #64]	; 0x40
 800066a:	f003 5380 	and.w	r3, r3, #268435456	; 0x10000000
 800066e:	60bb      	str	r3, [r7, #8]
 8000670:	68bb      	ldr	r3, [r7, #8]
  __HAL_PWR_VOLTAGESCALING_CONFIG(PWR_REGULATOR_VOLTAGE_SCALE1);
 8000672:	2300      	movs	r3, #0
 8000674:	607b      	str	r3, [r7, #4]
 8000676:	4b2f      	ldr	r3, [pc, #188]	; (8000734 <SystemClock_Config+0x110>)
 8000678:	681b      	ldr	r3, [r3, #0]
 800067a:	4a2e      	ldr	r2, [pc, #184]	; (8000734 <SystemClock_Config+0x110>)
 800067c:	f443 4340 	orr.w	r3, r3, #49152	; 0xc000
 8000680:	6013      	str	r3, [r2, #0]
 8000682:	4b2c      	ldr	r3, [pc, #176]	; (8000734 <SystemClock_Config+0x110>)
 8000684:	681b      	ldr	r3, [r3, #0]
 8000686:	f403 4340 	and.w	r3, r3, #49152	; 0xc000
 800068a:	607b      	str	r3, [r7, #4]
 800068c:	687b      	ldr	r3, [r7, #4]
  /** Initializes the RCC Oscillators according to the specified parameters
  * in the RCC_OscInitTypeDef structure.
  */
  RCC_OscInitStruct.OscillatorType = RCC_OSCILLATORTYPE_HSE;
 800068e:	2301      	movs	r3, #1
 8000690:	67fb      	str	r3, [r7, #124]	; 0x7c
  RCC_OscInitStruct.HSEState = RCC_HSE_BYPASS;
 8000692:	f44f 23a0 	mov.w	r3, #327680	; 0x50000
 8000696:	f8c7 3080 	str.w	r3, [r7, #128]	; 0x80
  RCC_OscInitStruct.PLL.PLLState = RCC_PLL_ON;
 800069a:	2302      	movs	r3, #2
 800069c:	f8c7 3094 	str.w	r3, [r7, #148]	; 0x94
  RCC_OscInitStruct.PLL.PLLSource = RCC_PLLSOURCE_HSE;
 80006a0:	f44f 0380 	mov.w	r3, #4194304	; 0x400000
 80006a4:	f8c7 3098 	str.w	r3, [r7, #152]	; 0x98
  RCC_OscInitStruct.PLL.PLLM = 4;
 80006a8:	2304      	movs	r3, #4
 80006aa:	f8c7 309c 	str.w	r3, [r7, #156]	; 0x9c
  RCC_OscInitStruct.PLL.PLLN = 168;
 80006ae:	23a8      	movs	r3, #168	; 0xa8
 80006b0:	f8c7 30a0 	str.w	r3, [r7, #160]	; 0xa0
  RCC_OscInitStruct.PLL.PLLP = RCC_PLLP_DIV2;
 80006b4:	2302      	movs	r3, #2
 80006b6:	f8c7 30a4 	str.w	r3, [r7, #164]	; 0xa4
  RCC_OscInitStruct.PLL.PLLQ = 7;
 80006ba:	2307      	movs	r3, #7
 80006bc:	f8c7 30a8 	str.w	r3, [r7, #168]	; 0xa8
  RCC_OscInitStruct.PLL.PLLR = 2;
 80006c0:	2302      	movs	r3, #2
 80006c2:	f8c7 30ac 	str.w	r3, [r7, #172]	; 0xac
  if (HAL_RCC_OscConfig(&RCC_OscInitStruct) != HAL_OK)
 80006c6:	f107 037c 	add.w	r3, r7, #124	; 0x7c
 80006ca:	4618      	mov	r0, r3
 80006cc:	f003 fa34 	bl	8003b38 <HAL_RCC_OscConfig>
 80006d0:	4603      	mov	r3, r0
 80006d2:	2b00      	cmp	r3, #0
 80006d4:	d001      	beq.n	80006da <SystemClock_Config+0xb6>
  {
    Error_Handler();
 80006d6:	f000 f9cf 	bl	8000a78 <Error_Handler>
  }
  /** Initializes the CPU, AHB and APB buses clocks
  */
  RCC_ClkInitStruct.ClockType = RCC_CLOCKTYPE_HCLK|RCC_CLOCKTYPE_SYSCLK
 80006da:	230f      	movs	r3, #15
 80006dc:	66bb      	str	r3, [r7, #104]	; 0x68
                              |RCC_CLOCKTYPE_PCLK1|RCC_CLOCKTYPE_PCLK2;
  RCC_ClkInitStruct.SYSCLKSource = RCC_SYSCLKSOURCE_PLLCLK;
 80006de:	2302      	movs	r3, #2
 80006e0:	66fb      	str	r3, [r7, #108]	; 0x6c
  RCC_ClkInitStruct.AHBCLKDivider = RCC_SYSCLK_DIV1;
 80006e2:	2300      	movs	r3, #0
 80006e4:	673b      	str	r3, [r7, #112]	; 0x70
  RCC_ClkInitStruct.APB1CLKDivider = RCC_HCLK_DIV4;
 80006e6:	f44f 53a0 	mov.w	r3, #5120	; 0x1400
 80006ea:	677b      	str	r3, [r7, #116]	; 0x74
  RCC_ClkInitStruct.APB2CLKDivider = RCC_HCLK_DIV2;
 80006ec:	f44f 5380 	mov.w	r3, #4096	; 0x1000
 80006f0:	67bb      	str	r3, [r7, #120]	; 0x78

  if (HAL_RCC_ClockConfig(&RCC_ClkInitStruct, FLASH_LATENCY_5) != HAL_OK)
 80006f2:	f107 0368 	add.w	r3, r7, #104	; 0x68
 80006f6:	2105      	movs	r1, #5
 80006f8:	4618      	mov	r0, r3
 80006fa:	f002 fc27 	bl	8002f4c <HAL_RCC_ClockConfig>
 80006fe:	4603      	mov	r3, r0
 8000700:	2b00      	cmp	r3, #0
 8000702:	d001      	beq.n	8000708 <SystemClock_Config+0xe4>
  {
    Error_Handler();
 8000704:	f000 f9b8 	bl	8000a78 <Error_Handler>
  }
  PeriphClkInitStruct.PeriphClockSelection = RCC_PERIPHCLK_CLK48;
 8000708:	f44f 7380 	mov.w	r3, #256	; 0x100
 800070c:	60fb      	str	r3, [r7, #12]
  PeriphClkInitStruct.Clk48ClockSelection = RCC_CLK48CLKSOURCE_PLLQ;
 800070e:	2300      	movs	r3, #0
 8000710:	663b      	str	r3, [r7, #96]	; 0x60
  if (HAL_RCCEx_PeriphCLKConfig(&PeriphClkInitStruct) != HAL_OK)
 8000712:	f107 030c 	add.w	r3, r7, #12
 8000716:	4618      	mov	r0, r3
 8000718:	f002 fd32 	bl	8003180 <HAL_RCCEx_PeriphCLKConfig>
 800071c:	4603      	mov	r3, r0
 800071e:	2b00      	cmp	r3, #0
 8000720:	d001      	beq.n	8000726 <SystemClock_Config+0x102>
  {
    Error_Handler();
 8000722:	f000 f9a9 	bl	8000a78 <Error_Handler>
  }
}
 8000726:	bf00      	nop
 8000728:	37b0      	adds	r7, #176	; 0xb0
 800072a:	46bd      	mov	sp, r7
 800072c:	bd80      	pop	{r7, pc}
 800072e:	bf00      	nop
 8000730:	40023800 	.word	0x40023800
 8000734:	40007000 	.word	0x40007000

08000738 <MX_USART2_UART_Init>:
  * @brief USART2 Initialization Function
  * @param None
  * @retval None
  */
static void MX_USART2_UART_Init(void)
{
 8000738:	b580      	push	{r7, lr}
 800073a:	af00      	add	r7, sp, #0
  /* USER CODE END USART2_Init 0 */

  /* USER CODE BEGIN USART2_Init 1 */

  /* USER CODE END USART2_Init 1 */
  huart2.Instance = USART2;
 800073c:	4b11      	ldr	r3, [pc, #68]	; (8000784 <MX_USART2_UART_Init+0x4c>)
 800073e:	4a12      	ldr	r2, [pc, #72]	; (8000788 <MX_USART2_UART_Init+0x50>)
 8000740:	601a      	str	r2, [r3, #0]
  huart2.Init.BaudRate = 115200;
 8000742:	4b10      	ldr	r3, [pc, #64]	; (8000784 <MX_USART2_UART_Init+0x4c>)
 8000744:	f44f 32e1 	mov.w	r2, #115200	; 0x1c200
 8000748:	605a      	str	r2, [r3, #4]
  huart2.Init.WordLength = UART_WORDLENGTH_8B;
 800074a:	4b0e      	ldr	r3, [pc, #56]	; (8000784 <MX_USART2_UART_Init+0x4c>)
 800074c:	2200      	movs	r2, #0
 800074e:	609a      	str	r2, [r3, #8]
  huart2.Init.StopBits = UART_STOPBITS_1;
 8000750:	4b0c      	ldr	r3, [pc, #48]	; (8000784 <MX_USART2_UART_Init+0x4c>)
 8000752:	2200      	movs	r2, #0
 8000754:	60da      	str	r2, [r3, #12]
  huart2.Init.Parity = UART_PARITY_NONE;
 8000756:	4b0b      	ldr	r3, [pc, #44]	; (8000784 <MX_USART2_UART_Init+0x4c>)
 8000758:	2200      	movs	r2, #0
 800075a:	611a      	str	r2, [r3, #16]
  huart2.Init.Mode = UART_MODE_TX_RX;
 800075c:	4b09      	ldr	r3, [pc, #36]	; (8000784 <MX_USART2_UART_Init+0x4c>)
 800075e:	220c      	movs	r2, #12
 8000760:	615a      	str	r2, [r3, #20]
  huart2.Init.HwFlowCtl = UART_HWCONTROL_NONE;
 8000762:	4b08      	ldr	r3, [pc, #32]	; (8000784 <MX_USART2_UART_Init+0x4c>)
 8000764:	2200      	movs	r2, #0
 8000766:	619a      	str	r2, [r3, #24]
  huart2.Init.OverSampling = UART_OVERSAMPLING_16;
 8000768:	4b06      	ldr	r3, [pc, #24]	; (8000784 <MX_USART2_UART_Init+0x4c>)
 800076a:	2200      	movs	r2, #0
 800076c:	61da      	str	r2, [r3, #28]
  if (HAL_UART_Init(&huart2) != HAL_OK)
 800076e:	4805      	ldr	r0, [pc, #20]	; (8000784 <MX_USART2_UART_Init+0x4c>)
 8000770:	f003 fc80 	bl	8004074 <HAL_UART_Init>
 8000774:	4603      	mov	r3, r0
 8000776:	2b00      	cmp	r3, #0
 8000778:	d001      	beq.n	800077e <MX_USART2_UART_Init+0x46>
  {
    Error_Handler();
 800077a:	f000 f97d 	bl	8000a78 <Error_Handler>
  }
  /* USER CODE BEGIN USART2_Init 2 */

  /* USER CODE END USART2_Init 2 */

}
 800077e:	bf00      	nop
 8000780:	bd80      	pop	{r7, pc}
 8000782:	bf00      	nop
 8000784:	2000018c 	.word	0x2000018c
 8000788:	40004400 	.word	0x40004400

0800078c <MX_USART3_UART_Init>:
  * @brief USART3 Initialization Function
  * @param None
  * @retval None
  */
static void MX_USART3_UART_Init(void)
{
 800078c:	b580      	push	{r7, lr}
 800078e:	af00      	add	r7, sp, #0
  /* USER CODE END USART3_Init 0 */

  /* USER CODE BEGIN USART3_Init 1 */

  /* USER CODE END USART3_Init 1 */
  huart3.Instance = USART3;
 8000790:	4b11      	ldr	r3, [pc, #68]	; (80007d8 <MX_USART3_UART_Init+0x4c>)
 8000792:	4a12      	ldr	r2, [pc, #72]	; (80007dc <MX_USART3_UART_Init+0x50>)
 8000794:	601a      	str	r2, [r3, #0]
  huart3.Init.BaudRate = 115200;
 8000796:	4b10      	ldr	r3, [pc, #64]	; (80007d8 <MX_USART3_UART_Init+0x4c>)
 8000798:	f44f 32e1 	mov.w	r2, #115200	; 0x1c200
 800079c:	605a      	str	r2, [r3, #4]
  huart3.Init.WordLength = UART_WORDLENGTH_8B;
 800079e:	4b0e      	ldr	r3, [pc, #56]	; (80007d8 <MX_USART3_UART_Init+0x4c>)
 80007a0:	2200      	movs	r2, #0
 80007a2:	609a      	str	r2, [r3, #8]
  huart3.Init.StopBits = UART_STOPBITS_1;
 80007a4:	4b0c      	ldr	r3, [pc, #48]	; (80007d8 <MX_USART3_UART_Init+0x4c>)
 80007a6:	2200      	movs	r2, #0
 80007a8:	60da      	str	r2, [r3, #12]
  huart3.Init.Parity = UART_PARITY_NONE;
 80007aa:	4b0b      	ldr	r3, [pc, #44]	; (80007d8 <MX_USART3_UART_Init+0x4c>)
 80007ac:	2200      	movs	r2, #0
 80007ae:	611a      	str	r2, [r3, #16]
  huart3.Init.Mode = UART_MODE_TX_RX;
 80007b0:	4b09      	ldr	r3, [pc, #36]	; (80007d8 <MX_USART3_UART_Init+0x4c>)
 80007b2:	220c      	movs	r2, #12
 80007b4:	615a      	str	r2, [r3, #20]
  huart3.Init.HwFlowCtl = UART_HWCONTROL_NONE;
 80007b6:	4b08      	ldr	r3, [pc, #32]	; (80007d8 <MX_USART3_UART_Init+0x4c>)
 80007b8:	2200      	movs	r2, #0
 80007ba:	619a      	str	r2, [r3, #24]
  huart3.Init.OverSampling = UART_OVERSAMPLING_16;
 80007bc:	4b06      	ldr	r3, [pc, #24]	; (80007d8 <MX_USART3_UART_Init+0x4c>)
 80007be:	2200      	movs	r2, #0
 80007c0:	61da      	str	r2, [r3, #28]
  if (HAL_UART_Init(&huart3) != HAL_OK)
 80007c2:	4805      	ldr	r0, [pc, #20]	; (80007d8 <MX_USART3_UART_Init+0x4c>)
 80007c4:	f003 fc56 	bl	8004074 <HAL_UART_Init>
 80007c8:	4603      	mov	r3, r0
 80007ca:	2b00      	cmp	r3, #0
 80007cc:	d001      	beq.n	80007d2 <MX_USART3_UART_Init+0x46>
  {
    Error_Handler();
 80007ce:	f000 f953 	bl	8000a78 <Error_Handler>
  }
  /* USER CODE BEGIN USART3_Init 2 */

  /* USER CODE END USART3_Init 2 */

}
 80007d2:	bf00      	nop
 80007d4:	bd80      	pop	{r7, pc}
 80007d6:	bf00      	nop
 80007d8:	20000134 	.word	0x20000134
 80007dc:	40004800 	.word	0x40004800

080007e0 <MX_GPIO_Init>:
  * @brief GPIO Initialization Function
  * @param None
  * @retval None
  */
static void MX_GPIO_Init(void)
{
 80007e0:	b580      	push	{r7, lr}
 80007e2:	b08c      	sub	sp, #48	; 0x30
 80007e4:	af00      	add	r7, sp, #0
  GPIO_InitTypeDef GPIO_InitStruct = {0};
 80007e6:	f107 031c 	add.w	r3, r7, #28
 80007ea:	2200      	movs	r2, #0
 80007ec:	601a      	str	r2, [r3, #0]
 80007ee:	605a      	str	r2, [r3, #4]
 80007f0:	609a      	str	r2, [r3, #8]
 80007f2:	60da      	str	r2, [r3, #12]
 80007f4:	611a      	str	r2, [r3, #16]

  /* GPIO Ports Clock Enable */
  __HAL_RCC_GPIOC_CLK_ENABLE();
 80007f6:	2300      	movs	r3, #0
 80007f8:	61bb      	str	r3, [r7, #24]
 80007fa:	4b4c      	ldr	r3, [pc, #304]	; (800092c <MX_GPIO_Init+0x14c>)
 80007fc:	6b1b      	ldr	r3, [r3, #48]	; 0x30
 80007fe:	4a4b      	ldr	r2, [pc, #300]	; (800092c <MX_GPIO_Init+0x14c>)
 8000800:	f043 0304 	orr.w	r3, r3, #4
 8000804:	6313      	str	r3, [r2, #48]	; 0x30
 8000806:	4b49      	ldr	r3, [pc, #292]	; (800092c <MX_GPIO_Init+0x14c>)
 8000808:	6b1b      	ldr	r3, [r3, #48]	; 0x30
 800080a:	f003 0304 	and.w	r3, r3, #4
 800080e:	61bb      	str	r3, [r7, #24]
 8000810:	69bb      	ldr	r3, [r7, #24]
  __HAL_RCC_GPIOH_CLK_ENABLE();
 8000812:	2300      	movs	r3, #0
 8000814:	617b      	str	r3, [r7, #20]
 8000816:	4b45      	ldr	r3, [pc, #276]	; (800092c <MX_GPIO_Init+0x14c>)
 8000818:	6b1b      	ldr	r3, [r3, #48]	; 0x30
 800081a:	4a44      	ldr	r2, [pc, #272]	; (800092c <MX_GPIO_Init+0x14c>)
 800081c:	f043 0380 	orr.w	r3, r3, #128	; 0x80
 8000820:	6313      	str	r3, [r2, #48]	; 0x30
 8000822:	4b42      	ldr	r3, [pc, #264]	; (800092c <MX_GPIO_Init+0x14c>)
 8000824:	6b1b      	ldr	r3, [r3, #48]	; 0x30
 8000826:	f003 0380 	and.w	r3, r3, #128	; 0x80
 800082a:	617b      	str	r3, [r7, #20]
 800082c:	697b      	ldr	r3, [r7, #20]
  __HAL_RCC_GPIOA_CLK_ENABLE();
 800082e:	2300      	movs	r3, #0
 8000830:	613b      	str	r3, [r7, #16]
 8000832:	4b3e      	ldr	r3, [pc, #248]	; (800092c <MX_GPIO_Init+0x14c>)
 8000834:	6b1b      	ldr	r3, [r3, #48]	; 0x30
 8000836:	4a3d      	ldr	r2, [pc, #244]	; (800092c <MX_GPIO_Init+0x14c>)
 8000838:	f043 0301 	orr.w	r3, r3, #1
 800083c:	6313      	str	r3, [r2, #48]	; 0x30
 800083e:	4b3b      	ldr	r3, [pc, #236]	; (800092c <MX_GPIO_Init+0x14c>)
 8000840:	6b1b      	ldr	r3, [r3, #48]	; 0x30
 8000842:	f003 0301 	and.w	r3, r3, #1
 8000846:	613b      	str	r3, [r7, #16]
 8000848:	693b      	ldr	r3, [r7, #16]
  __HAL_RCC_GPIOB_CLK_ENABLE();
 800084a:	2300      	movs	r3, #0
 800084c:	60fb      	str	r3, [r7, #12]
 800084e:	4b37      	ldr	r3, [pc, #220]	; (800092c <MX_GPIO_Init+0x14c>)
 8000850:	6b1b      	ldr	r3, [r3, #48]	; 0x30
 8000852:	4a36      	ldr	r2, [pc, #216]	; (800092c <MX_GPIO_Init+0x14c>)
 8000854:	f043 0302 	orr.w	r3, r3, #2
 8000858:	6313      	str	r3, [r2, #48]	; 0x30
 800085a:	4b34      	ldr	r3, [pc, #208]	; (800092c <MX_GPIO_Init+0x14c>)
 800085c:	6b1b      	ldr	r3, [r3, #48]	; 0x30
 800085e:	f003 0302 	and.w	r3, r3, #2
 8000862:	60fb      	str	r3, [r7, #12]
 8000864:	68fb      	ldr	r3, [r7, #12]
  __HAL_RCC_GPIOD_CLK_ENABLE();
 8000866:	2300      	movs	r3, #0
 8000868:	60bb      	str	r3, [r7, #8]
 800086a:	4b30      	ldr	r3, [pc, #192]	; (800092c <MX_GPIO_Init+0x14c>)
 800086c:	6b1b      	ldr	r3, [r3, #48]	; 0x30
 800086e:	4a2f      	ldr	r2, [pc, #188]	; (800092c <MX_GPIO_Init+0x14c>)
 8000870:	f043 0308 	orr.w	r3, r3, #8
 8000874:	6313      	str	r3, [r2, #48]	; 0x30
 8000876:	4b2d      	ldr	r3, [pc, #180]	; (800092c <MX_GPIO_Init+0x14c>)
 8000878:	6b1b      	ldr	r3, [r3, #48]	; 0x30
 800087a:	f003 0308 	and.w	r3, r3, #8
 800087e:	60bb      	str	r3, [r7, #8]
 8000880:	68bb      	ldr	r3, [r7, #8]
  __HAL_RCC_GPIOG_CLK_ENABLE();
 8000882:	2300      	movs	r3, #0
 8000884:	607b      	str	r3, [r7, #4]
 8000886:	4b29      	ldr	r3, [pc, #164]	; (800092c <MX_GPIO_Init+0x14c>)
 8000888:	6b1b      	ldr	r3, [r3, #48]	; 0x30
 800088a:	4a28      	ldr	r2, [pc, #160]	; (800092c <MX_GPIO_Init+0x14c>)
 800088c:	f043 0340 	orr.w	r3, r3, #64	; 0x40
 8000890:	6313      	str	r3, [r2, #48]	; 0x30
 8000892:	4b26      	ldr	r3, [pc, #152]	; (800092c <MX_GPIO_Init+0x14c>)
 8000894:	6b1b      	ldr	r3, [r3, #48]	; 0x30
 8000896:	f003 0340 	and.w	r3, r3, #64	; 0x40
 800089a:	607b      	str	r3, [r7, #4]
 800089c:	687b      	ldr	r3, [r7, #4]

  /*Configure GPIO pin Output Level */
  HAL_GPIO_WritePin(GPIOB, LD1_Pin|LD3_Pin|LD2_Pin, GPIO_PIN_RESET);
 800089e:	2200      	movs	r2, #0
 80008a0:	f244 0181 	movw	r1, #16513	; 0x4081
 80008a4:	4822      	ldr	r0, [pc, #136]	; (8000930 <MX_GPIO_Init+0x150>)
 80008a6:	f000 fdc7 	bl	8001438 <HAL_GPIO_WritePin>

  /*Configure GPIO pin Output Level */
  HAL_GPIO_WritePin(USB_PowerSwitchOn_GPIO_Port, USB_PowerSwitchOn_Pin, GPIO_PIN_RESET);
 80008aa:	2200      	movs	r2, #0
 80008ac:	2140      	movs	r1, #64	; 0x40
 80008ae:	4821      	ldr	r0, [pc, #132]	; (8000934 <MX_GPIO_Init+0x154>)
 80008b0:	f000 fdc2 	bl	8001438 <HAL_GPIO_WritePin>

  /*Configure GPIO pin : USER_Btn_Pin */
  GPIO_InitStruct.Pin = USER_Btn_Pin;
 80008b4:	f44f 5300 	mov.w	r3, #8192	; 0x2000
 80008b8:	61fb      	str	r3, [r7, #28]
  GPIO_InitStruct.Mode = GPIO_MODE_IT_RISING;
 80008ba:	f44f 1388 	mov.w	r3, #1114112	; 0x110000
 80008be:	623b      	str	r3, [r7, #32]
  GPIO_InitStruct.Pull = GPIO_NOPULL;
 80008c0:	2300      	movs	r3, #0
 80008c2:	627b      	str	r3, [r7, #36]	; 0x24
  HAL_GPIO_Init(USER_Btn_GPIO_Port, &GPIO_InitStruct);
 80008c4:	f107 031c 	add.w	r3, r7, #28
 80008c8:	4619      	mov	r1, r3
 80008ca:	481b      	ldr	r0, [pc, #108]	; (8000938 <MX_GPIO_Init+0x158>)
 80008cc:	f000 fc20 	bl	8001110 <HAL_GPIO_Init>

  /*Configure GPIO pins : LD1_Pin LD3_Pin LD2_Pin */
  GPIO_InitStruct.Pin = LD1_Pin|LD3_Pin|LD2_Pin;
 80008d0:	f244 0381 	movw	r3, #16513	; 0x4081
 80008d4:	61fb      	str	r3, [r7, #28]
  GPIO_InitStruct.Mode = GPIO_MODE_OUTPUT_PP;
 80008d6:	2301      	movs	r3, #1
 80008d8:	623b      	str	r3, [r7, #32]
  GPIO_InitStruct.Pull = GPIO_NOPULL;
 80008da:	2300      	movs	r3, #0
 80008dc:	627b      	str	r3, [r7, #36]	; 0x24
  GPIO_InitStruct.Speed = GPIO_SPEED_FREQ_LOW;
 80008de:	2300      	movs	r3, #0
 80008e0:	62bb      	str	r3, [r7, #40]	; 0x28
  HAL_GPIO_Init(GPIOB, &GPIO_InitStruct);
 80008e2:	f107 031c 	add.w	r3, r7, #28
 80008e6:	4619      	mov	r1, r3
 80008e8:	4811      	ldr	r0, [pc, #68]	; (8000930 <MX_GPIO_Init+0x150>)
 80008ea:	f000 fc11 	bl	8001110 <HAL_GPIO_Init>

  /*Configure GPIO pin : USB_PowerSwitchOn_Pin */
  GPIO_InitStruct.Pin = USB_PowerSwitchOn_Pin;
 80008ee:	2340      	movs	r3, #64	; 0x40
 80008f0:	61fb      	str	r3, [r7, #28]
  GPIO_InitStruct.Mode = GPIO_MODE_OUTPUT_PP;
 80008f2:	2301      	movs	r3, #1
 80008f4:	623b      	str	r3, [r7, #32]
  GPIO_InitStruct.Pull = GPIO_NOPULL;
 80008f6:	2300      	movs	r3, #0
 80008f8:	627b      	str	r3, [r7, #36]	; 0x24
  GPIO_InitStruct.Speed = GPIO_SPEED_FREQ_LOW;
 80008fa:	2300      	movs	r3, #0
 80008fc:	62bb      	str	r3, [r7, #40]	; 0x28
  HAL_GPIO_Init(USB_PowerSwitchOn_GPIO_Port, &GPIO_InitStruct);
 80008fe:	f107 031c 	add.w	r3, r7, #28
 8000902:	4619      	mov	r1, r3
 8000904:	480b      	ldr	r0, [pc, #44]	; (8000934 <MX_GPIO_Init+0x154>)
 8000906:	f000 fc03 	bl	8001110 <HAL_GPIO_Init>

  /*Configure GPIO pin : USB_OverCurrent_Pin */
  GPIO_InitStruct.Pin = USB_OverCurrent_Pin;
 800090a:	2380      	movs	r3, #128	; 0x80
 800090c:	61fb      	str	r3, [r7, #28]
  GPIO_InitStruct.Mode = GPIO_MODE_INPUT;
 800090e:	2300      	movs	r3, #0
 8000910:	623b      	str	r3, [r7, #32]
  GPIO_InitStruct.Pull = GPIO_NOPULL;
 8000912:	2300      	movs	r3, #0
 8000914:	627b      	str	r3, [r7, #36]	; 0x24
  HAL_GPIO_Init(USB_OverCurrent_GPIO_Port, &GPIO_InitStruct);
 8000916:	f107 031c 	add.w	r3, r7, #28
 800091a:	4619      	mov	r1, r3
 800091c:	4805      	ldr	r0, [pc, #20]	; (8000934 <MX_GPIO_Init+0x154>)
 800091e:	f000 fbf7 	bl	8001110 <HAL_GPIO_Init>

}
 8000922:	bf00      	nop
 8000924:	3730      	adds	r7, #48	; 0x30
 8000926:	46bd      	mov	sp, r7
 8000928:	bd80      	pop	{r7, pc}
 800092a:	bf00      	nop
 800092c:	40023800 	.word	0x40023800
 8000930:	40020400 	.word	0x40020400
 8000934:	40021800 	.word	0x40021800
 8000938:	40020800 	.word	0x40020800

0800093c <USBH_HID_EventCallback>:

/* USER CODE BEGIN 4 */

void USBH_HID_EventCallback(USBH_HandleTypeDef *phost) {
 800093c:	b5f0      	push	{r4, r5, r6, r7, lr}
 800093e:	b08b      	sub	sp, #44	; 0x2c
 8000940:	af06      	add	r7, sp, #24
 8000942:	6078      	str	r0, [r7, #4]
	HID_KEYBD_Info_TypeDef *keybd_info;
	HID_KEYBD_Data_TypeDef *data;


	uint8_t keycode;
	HID_HandleTypeDef *HID_Handle = (HID_HandleTypeDef*) phost->pActiveClass->pData;
 8000944:	687b      	ldr	r3, [r7, #4]
 8000946:	f8d3 337c 	ldr.w	r3, [r3, #892]	; 0x37c
 800094a:	69db      	ldr	r3, [r3, #28]
 800094c:	60fb      	str	r3, [r7, #12]
	}
*/

	uint8_t x;

	if (HID_Handle->Init == USBH_HID_KeybdInit) {
 800094e:	68fb      	ldr	r3, [r7, #12]
 8000950:	6b1b      	ldr	r3, [r3, #48]	; 0x30
 8000952:	4a33      	ldr	r2, [pc, #204]	; (8000a20 <USBH_HID_EventCallback+0xe4>)
 8000954:	4293      	cmp	r3, r2
 8000956:	d133      	bne.n	80009c0 <USBH_HID_EventCallback+0x84>


		data = USBH_HID_GetKeybdData(phost);
 8000958:	6878      	ldr	r0, [r7, #4]
 800095a:	f005 fb73 	bl	8006044 <USBH_HID_GetKeybdData>
 800095e:	60b8      	str	r0, [r7, #8]
	    {
	    	rx_data[x] = (uint8_t)HID_ReadItem((HID_Report_ItemTypedef *) &imp_0_full_array, x);
	    }
*/
		uart_length = sprintf(uart_tx_buffer, "Key pressed: %x, %x, %x, %x, %x, %x, %x, %x\n\r",
				data->data[0],data->data[1],data->data[2],data->data[3],data->data[4],data->data[5],data->data[6],data->data[7]);
 8000960:	68bb      	ldr	r3, [r7, #8]
 8000962:	781b      	ldrb	r3, [r3, #0]
		uart_length = sprintf(uart_tx_buffer, "Key pressed: %x, %x, %x, %x, %x, %x, %x, %x\n\r",
 8000964:	461e      	mov	r6, r3
				data->data[0],data->data[1],data->data[2],data->data[3],data->data[4],data->data[5],data->data[6],data->data[7]);
 8000966:	68bb      	ldr	r3, [r7, #8]
 8000968:	785b      	ldrb	r3, [r3, #1]
		uart_length = sprintf(uart_tx_buffer, "Key pressed: %x, %x, %x, %x, %x, %x, %x, %x\n\r",
 800096a:	469c      	mov	ip, r3
				data->data[0],data->data[1],data->data[2],data->data[3],data->data[4],data->data[5],data->data[6],data->data[7]);
 800096c:	68bb      	ldr	r3, [r7, #8]
 800096e:	789b      	ldrb	r3, [r3, #2]
		uart_length = sprintf(uart_tx_buffer, "Key pressed: %x, %x, %x, %x, %x, %x, %x, %x\n\r",
 8000970:	461a      	mov	r2, r3
				data->data[0],data->data[1],data->data[2],data->data[3],data->data[4],data->data[5],data->data[6],data->data[7]);
 8000972:	68bb      	ldr	r3, [r7, #8]
 8000974:	78db      	ldrb	r3, [r3, #3]
		uart_length = sprintf(uart_tx_buffer, "Key pressed: %x, %x, %x, %x, %x, %x, %x, %x\n\r",
 8000976:	4619      	mov	r1, r3
				data->data[0],data->data[1],data->data[2],data->data[3],data->data[4],data->data[5],data->data[6],data->data[7]);
 8000978:	68bb      	ldr	r3, [r7, #8]
 800097a:	791b      	ldrb	r3, [r3, #4]
		uart_length = sprintf(uart_tx_buffer, "Key pressed: %x, %x, %x, %x, %x, %x, %x, %x\n\r",
 800097c:	4618      	mov	r0, r3
				data->data[0],data->data[1],data->data[2],data->data[3],data->data[4],data->data[5],data->data[6],data->data[7]);
 800097e:	68bb      	ldr	r3, [r7, #8]
 8000980:	795b      	ldrb	r3, [r3, #5]
		uart_length = sprintf(uart_tx_buffer, "Key pressed: %x, %x, %x, %x, %x, %x, %x, %x\n\r",
 8000982:	461c      	mov	r4, r3
				data->data[0],data->data[1],data->data[2],data->data[3],data->data[4],data->data[5],data->data[6],data->data[7]);
 8000984:	68bb      	ldr	r3, [r7, #8]
 8000986:	799b      	ldrb	r3, [r3, #6]
		uart_length = sprintf(uart_tx_buffer, "Key pressed: %x, %x, %x, %x, %x, %x, %x, %x\n\r",
 8000988:	461d      	mov	r5, r3
				data->data[0],data->data[1],data->data[2],data->data[3],data->data[4],data->data[5],data->data[6],data->data[7]);
 800098a:	68bb      	ldr	r3, [r7, #8]
 800098c:	79db      	ldrb	r3, [r3, #7]
		uart_length = sprintf(uart_tx_buffer, "Key pressed: %x, %x, %x, %x, %x, %x, %x, %x\n\r",
 800098e:	9305      	str	r3, [sp, #20]
 8000990:	9504      	str	r5, [sp, #16]
 8000992:	9403      	str	r4, [sp, #12]
 8000994:	9002      	str	r0, [sp, #8]
 8000996:	9101      	str	r1, [sp, #4]
 8000998:	9200      	str	r2, [sp, #0]
 800099a:	4663      	mov	r3, ip
 800099c:	4632      	mov	r2, r6
 800099e:	4921      	ldr	r1, [pc, #132]	; (8000a24 <USBH_HID_EventCallback+0xe8>)
 80009a0:	4821      	ldr	r0, [pc, #132]	; (8000a28 <USBH_HID_EventCallback+0xec>)
 80009a2:	f007 fe5b 	bl	800865c <siprintf>
 80009a6:	4603      	mov	r3, r0
 80009a8:	4a20      	ldr	r2, [pc, #128]	; (8000a2c <USBH_HID_EventCallback+0xf0>)
 80009aa:	6013      	str	r3, [r2, #0]
		HAL_UART_Transmit(&huart2, uart_tx_buffer, (uint16_t) uart_length, 1000);
 80009ac:	4b1f      	ldr	r3, [pc, #124]	; (8000a2c <USBH_HID_EventCallback+0xf0>)
 80009ae:	681b      	ldr	r3, [r3, #0]
 80009b0:	b29a      	uxth	r2, r3
 80009b2:	f44f 737a 	mov.w	r3, #1000	; 0x3e8
 80009b6:	491c      	ldr	r1, [pc, #112]	; (8000a28 <USBH_HID_EventCallback+0xec>)
 80009b8:	481d      	ldr	r0, [pc, #116]	; (8000a30 <USBH_HID_EventCallback+0xf4>)
 80009ba:	f003 fba8 	bl	800410e <HAL_UART_Transmit>
		uart_length=sprintf(uart_tx_buffer, "Mouse action: x= 0x%x, y= 0x%x, button1 = 0x%x, button2 = 0x%x, button3 = 0x%x \n\r",
				mouse_info.x, mouse_info.y,	mouse_info.buttons[0],
				mouse_info.buttons[1], mouse_info.buttons[2]);
		HAL_UART_Transmit(&huart2, uart_tx_buffer, (uint16_t) uart_length,	1000);
	}
}
 80009be:	e02a      	b.n	8000a16 <USBH_HID_EventCallback+0xda>
	else if (HID_Handle->Init == USBH_HID_MouseInit) {
 80009c0:	68fb      	ldr	r3, [r7, #12]
 80009c2:	6b1b      	ldr	r3, [r3, #48]	; 0x30
 80009c4:	4a1b      	ldr	r2, [pc, #108]	; (8000a34 <USBH_HID_EventCallback+0xf8>)
 80009c6:	4293      	cmp	r3, r2
 80009c8:	d125      	bne.n	8000a16 <USBH_HID_EventCallback+0xda>
		USBH_HID_GetMouseInfo(phost);
 80009ca:	6878      	ldr	r0, [r7, #4]
 80009cc:	f005 fb98 	bl	8006100 <USBH_HID_GetMouseInfo>
				mouse_info.x, mouse_info.y,	mouse_info.buttons[0],
 80009d0:	4b19      	ldr	r3, [pc, #100]	; (8000a38 <USBH_HID_EventCallback+0xfc>)
 80009d2:	781b      	ldrb	r3, [r3, #0]
		uart_length=sprintf(uart_tx_buffer, "Mouse action: x= 0x%x, y= 0x%x, button1 = 0x%x, button2 = 0x%x, button3 = 0x%x \n\r",
 80009d4:	4618      	mov	r0, r3
				mouse_info.x, mouse_info.y,	mouse_info.buttons[0],
 80009d6:	4b18      	ldr	r3, [pc, #96]	; (8000a38 <USBH_HID_EventCallback+0xfc>)
 80009d8:	785b      	ldrb	r3, [r3, #1]
		uart_length=sprintf(uart_tx_buffer, "Mouse action: x= 0x%x, y= 0x%x, button1 = 0x%x, button2 = 0x%x, button3 = 0x%x \n\r",
 80009da:	461c      	mov	r4, r3
				mouse_info.x, mouse_info.y,	mouse_info.buttons[0],
 80009dc:	4b16      	ldr	r3, [pc, #88]	; (8000a38 <USBH_HID_EventCallback+0xfc>)
 80009de:	789b      	ldrb	r3, [r3, #2]
		uart_length=sprintf(uart_tx_buffer, "Mouse action: x= 0x%x, y= 0x%x, button1 = 0x%x, button2 = 0x%x, button3 = 0x%x \n\r",
 80009e0:	461a      	mov	r2, r3
				mouse_info.buttons[1], mouse_info.buttons[2]);
 80009e2:	4b15      	ldr	r3, [pc, #84]	; (8000a38 <USBH_HID_EventCallback+0xfc>)
 80009e4:	78db      	ldrb	r3, [r3, #3]
		uart_length=sprintf(uart_tx_buffer, "Mouse action: x= 0x%x, y= 0x%x, button1 = 0x%x, button2 = 0x%x, button3 = 0x%x \n\r",
 80009e6:	4619      	mov	r1, r3
				mouse_info.buttons[1], mouse_info.buttons[2]);
 80009e8:	4b13      	ldr	r3, [pc, #76]	; (8000a38 <USBH_HID_EventCallback+0xfc>)
 80009ea:	791b      	ldrb	r3, [r3, #4]
		uart_length=sprintf(uart_tx_buffer, "Mouse action: x= 0x%x, y= 0x%x, button1 = 0x%x, button2 = 0x%x, button3 = 0x%x \n\r",
 80009ec:	9302      	str	r3, [sp, #8]
 80009ee:	9101      	str	r1, [sp, #4]
 80009f0:	9200      	str	r2, [sp, #0]
 80009f2:	4623      	mov	r3, r4
 80009f4:	4602      	mov	r2, r0
 80009f6:	4911      	ldr	r1, [pc, #68]	; (8000a3c <USBH_HID_EventCallback+0x100>)
 80009f8:	480b      	ldr	r0, [pc, #44]	; (8000a28 <USBH_HID_EventCallback+0xec>)
 80009fa:	f007 fe2f 	bl	800865c <siprintf>
 80009fe:	4603      	mov	r3, r0
 8000a00:	4a0a      	ldr	r2, [pc, #40]	; (8000a2c <USBH_HID_EventCallback+0xf0>)
 8000a02:	6013      	str	r3, [r2, #0]
		HAL_UART_Transmit(&huart2, uart_tx_buffer, (uint16_t) uart_length,	1000);
 8000a04:	4b09      	ldr	r3, [pc, #36]	; (8000a2c <USBH_HID_EventCallback+0xf0>)
 8000a06:	681b      	ldr	r3, [r3, #0]
 8000a08:	b29a      	uxth	r2, r3
 8000a0a:	f44f 737a 	mov.w	r3, #1000	; 0x3e8
 8000a0e:	4906      	ldr	r1, [pc, #24]	; (8000a28 <USBH_HID_EventCallback+0xec>)
 8000a10:	4807      	ldr	r0, [pc, #28]	; (8000a30 <USBH_HID_EventCallback+0xf4>)
 8000a12:	f003 fb7c 	bl	800410e <HAL_UART_Transmit>
}
 8000a16:	bf00      	nop
 8000a18:	3714      	adds	r7, #20
 8000a1a:	46bd      	mov	sp, r7
 8000a1c:	bdf0      	pop	{r4, r5, r6, r7, pc}
 8000a1e:	bf00      	nop
 8000a20:	08005f55 	.word	0x08005f55
 8000a24:	080097c0 	.word	0x080097c0
 8000a28:	200000d0 	.word	0x200000d0
 8000a2c:	200000ac 	.word	0x200000ac
 8000a30:	2000018c 	.word	0x2000018c
 8000a34:	0800606d 	.word	0x0800606d
 8000a38:	200001d4 	.word	0x200001d4
 8000a3c:	080097f0 	.word	0x080097f0

08000a40 <_write>:

int _write(int file, char *ptr, int len){
 8000a40:	b580      	push	{r7, lr}
 8000a42:	b086      	sub	sp, #24
 8000a44:	af00      	add	r7, sp, #0
 8000a46:	60f8      	str	r0, [r7, #12]
 8000a48:	60b9      	str	r1, [r7, #8]
 8000a4a:	607a      	str	r2, [r7, #4]

	int DataIdx;

		for(DataIdx = 0; DataIdx < len; DataIdx++){
 8000a4c:	2300      	movs	r3, #0
 8000a4e:	617b      	str	r3, [r7, #20]
 8000a50:	e009      	b.n	8000a66 <_write+0x26>
			ITM_SendChar(*ptr++);
 8000a52:	68bb      	ldr	r3, [r7, #8]
 8000a54:	1c5a      	adds	r2, r3, #1
 8000a56:	60ba      	str	r2, [r7, #8]
 8000a58:	781b      	ldrb	r3, [r3, #0]
 8000a5a:	4618      	mov	r0, r3
 8000a5c:	f7ff fda4 	bl	80005a8 <ITM_SendChar>
		for(DataIdx = 0; DataIdx < len; DataIdx++){
 8000a60:	697b      	ldr	r3, [r7, #20]
 8000a62:	3301      	adds	r3, #1
 8000a64:	617b      	str	r3, [r7, #20]
 8000a66:	697a      	ldr	r2, [r7, #20]
 8000a68:	687b      	ldr	r3, [r7, #4]
 8000a6a:	429a      	cmp	r2, r3
 8000a6c:	dbf1      	blt.n	8000a52 <_write+0x12>
		}

	return len;
 8000a6e:	687b      	ldr	r3, [r7, #4]
}
 8000a70:	4618      	mov	r0, r3
 8000a72:	3718      	adds	r7, #24
 8000a74:	46bd      	mov	sp, r7
 8000a76:	bd80      	pop	{r7, pc}

08000a78 <Error_Handler>:
/**
  * @brief  This function is executed in case of error occurrence.
  * @retval None
  */
void Error_Handler(void)
{
 8000a78:	b480      	push	{r7}
 8000a7a:	af00      	add	r7, sp, #0
  \details Disables IRQ interrupts by setting the I-bit in the CPSR.
           Can only be executed in Privileged modes.
 */
__STATIC_FORCEINLINE void __disable_irq(void)
{
  __ASM volatile ("cpsid i" : : : "memory");
 8000a7c:	b672      	cpsid	i
}
 8000a7e:	bf00      	nop
  /* USER CODE BEGIN Error_Handler_Debug */
  /* User can add his own implementation to report the HAL error return state */
  __disable_irq();
  while (1)
 8000a80:	e7fe      	b.n	8000a80 <Error_Handler+0x8>
	...

08000a84 <HAL_MspInit>:
/* USER CODE END 0 */
/**
  * Initializes the Global MSP.
  */
void HAL_MspInit(void)
{
 8000a84:	b480      	push	{r7}
 8000a86:	b083      	sub	sp, #12
 8000a88:	af00      	add	r7, sp, #0
  /* USER CODE BEGIN MspInit 0 */

  /* USER CODE END MspInit 0 */

  __HAL_RCC_SYSCFG_CLK_ENABLE();
 8000a8a:	2300      	movs	r3, #0
 8000a8c:	607b      	str	r3, [r7, #4]
 8000a8e:	4b10      	ldr	r3, [pc, #64]	; (8000ad0 <HAL_MspInit+0x4c>)
 8000a90:	6c5b      	ldr	r3, [r3, #68]	; 0x44
 8000a92:	4a0f      	ldr	r2, [pc, #60]	; (8000ad0 <HAL_MspInit+0x4c>)
 8000a94:	f443 4380 	orr.w	r3, r3, #16384	; 0x4000
 8000a98:	6453      	str	r3, [r2, #68]	; 0x44
 8000a9a:	4b0d      	ldr	r3, [pc, #52]	; (8000ad0 <HAL_MspInit+0x4c>)
 8000a9c:	6c5b      	ldr	r3, [r3, #68]	; 0x44
 8000a9e:	f403 4380 	and.w	r3, r3, #16384	; 0x4000
 8000aa2:	607b      	str	r3, [r7, #4]
 8000aa4:	687b      	ldr	r3, [r7, #4]
  __HAL_RCC_PWR_CLK_ENABLE();
 8000aa6:	2300      	movs	r3, #0
 8000aa8:	603b      	str	r3, [r7, #0]
 8000aaa:	4b09      	ldr	r3, [pc, #36]	; (8000ad0 <HAL_MspInit+0x4c>)
 8000aac:	6c1b      	ldr	r3, [r3, #64]	; 0x40
 8000aae:	4a08      	ldr	r2, [pc, #32]	; (8000ad0 <HAL_MspInit+0x4c>)
 8000ab0:	f043 5380 	orr.w	r3, r3, #268435456	; 0x10000000
 8000ab4:	6413      	str	r3, [r2, #64]	; 0x40
 8000ab6:	4b06      	ldr	r3, [pc, #24]	; (8000ad0 <HAL_MspInit+0x4c>)
 8000ab8:	6c1b      	ldr	r3, [r3, #64]	; 0x40
 8000aba:	f003 5380 	and.w	r3, r3, #268435456	; 0x10000000
 8000abe:	603b      	str	r3, [r7, #0]
 8000ac0:	683b      	ldr	r3, [r7, #0]
  /* System interrupt init*/

  /* USER CODE BEGIN MspInit 1 */

  /* USER CODE END MspInit 1 */
}
 8000ac2:	bf00      	nop
 8000ac4:	370c      	adds	r7, #12
 8000ac6:	46bd      	mov	sp, r7
 8000ac8:	f85d 7b04 	ldr.w	r7, [sp], #4
 8000acc:	4770      	bx	lr
 8000ace:	bf00      	nop
 8000ad0:	40023800 	.word	0x40023800

08000ad4 <HAL_UART_MspInit>:
* This function configures the hardware resources used in this example
* @param huart: UART handle pointer
* @retval None
*/
void HAL_UART_MspInit(UART_HandleTypeDef* huart)
{
 8000ad4:	b580      	push	{r7, lr}
 8000ad6:	b08c      	sub	sp, #48	; 0x30
 8000ad8:	af00      	add	r7, sp, #0
 8000ada:	6078      	str	r0, [r7, #4]
  GPIO_InitTypeDef GPIO_InitStruct = {0};
 8000adc:	f107 031c 	add.w	r3, r7, #28
 8000ae0:	2200      	movs	r2, #0
 8000ae2:	601a      	str	r2, [r3, #0]
 8000ae4:	605a      	str	r2, [r3, #4]
 8000ae6:	609a      	str	r2, [r3, #8]
 8000ae8:	60da      	str	r2, [r3, #12]
 8000aea:	611a      	str	r2, [r3, #16]
  if(huart->Instance==USART2)
 8000aec:	687b      	ldr	r3, [r7, #4]
 8000aee:	681b      	ldr	r3, [r3, #0]
 8000af0:	4a32      	ldr	r2, [pc, #200]	; (8000bbc <HAL_UART_MspInit+0xe8>)
 8000af2:	4293      	cmp	r3, r2
 8000af4:	d12c      	bne.n	8000b50 <HAL_UART_MspInit+0x7c>
  {
  /* USER CODE BEGIN USART2_MspInit 0 */

  /* USER CODE END USART2_MspInit 0 */
    /* Peripheral clock enable */
    __HAL_RCC_USART2_CLK_ENABLE();
 8000af6:	2300      	movs	r3, #0
 8000af8:	61bb      	str	r3, [r7, #24]
 8000afa:	4b31      	ldr	r3, [pc, #196]	; (8000bc0 <HAL_UART_MspInit+0xec>)
 8000afc:	6c1b      	ldr	r3, [r3, #64]	; 0x40
 8000afe:	4a30      	ldr	r2, [pc, #192]	; (8000bc0 <HAL_UART_MspInit+0xec>)
 8000b00:	f443 3300 	orr.w	r3, r3, #131072	; 0x20000
 8000b04:	6413      	str	r3, [r2, #64]	; 0x40
 8000b06:	4b2e      	ldr	r3, [pc, #184]	; (8000bc0 <HAL_UART_MspInit+0xec>)
 8000b08:	6c1b      	ldr	r3, [r3, #64]	; 0x40
 8000b0a:	f403 3300 	and.w	r3, r3, #131072	; 0x20000
 8000b0e:	61bb      	str	r3, [r7, #24]
 8000b10:	69bb      	ldr	r3, [r7, #24]

    __HAL_RCC_GPIOA_CLK_ENABLE();
 8000b12:	2300      	movs	r3, #0
 8000b14:	617b      	str	r3, [r7, #20]
 8000b16:	4b2a      	ldr	r3, [pc, #168]	; (8000bc0 <HAL_UART_MspInit+0xec>)
 8000b18:	6b1b      	ldr	r3, [r3, #48]	; 0x30
 8000b1a:	4a29      	ldr	r2, [pc, #164]	; (8000bc0 <HAL_UART_MspInit+0xec>)
 8000b1c:	f043 0301 	orr.w	r3, r3, #1
 8000b20:	6313      	str	r3, [r2, #48]	; 0x30
 8000b22:	4b27      	ldr	r3, [pc, #156]	; (8000bc0 <HAL_UART_MspInit+0xec>)
 8000b24:	6b1b      	ldr	r3, [r3, #48]	; 0x30
 8000b26:	f003 0301 	and.w	r3, r3, #1
 8000b2a:	617b      	str	r3, [r7, #20]
 8000b2c:	697b      	ldr	r3, [r7, #20]
    /**USART2 GPIO Configuration
    PA2     ------> USART2_TX
    PA3     ------> USART2_RX
    */
    GPIO_InitStruct.Pin = GPIO_PIN_2|GPIO_PIN_3;
 8000b2e:	230c      	movs	r3, #12
 8000b30:	61fb      	str	r3, [r7, #28]
    GPIO_InitStruct.Mode = GPIO_MODE_AF_PP;
 8000b32:	2302      	movs	r3, #2
 8000b34:	623b      	str	r3, [r7, #32]
    GPIO_InitStruct.Pull = GPIO_NOPULL;
 8000b36:	2300      	movs	r3, #0
 8000b38:	627b      	str	r3, [r7, #36]	; 0x24
    GPIO_InitStruct.Speed = GPIO_SPEED_FREQ_VERY_HIGH;
 8000b3a:	2303      	movs	r3, #3
 8000b3c:	62bb      	str	r3, [r7, #40]	; 0x28
    GPIO_InitStruct.Alternate = GPIO_AF7_USART2;
 8000b3e:	2307      	movs	r3, #7
 8000b40:	62fb      	str	r3, [r7, #44]	; 0x2c
    HAL_GPIO_Init(GPIOA, &GPIO_InitStruct);
 8000b42:	f107 031c 	add.w	r3, r7, #28
 8000b46:	4619      	mov	r1, r3
 8000b48:	481e      	ldr	r0, [pc, #120]	; (8000bc4 <HAL_UART_MspInit+0xf0>)
 8000b4a:	f000 fae1 	bl	8001110 <HAL_GPIO_Init>
  /* USER CODE BEGIN USART3_MspInit 1 */

  /* USER CODE END USART3_MspInit 1 */
  }

}
 8000b4e:	e031      	b.n	8000bb4 <HAL_UART_MspInit+0xe0>
  else if(huart->Instance==USART3)
 8000b50:	687b      	ldr	r3, [r7, #4]
 8000b52:	681b      	ldr	r3, [r3, #0]
 8000b54:	4a1c      	ldr	r2, [pc, #112]	; (8000bc8 <HAL_UART_MspInit+0xf4>)
 8000b56:	4293      	cmp	r3, r2
 8000b58:	d12c      	bne.n	8000bb4 <HAL_UART_MspInit+0xe0>
    __HAL_RCC_USART3_CLK_ENABLE();
 8000b5a:	2300      	movs	r3, #0
 8000b5c:	613b      	str	r3, [r7, #16]
 8000b5e:	4b18      	ldr	r3, [pc, #96]	; (8000bc0 <HAL_UART_MspInit+0xec>)
 8000b60:	6c1b      	ldr	r3, [r3, #64]	; 0x40
 8000b62:	4a17      	ldr	r2, [pc, #92]	; (8000bc0 <HAL_UART_MspInit+0xec>)
 8000b64:	f443 2380 	orr.w	r3, r3, #262144	; 0x40000
 8000b68:	6413      	str	r3, [r2, #64]	; 0x40
 8000b6a:	4b15      	ldr	r3, [pc, #84]	; (8000bc0 <HAL_UART_MspInit+0xec>)
 8000b6c:	6c1b      	ldr	r3, [r3, #64]	; 0x40
 8000b6e:	f403 2380 	and.w	r3, r3, #262144	; 0x40000
 8000b72:	613b      	str	r3, [r7, #16]
 8000b74:	693b      	ldr	r3, [r7, #16]
    __HAL_RCC_GPIOD_CLK_ENABLE();
 8000b76:	2300      	movs	r3, #0
 8000b78:	60fb      	str	r3, [r7, #12]
 8000b7a:	4b11      	ldr	r3, [pc, #68]	; (8000bc0 <HAL_UART_MspInit+0xec>)
 8000b7c:	6b1b      	ldr	r3, [r3, #48]	; 0x30
 8000b7e:	4a10      	ldr	r2, [pc, #64]	; (8000bc0 <HAL_UART_MspInit+0xec>)
 8000b80:	f043 0308 	orr.w	r3, r3, #8
 8000b84:	6313      	str	r3, [r2, #48]	; 0x30
 8000b86:	4b0e      	ldr	r3, [pc, #56]	; (8000bc0 <HAL_UART_MspInit+0xec>)
 8000b88:	6b1b      	ldr	r3, [r3, #48]	; 0x30
 8000b8a:	f003 0308 	and.w	r3, r3, #8
 8000b8e:	60fb      	str	r3, [r7, #12]
 8000b90:	68fb      	ldr	r3, [r7, #12]
    GPIO_InitStruct.Pin = STLK_RX_Pin|STLK_TX_Pin;
 8000b92:	f44f 7340 	mov.w	r3, #768	; 0x300
 8000b96:	61fb      	str	r3, [r7, #28]
    GPIO_InitStruct.Mode = GPIO_MODE_AF_PP;
 8000b98:	2302      	movs	r3, #2
 8000b9a:	623b      	str	r3, [r7, #32]
    GPIO_InitStruct.Pull = GPIO_NOPULL;
 8000b9c:	2300      	movs	r3, #0
 8000b9e:	627b      	str	r3, [r7, #36]	; 0x24
    GPIO_InitStruct.Speed = GPIO_SPEED_FREQ_VERY_HIGH;
 8000ba0:	2303      	movs	r3, #3
 8000ba2:	62bb      	str	r3, [r7, #40]	; 0x28
    GPIO_InitStruct.Alternate = GPIO_AF7_USART3;
 8000ba4:	2307      	movs	r3, #7
 8000ba6:	62fb      	str	r3, [r7, #44]	; 0x2c
    HAL_GPIO_Init(GPIOD, &GPIO_InitStruct);
 8000ba8:	f107 031c 	add.w	r3, r7, #28
 8000bac:	4619      	mov	r1, r3
 8000bae:	4807      	ldr	r0, [pc, #28]	; (8000bcc <HAL_UART_MspInit+0xf8>)
 8000bb0:	f000 faae 	bl	8001110 <HAL_GPIO_Init>
}
 8000bb4:	bf00      	nop
 8000bb6:	3730      	adds	r7, #48	; 0x30
 8000bb8:	46bd      	mov	sp, r7
 8000bba:	bd80      	pop	{r7, pc}
 8000bbc:	40004400 	.word	0x40004400
 8000bc0:	40023800 	.word	0x40023800
 8000bc4:	40020000 	.word	0x40020000
 8000bc8:	40004800 	.word	0x40004800
 8000bcc:	40020c00 	.word	0x40020c00

08000bd0 <NMI_Handler>:
/******************************************************************************/
/**
  * @brief This function handles Non maskable interrupt.
  */
void NMI_Handler(void)
{
 8000bd0:	b480      	push	{r7}
 8000bd2:	af00      	add	r7, sp, #0
  /* USER CODE BEGIN NonMaskableInt_IRQn 0 */

  /* USER CODE END NonMaskableInt_IRQn 0 */
  /* USER CODE BEGIN NonMaskableInt_IRQn 1 */
  while (1)
 8000bd4:	e7fe      	b.n	8000bd4 <NMI_Handler+0x4>

08000bd6 <HardFault_Handler>:

/**
  * @brief This function handles Hard fault interrupt.
  */
void HardFault_Handler(void)
{
 8000bd6:	b480      	push	{r7}
 8000bd8:	af00      	add	r7, sp, #0
  /* USER CODE BEGIN HardFault_IRQn 0 */

  /* USER CODE END HardFault_IRQn 0 */
  while (1)
 8000bda:	e7fe      	b.n	8000bda <HardFault_Handler+0x4>

08000bdc <MemManage_Handler>:

/**
  * @brief This function handles Memory management fault.
  */
void MemManage_Handler(void)
{
 8000bdc:	b480      	push	{r7}
 8000bde:	af00      	add	r7, sp, #0
  /* USER CODE BEGIN MemoryManagement_IRQn 0 */

  /* USER CODE END MemoryManagement_IRQn 0 */
  while (1)
 8000be0:	e7fe      	b.n	8000be0 <MemManage_Handler+0x4>

08000be2 <BusFault_Handler>:

/**
  * @brief This function handles Pre-fetch fault, memory access fault.
  */
void BusFault_Handler(void)
{
 8000be2:	b480      	push	{r7}
 8000be4:	af00      	add	r7, sp, #0
  /* USER CODE BEGIN BusFault_IRQn 0 */

  /* USER CODE END BusFault_IRQn 0 */
  while (1)
 8000be6:	e7fe      	b.n	8000be6 <BusFault_Handler+0x4>

08000be8 <UsageFault_Handler>:

/**
  * @brief This function handles Undefined instruction or illegal state.
  */
void UsageFault_Handler(void)
{
 8000be8:	b480      	push	{r7}
 8000bea:	af00      	add	r7, sp, #0
  /* USER CODE BEGIN UsageFault_IRQn 0 */

  /* USER CODE END UsageFault_IRQn 0 */
  while (1)
 8000bec:	e7fe      	b.n	8000bec <UsageFault_Handler+0x4>

08000bee <SVC_Handler>:

/**
  * @brief This function handles System service call via SWI instruction.
  */
void SVC_Handler(void)
{
 8000bee:	b480      	push	{r7}
 8000bf0:	af00      	add	r7, sp, #0

  /* USER CODE END SVCall_IRQn 0 */
  /* USER CODE BEGIN SVCall_IRQn 1 */

  /* USER CODE END SVCall_IRQn 1 */
}
 8000bf2:	bf00      	nop
 8000bf4:	46bd      	mov	sp, r7
 8000bf6:	f85d 7b04 	ldr.w	r7, [sp], #4
 8000bfa:	4770      	bx	lr

08000bfc <DebugMon_Handler>:

/**
  * @brief This function handles Debug monitor.
  */
void DebugMon_Handler(void)
{
 8000bfc:	b480      	push	{r7}
 8000bfe:	af00      	add	r7, sp, #0

  /* USER CODE END DebugMonitor_IRQn 0 */
  /* USER CODE BEGIN DebugMonitor_IRQn 1 */

  /* USER CODE END DebugMonitor_IRQn 1 */
}
 8000c00:	bf00      	nop
 8000c02:	46bd      	mov	sp, r7
 8000c04:	f85d 7b04 	ldr.w	r7, [sp], #4
 8000c08:	4770      	bx	lr

08000c0a <PendSV_Handler>:

/**
  * @brief This function handles Pendable request for system service.
  */
void PendSV_Handler(void)
{
 8000c0a:	b480      	push	{r7}
 8000c0c:	af00      	add	r7, sp, #0

  /* USER CODE END PendSV_IRQn 0 */
  /* USER CODE BEGIN PendSV_IRQn 1 */

  /* USER CODE END PendSV_IRQn 1 */
}
 8000c0e:	bf00      	nop
 8000c10:	46bd      	mov	sp, r7
 8000c12:	f85d 7b04 	ldr.w	r7, [sp], #4
 8000c16:	4770      	bx	lr

08000c18 <SysTick_Handler>:

/**
  * @brief This function handles System tick timer.
  */
void SysTick_Handler(void)
{
 8000c18:	b580      	push	{r7, lr}
 8000c1a:	af00      	add	r7, sp, #0
  /* USER CODE BEGIN SysTick_IRQn 0 */

  /* USER CODE END SysTick_IRQn 0 */
  HAL_IncTick();
 8000c1c:	f000 f922 	bl	8000e64 <HAL_IncTick>
  /* USER CODE BEGIN SysTick_IRQn 1 */

  /* USER CODE END SysTick_IRQn 1 */
}
 8000c20:	bf00      	nop
 8000c22:	bd80      	pop	{r7, pc}

08000c24 <OTG_FS_IRQHandler>:

/**
  * @brief This function handles USB On The Go FS global interrupt.
  */
void OTG_FS_IRQHandler(void)
{
 8000c24:	b580      	push	{r7, lr}
 8000c26:	af00      	add	r7, sp, #0
  /* USER CODE BEGIN OTG_FS_IRQn 0 */

  /* USER CODE END OTG_FS_IRQn 0 */
  HAL_HCD_IRQHandler(&hhcd_USB_OTG_FS);
 8000c28:	4802      	ldr	r0, [pc, #8]	; (8000c34 <OTG_FS_IRQHandler+0x10>)
 8000c2a:	f000 fe89 	bl	8001940 <HAL_HCD_IRQHandler>
  /* USER CODE BEGIN OTG_FS_IRQn 1 */

  /* USER CODE END OTG_FS_IRQn 1 */
}
 8000c2e:	bf00      	nop
 8000c30:	bd80      	pop	{r7, pc}
 8000c32:	bf00      	nop
 8000c34:	200005c4 	.word	0x200005c4

08000c38 <_read>:
	_kill(status, -1);
	while (1) {}		/* Make sure we hang here */
}

__attribute__((weak)) int _read(int file, char *ptr, int len)
{
 8000c38:	b580      	push	{r7, lr}
 8000c3a:	b086      	sub	sp, #24
 8000c3c:	af00      	add	r7, sp, #0
 8000c3e:	60f8      	str	r0, [r7, #12]
 8000c40:	60b9      	str	r1, [r7, #8]
 8000c42:	607a      	str	r2, [r7, #4]
	int DataIdx;

	for (DataIdx = 0; DataIdx < len; DataIdx++)
 8000c44:	2300      	movs	r3, #0
 8000c46:	617b      	str	r3, [r7, #20]
 8000c48:	e00a      	b.n	8000c60 <_read+0x28>
	{
		*ptr++ = __io_getchar();
 8000c4a:	f3af 8000 	nop.w
 8000c4e:	4601      	mov	r1, r0
 8000c50:	68bb      	ldr	r3, [r7, #8]
 8000c52:	1c5a      	adds	r2, r3, #1
 8000c54:	60ba      	str	r2, [r7, #8]
 8000c56:	b2ca      	uxtb	r2, r1
 8000c58:	701a      	strb	r2, [r3, #0]
	for (DataIdx = 0; DataIdx < len; DataIdx++)
 8000c5a:	697b      	ldr	r3, [r7, #20]
 8000c5c:	3301      	adds	r3, #1
 8000c5e:	617b      	str	r3, [r7, #20]
 8000c60:	697a      	ldr	r2, [r7, #20]
 8000c62:	687b      	ldr	r3, [r7, #4]
 8000c64:	429a      	cmp	r2, r3
 8000c66:	dbf0      	blt.n	8000c4a <_read+0x12>
	}

return len;
 8000c68:	687b      	ldr	r3, [r7, #4]
}
 8000c6a:	4618      	mov	r0, r3
 8000c6c:	3718      	adds	r7, #24
 8000c6e:	46bd      	mov	sp, r7
 8000c70:	bd80      	pop	{r7, pc}

08000c72 <_close>:
	}
	return len;
}

int _close(int file)
{
 8000c72:	b480      	push	{r7}
 8000c74:	b083      	sub	sp, #12
 8000c76:	af00      	add	r7, sp, #0
 8000c78:	6078      	str	r0, [r7, #4]
	return -1;
 8000c7a:	f04f 33ff 	mov.w	r3, #4294967295
}
 8000c7e:	4618      	mov	r0, r3
 8000c80:	370c      	adds	r7, #12
 8000c82:	46bd      	mov	sp, r7
 8000c84:	f85d 7b04 	ldr.w	r7, [sp], #4
 8000c88:	4770      	bx	lr

08000c8a <_fstat>:


int _fstat(int file, struct stat *st)
{
 8000c8a:	b480      	push	{r7}
 8000c8c:	b083      	sub	sp, #12
 8000c8e:	af00      	add	r7, sp, #0
 8000c90:	6078      	str	r0, [r7, #4]
 8000c92:	6039      	str	r1, [r7, #0]
	st->st_mode = S_IFCHR;
 8000c94:	683b      	ldr	r3, [r7, #0]
 8000c96:	f44f 5200 	mov.w	r2, #8192	; 0x2000
 8000c9a:	605a      	str	r2, [r3, #4]
	return 0;
 8000c9c:	2300      	movs	r3, #0
}
 8000c9e:	4618      	mov	r0, r3
 8000ca0:	370c      	adds	r7, #12
 8000ca2:	46bd      	mov	sp, r7
 8000ca4:	f85d 7b04 	ldr.w	r7, [sp], #4
 8000ca8:	4770      	bx	lr

08000caa <_isatty>:

int _isatty(int file)
{
 8000caa:	b480      	push	{r7}
 8000cac:	b083      	sub	sp, #12
 8000cae:	af00      	add	r7, sp, #0
 8000cb0:	6078      	str	r0, [r7, #4]
	return 1;
 8000cb2:	2301      	movs	r3, #1
}
 8000cb4:	4618      	mov	r0, r3
 8000cb6:	370c      	adds	r7, #12
 8000cb8:	46bd      	mov	sp, r7
 8000cba:	f85d 7b04 	ldr.w	r7, [sp], #4
 8000cbe:	4770      	bx	lr

08000cc0 <_lseek>:

int _lseek(int file, int ptr, int dir)
{
 8000cc0:	b480      	push	{r7}
 8000cc2:	b085      	sub	sp, #20
 8000cc4:	af00      	add	r7, sp, #0
 8000cc6:	60f8      	str	r0, [r7, #12]
 8000cc8:	60b9      	str	r1, [r7, #8]
 8000cca:	607a      	str	r2, [r7, #4]
	return 0;
 8000ccc:	2300      	movs	r3, #0
}
 8000cce:	4618      	mov	r0, r3
 8000cd0:	3714      	adds	r7, #20
 8000cd2:	46bd      	mov	sp, r7
 8000cd4:	f85d 7b04 	ldr.w	r7, [sp], #4
 8000cd8:	4770      	bx	lr
	...

08000cdc <_sbrk>:
 *
 * @param incr Memory size
 * @return Pointer to allocated memory
 */
void *_sbrk(ptrdiff_t incr)
{
 8000cdc:	b580      	push	{r7, lr}
 8000cde:	b086      	sub	sp, #24
 8000ce0:	af00      	add	r7, sp, #0
 8000ce2:	6078      	str	r0, [r7, #4]
  extern uint8_t _end; /* Symbol defined in the linker script */
  extern uint8_t _estack; /* Symbol defined in the linker script */
  extern uint32_t _Min_Stack_Size; /* Symbol defined in the linker script */
  const uint32_t stack_limit = (uint32_t)&_estack - (uint32_t)&_Min_Stack_Size;
 8000ce4:	4a14      	ldr	r2, [pc, #80]	; (8000d38 <_sbrk+0x5c>)
 8000ce6:	4b15      	ldr	r3, [pc, #84]	; (8000d3c <_sbrk+0x60>)
 8000ce8:	1ad3      	subs	r3, r2, r3
 8000cea:	617b      	str	r3, [r7, #20]
  const uint8_t *max_heap = (uint8_t *)stack_limit;
 8000cec:	697b      	ldr	r3, [r7, #20]
 8000cee:	613b      	str	r3, [r7, #16]
  uint8_t *prev_heap_end;

  /* Initialize heap end at first call */
  if (NULL == __sbrk_heap_end)
 8000cf0:	4b13      	ldr	r3, [pc, #76]	; (8000d40 <_sbrk+0x64>)
 8000cf2:	681b      	ldr	r3, [r3, #0]
 8000cf4:	2b00      	cmp	r3, #0
 8000cf6:	d102      	bne.n	8000cfe <_sbrk+0x22>
  {
    __sbrk_heap_end = &_end;
 8000cf8:	4b11      	ldr	r3, [pc, #68]	; (8000d40 <_sbrk+0x64>)
 8000cfa:	4a12      	ldr	r2, [pc, #72]	; (8000d44 <_sbrk+0x68>)
 8000cfc:	601a      	str	r2, [r3, #0]
  }

  /* Protect heap from growing into the reserved MSP stack */
  if (__sbrk_heap_end + incr > max_heap)
 8000cfe:	4b10      	ldr	r3, [pc, #64]	; (8000d40 <_sbrk+0x64>)
 8000d00:	681a      	ldr	r2, [r3, #0]
 8000d02:	687b      	ldr	r3, [r7, #4]
 8000d04:	4413      	add	r3, r2
 8000d06:	693a      	ldr	r2, [r7, #16]
 8000d08:	429a      	cmp	r2, r3
 8000d0a:	d207      	bcs.n	8000d1c <_sbrk+0x40>
  {
    errno = ENOMEM;
 8000d0c:	f007 fb06 	bl	800831c <__errno>
 8000d10:	4603      	mov	r3, r0
 8000d12:	220c      	movs	r2, #12
 8000d14:	601a      	str	r2, [r3, #0]
    return (void *)-1;
 8000d16:	f04f 33ff 	mov.w	r3, #4294967295
 8000d1a:	e009      	b.n	8000d30 <_sbrk+0x54>
  }

  prev_heap_end = __sbrk_heap_end;
 8000d1c:	4b08      	ldr	r3, [pc, #32]	; (8000d40 <_sbrk+0x64>)
 8000d1e:	681b      	ldr	r3, [r3, #0]
 8000d20:	60fb      	str	r3, [r7, #12]
  __sbrk_heap_end += incr;
 8000d22:	4b07      	ldr	r3, [pc, #28]	; (8000d40 <_sbrk+0x64>)
 8000d24:	681a      	ldr	r2, [r3, #0]
 8000d26:	687b      	ldr	r3, [r7, #4]
 8000d28:	4413      	add	r3, r2
 8000d2a:	4a05      	ldr	r2, [pc, #20]	; (8000d40 <_sbrk+0x64>)
 8000d2c:	6013      	str	r3, [r2, #0]

  return (void *)prev_heap_end;
 8000d2e:	68fb      	ldr	r3, [r7, #12]
}
 8000d30:	4618      	mov	r0, r3
 8000d32:	3718      	adds	r7, #24
 8000d34:	46bd      	mov	sp, r7
 8000d36:	bd80      	pop	{r7, pc}
 8000d38:	20020000 	.word	0x20020000
 8000d3c:	00002000 	.word	0x00002000
 8000d40:	200000b0 	.word	0x200000b0
 8000d44:	200008d8 	.word	0x200008d8

08000d48 <SystemInit>:
  *         configuration.
  * @param  None
  * @retval None
  */
void SystemInit(void)
{
 8000d48:	b480      	push	{r7}
 8000d4a:	af00      	add	r7, sp, #0
  /* FPU settings ------------------------------------------------------------*/
  #if (__FPU_PRESENT == 1) && (__FPU_USED == 1)
    SCB->CPACR |= ((3UL << 10*2)|(3UL << 11*2));  /* set CP10 and CP11 Full Access */
 8000d4c:	4b06      	ldr	r3, [pc, #24]	; (8000d68 <SystemInit+0x20>)
 8000d4e:	f8d3 3088 	ldr.w	r3, [r3, #136]	; 0x88
 8000d52:	4a05      	ldr	r2, [pc, #20]	; (8000d68 <SystemInit+0x20>)
 8000d54:	f443 0370 	orr.w	r3, r3, #15728640	; 0xf00000
 8000d58:	f8c2 3088 	str.w	r3, [r2, #136]	; 0x88

  /* Configure the Vector Table location -------------------------------------*/
#if defined(USER_VECT_TAB_ADDRESS)
  SCB->VTOR = VECT_TAB_BASE_ADDRESS | VECT_TAB_OFFSET; /* Vector Table Relocation in Internal SRAM */
#endif /* USER_VECT_TAB_ADDRESS */
}
 8000d5c:	bf00      	nop
 8000d5e:	46bd      	mov	sp, r7
 8000d60:	f85d 7b04 	ldr.w	r7, [sp], #4
 8000d64:	4770      	bx	lr
 8000d66:	bf00      	nop
 8000d68:	e000ed00 	.word	0xe000ed00

08000d6c <Reset_Handler>:

    .section  .text.Reset_Handler
  .weak  Reset_Handler
  .type  Reset_Handler, %function
Reset_Handler:  
  ldr   sp, =_estack      /* set stack pointer */
 8000d6c:	f8df d034 	ldr.w	sp, [pc, #52]	; 8000da4 <LoopFillZerobss+0x12>

/* Copy the data segment initializers from flash to SRAM */  
  ldr r0, =_sdata
 8000d70:	480d      	ldr	r0, [pc, #52]	; (8000da8 <LoopFillZerobss+0x16>)
  ldr r1, =_edata
 8000d72:	490e      	ldr	r1, [pc, #56]	; (8000dac <LoopFillZerobss+0x1a>)
  ldr r2, =_sidata
 8000d74:	4a0e      	ldr	r2, [pc, #56]	; (8000db0 <LoopFillZerobss+0x1e>)
  movs r3, #0
 8000d76:	2300      	movs	r3, #0
  b LoopCopyDataInit
 8000d78:	e002      	b.n	8000d80 <LoopCopyDataInit>

08000d7a <CopyDataInit>:

CopyDataInit:
  ldr r4, [r2, r3]
 8000d7a:	58d4      	ldr	r4, [r2, r3]
  str r4, [r0, r3]
 8000d7c:	50c4      	str	r4, [r0, r3]
  adds r3, r3, #4
 8000d7e:	3304      	adds	r3, #4

08000d80 <LoopCopyDataInit>:

LoopCopyDataInit:
  adds r4, r0, r3
 8000d80:	18c4      	adds	r4, r0, r3
  cmp r4, r1
 8000d82:	428c      	cmp	r4, r1
  bcc CopyDataInit
 8000d84:	d3f9      	bcc.n	8000d7a <CopyDataInit>
  
/* Zero fill the bss segment. */
  ldr r2, =_sbss
 8000d86:	4a0b      	ldr	r2, [pc, #44]	; (8000db4 <LoopFillZerobss+0x22>)
  ldr r4, =_ebss
 8000d88:	4c0b      	ldr	r4, [pc, #44]	; (8000db8 <LoopFillZerobss+0x26>)
  movs r3, #0
 8000d8a:	2300      	movs	r3, #0
  b LoopFillZerobss
 8000d8c:	e001      	b.n	8000d92 <LoopFillZerobss>

08000d8e <FillZerobss>:

FillZerobss:
  str  r3, [r2]
 8000d8e:	6013      	str	r3, [r2, #0]
  adds r2, r2, #4
 8000d90:	3204      	adds	r2, #4

08000d92 <LoopFillZerobss>:

LoopFillZerobss:
  cmp r2, r4
 8000d92:	42a2      	cmp	r2, r4
  bcc FillZerobss
 8000d94:	d3fb      	bcc.n	8000d8e <FillZerobss>

/* Call the clock system intitialization function.*/
  bl  SystemInit   
 8000d96:	f7ff ffd7 	bl	8000d48 <SystemInit>
/* Call static constructors */
    bl __libc_init_array
 8000d9a:	f007 fac5 	bl	8008328 <__libc_init_array>
/* Call the application's entry point.*/
  bl  main
 8000d9e:	f7ff fc2b 	bl	80005f8 <main>
  bx  lr    
 8000da2:	4770      	bx	lr
  ldr   sp, =_estack      /* set stack pointer */
 8000da4:	20020000 	.word	0x20020000
  ldr r0, =_sdata
 8000da8:	20000000 	.word	0x20000000
  ldr r1, =_edata
 8000dac:	20000090 	.word	0x20000090
  ldr r2, =_sidata
 8000db0:	08009ef0 	.word	0x08009ef0
  ldr r2, =_sbss
 8000db4:	20000090 	.word	0x20000090
  ldr r4, =_ebss
 8000db8:	200008d8 	.word	0x200008d8

08000dbc <ADC_IRQHandler>:
 * @retval None       
*/
    .section  .text.Default_Handler,"ax",%progbits
Default_Handler:
Infinite_Loop:
  b  Infinite_Loop
 8000dbc:	e7fe      	b.n	8000dbc <ADC_IRQHandler>
	...

08000dc0 <HAL_Init>:
  *         need to ensure that the SysTick time base is always set to 1 millisecond
  *         to have correct HAL operation.
  * @retval HAL status
  */
HAL_StatusTypeDef HAL_Init(void)
{
 8000dc0:	b580      	push	{r7, lr}
 8000dc2:	af00      	add	r7, sp, #0
  /* Configure Flash prefetch, Instruction cache, Data cache */ 
#if (INSTRUCTION_CACHE_ENABLE != 0U)
  __HAL_FLASH_INSTRUCTION_CACHE_ENABLE();
 8000dc4:	4b0e      	ldr	r3, [pc, #56]	; (8000e00 <HAL_Init+0x40>)
 8000dc6:	681b      	ldr	r3, [r3, #0]
 8000dc8:	4a0d      	ldr	r2, [pc, #52]	; (8000e00 <HAL_Init+0x40>)
 8000dca:	f443 7300 	orr.w	r3, r3, #512	; 0x200
 8000dce:	6013      	str	r3, [r2, #0]
#endif /* INSTRUCTION_CACHE_ENABLE */

#if (DATA_CACHE_ENABLE != 0U)
  __HAL_FLASH_DATA_CACHE_ENABLE();
 8000dd0:	4b0b      	ldr	r3, [pc, #44]	; (8000e00 <HAL_Init+0x40>)
 8000dd2:	681b      	ldr	r3, [r3, #0]
 8000dd4:	4a0a      	ldr	r2, [pc, #40]	; (8000e00 <HAL_Init+0x40>)
 8000dd6:	f443 6380 	orr.w	r3, r3, #1024	; 0x400
 8000dda:	6013      	str	r3, [r2, #0]
#endif /* DATA_CACHE_ENABLE */

#if (PREFETCH_ENABLE != 0U)
  __HAL_FLASH_PREFETCH_BUFFER_ENABLE();
 8000ddc:	4b08      	ldr	r3, [pc, #32]	; (8000e00 <HAL_Init+0x40>)
 8000dde:	681b      	ldr	r3, [r3, #0]
 8000de0:	4a07      	ldr	r2, [pc, #28]	; (8000e00 <HAL_Init+0x40>)
 8000de2:	f443 7380 	orr.w	r3, r3, #256	; 0x100
 8000de6:	6013      	str	r3, [r2, #0]
#endif /* PREFETCH_ENABLE */

  /* Set Interrupt Group Priority */
  HAL_NVIC_SetPriorityGrouping(NVIC_PRIORITYGROUP_4);
 8000de8:	2003      	movs	r0, #3
 8000dea:	f000 f94f 	bl	800108c <HAL_NVIC_SetPriorityGrouping>

  /* Use systick as time base source and configure 1ms tick (default clock after Reset is HSI) */
  HAL_InitTick(TICK_INT_PRIORITY);
 8000dee:	2000      	movs	r0, #0
 8000df0:	f000 f808 	bl	8000e04 <HAL_InitTick>

  /* Init the low level hardware */
  HAL_MspInit();
 8000df4:	f7ff fe46 	bl	8000a84 <HAL_MspInit>

  /* Return function status */
  return HAL_OK;
 8000df8:	2300      	movs	r3, #0
}
 8000dfa:	4618      	mov	r0, r3
 8000dfc:	bd80      	pop	{r7, pc}
 8000dfe:	bf00      	nop
 8000e00:	40023c00 	.word	0x40023c00

08000e04 <HAL_InitTick>:
  *       implementation  in user file.
  * @param TickPriority Tick interrupt priority.
  * @retval HAL status
  */
__weak HAL_StatusTypeDef HAL_InitTick(uint32_t TickPriority)
{
 8000e04:	b580      	push	{r7, lr}
 8000e06:	b082      	sub	sp, #8
 8000e08:	af00      	add	r7, sp, #0
 8000e0a:	6078      	str	r0, [r7, #4]
  /* Configure the SysTick to have interrupt in 1ms time basis*/
  if (HAL_SYSTICK_Config(SystemCoreClock / (1000U / uwTickFreq)) > 0U)
 8000e0c:	4b12      	ldr	r3, [pc, #72]	; (8000e58 <HAL_InitTick+0x54>)
 8000e0e:	681a      	ldr	r2, [r3, #0]
 8000e10:	4b12      	ldr	r3, [pc, #72]	; (8000e5c <HAL_InitTick+0x58>)
 8000e12:	781b      	ldrb	r3, [r3, #0]
 8000e14:	4619      	mov	r1, r3
 8000e16:	f44f 737a 	mov.w	r3, #1000	; 0x3e8
 8000e1a:	fbb3 f3f1 	udiv	r3, r3, r1
 8000e1e:	fbb2 f3f3 	udiv	r3, r2, r3
 8000e22:	4618      	mov	r0, r3
 8000e24:	f000 f967 	bl	80010f6 <HAL_SYSTICK_Config>
 8000e28:	4603      	mov	r3, r0
 8000e2a:	2b00      	cmp	r3, #0
 8000e2c:	d001      	beq.n	8000e32 <HAL_InitTick+0x2e>
  {
    return HAL_ERROR;
 8000e2e:	2301      	movs	r3, #1
 8000e30:	e00e      	b.n	8000e50 <HAL_InitTick+0x4c>
  }

  /* Configure the SysTick IRQ priority */
  if (TickPriority < (1UL << __NVIC_PRIO_BITS))
 8000e32:	687b      	ldr	r3, [r7, #4]
 8000e34:	2b0f      	cmp	r3, #15
 8000e36:	d80a      	bhi.n	8000e4e <HAL_InitTick+0x4a>
  {
    HAL_NVIC_SetPriority(SysTick_IRQn, TickPriority, 0U);
 8000e38:	2200      	movs	r2, #0
 8000e3a:	6879      	ldr	r1, [r7, #4]
 8000e3c:	f04f 30ff 	mov.w	r0, #4294967295
 8000e40:	f000 f92f 	bl	80010a2 <HAL_NVIC_SetPriority>
    uwTickPrio = TickPriority;
 8000e44:	4a06      	ldr	r2, [pc, #24]	; (8000e60 <HAL_InitTick+0x5c>)
 8000e46:	687b      	ldr	r3, [r7, #4]
 8000e48:	6013      	str	r3, [r2, #0]
  {
    return HAL_ERROR;
  }

  /* Return function status */
  return HAL_OK;
 8000e4a:	2300      	movs	r3, #0
 8000e4c:	e000      	b.n	8000e50 <HAL_InitTick+0x4c>
    return HAL_ERROR;
 8000e4e:	2301      	movs	r3, #1
}
 8000e50:	4618      	mov	r0, r3
 8000e52:	3708      	adds	r7, #8
 8000e54:	46bd      	mov	sp, r7
 8000e56:	bd80      	pop	{r7, pc}
 8000e58:	20000000 	.word	0x20000000
 8000e5c:	20000008 	.word	0x20000008
 8000e60:	20000004 	.word	0x20000004

08000e64 <HAL_IncTick>:
 * @note This function is declared as __weak to be overwritten in case of other 
  *      implementations in user file.
  * @retval None
  */
__weak void HAL_IncTick(void)
{
 8000e64:	b480      	push	{r7}
 8000e66:	af00      	add	r7, sp, #0
  uwTick += uwTickFreq;
 8000e68:	4b06      	ldr	r3, [pc, #24]	; (8000e84 <HAL_IncTick+0x20>)
 8000e6a:	781b      	ldrb	r3, [r3, #0]
 8000e6c:	461a      	mov	r2, r3
 8000e6e:	4b06      	ldr	r3, [pc, #24]	; (8000e88 <HAL_IncTick+0x24>)
 8000e70:	681b      	ldr	r3, [r3, #0]
 8000e72:	4413      	add	r3, r2
 8000e74:	4a04      	ldr	r2, [pc, #16]	; (8000e88 <HAL_IncTick+0x24>)
 8000e76:	6013      	str	r3, [r2, #0]
}
 8000e78:	bf00      	nop
 8000e7a:	46bd      	mov	sp, r7
 8000e7c:	f85d 7b04 	ldr.w	r7, [sp], #4
 8000e80:	4770      	bx	lr
 8000e82:	bf00      	nop
 8000e84:	20000008 	.word	0x20000008
 8000e88:	200001d0 	.word	0x200001d0

08000e8c <HAL_GetTick>:
  * @note This function is declared as __weak to be overwritten in case of other 
  *       implementations in user file.
  * @retval tick value
  */
__weak uint32_t HAL_GetTick(void)
{
 8000e8c:	b480      	push	{r7}
 8000e8e:	af00      	add	r7, sp, #0
  return uwTick;
 8000e90:	4b03      	ldr	r3, [pc, #12]	; (8000ea0 <HAL_GetTick+0x14>)
 8000e92:	681b      	ldr	r3, [r3, #0]
}
 8000e94:	4618      	mov	r0, r3
 8000e96:	46bd      	mov	sp, r7
 8000e98:	f85d 7b04 	ldr.w	r7, [sp], #4
 8000e9c:	4770      	bx	lr
 8000e9e:	bf00      	nop
 8000ea0:	200001d0 	.word	0x200001d0

08000ea4 <HAL_Delay>:
  *       implementations in user file.
  * @param Delay specifies the delay time length, in milliseconds.
  * @retval None
  */
__weak void HAL_Delay(uint32_t Delay)
{
 8000ea4:	b580      	push	{r7, lr}
 8000ea6:	b084      	sub	sp, #16
 8000ea8:	af00      	add	r7, sp, #0
 8000eaa:	6078      	str	r0, [r7, #4]
  uint32_t tickstart = HAL_GetTick();
 8000eac:	f7ff ffee 	bl	8000e8c <HAL_GetTick>
 8000eb0:	60b8      	str	r0, [r7, #8]
  uint32_t wait = Delay;
 8000eb2:	687b      	ldr	r3, [r7, #4]
 8000eb4:	60fb      	str	r3, [r7, #12]

  /* Add a freq to guarantee minimum wait */
  if (wait < HAL_MAX_DELAY)
 8000eb6:	68fb      	ldr	r3, [r7, #12]
 8000eb8:	f1b3 3fff 	cmp.w	r3, #4294967295
 8000ebc:	d005      	beq.n	8000eca <HAL_Delay+0x26>
  {
    wait += (uint32_t)(uwTickFreq);
 8000ebe:	4b0a      	ldr	r3, [pc, #40]	; (8000ee8 <HAL_Delay+0x44>)
 8000ec0:	781b      	ldrb	r3, [r3, #0]
 8000ec2:	461a      	mov	r2, r3
 8000ec4:	68fb      	ldr	r3, [r7, #12]
 8000ec6:	4413      	add	r3, r2
 8000ec8:	60fb      	str	r3, [r7, #12]
  }

  while((HAL_GetTick() - tickstart) < wait)
 8000eca:	bf00      	nop
 8000ecc:	f7ff ffde 	bl	8000e8c <HAL_GetTick>
 8000ed0:	4602      	mov	r2, r0
 8000ed2:	68bb      	ldr	r3, [r7, #8]
 8000ed4:	1ad3      	subs	r3, r2, r3
 8000ed6:	68fa      	ldr	r2, [r7, #12]
 8000ed8:	429a      	cmp	r2, r3
 8000eda:	d8f7      	bhi.n	8000ecc <HAL_Delay+0x28>
  {
  }
}
 8000edc:	bf00      	nop
 8000ede:	bf00      	nop
 8000ee0:	3710      	adds	r7, #16
 8000ee2:	46bd      	mov	sp, r7
 8000ee4:	bd80      	pop	{r7, pc}
 8000ee6:	bf00      	nop
 8000ee8:	20000008 	.word	0x20000008

08000eec <__NVIC_SetPriorityGrouping>:
{
 8000eec:	b480      	push	{r7}
 8000eee:	b085      	sub	sp, #20
 8000ef0:	af00      	add	r7, sp, #0
 8000ef2:	6078      	str	r0, [r7, #4]
  uint32_t PriorityGroupTmp = (PriorityGroup & (uint32_t)0x07UL);             /* only values 0..7 are used          */
 8000ef4:	687b      	ldr	r3, [r7, #4]
 8000ef6:	f003 0307 	and.w	r3, r3, #7
 8000efa:	60fb      	str	r3, [r7, #12]
  reg_value  =  SCB->AIRCR;                                                   /* read old register configuration    */
 8000efc:	4b0c      	ldr	r3, [pc, #48]	; (8000f30 <__NVIC_SetPriorityGrouping+0x44>)
 8000efe:	68db      	ldr	r3, [r3, #12]
 8000f00:	60bb      	str	r3, [r7, #8]
  reg_value &= ~((uint32_t)(SCB_AIRCR_VECTKEY_Msk | SCB_AIRCR_PRIGROUP_Msk)); /* clear bits to change               */
 8000f02:	68ba      	ldr	r2, [r7, #8]
 8000f04:	f64f 03ff 	movw	r3, #63743	; 0xf8ff
 8000f08:	4013      	ands	r3, r2
 8000f0a:	60bb      	str	r3, [r7, #8]
                (PriorityGroupTmp << SCB_AIRCR_PRIGROUP_Pos)  );              /* Insert write key and priority group */
 8000f0c:	68fb      	ldr	r3, [r7, #12]
 8000f0e:	021a      	lsls	r2, r3, #8
                ((uint32_t)0x5FAUL << SCB_AIRCR_VECTKEY_Pos) |
 8000f10:	68bb      	ldr	r3, [r7, #8]
 8000f12:	4313      	orrs	r3, r2
  reg_value  =  (reg_value                                   |
 8000f14:	f043 63bf 	orr.w	r3, r3, #100139008	; 0x5f80000
 8000f18:	f443 3300 	orr.w	r3, r3, #131072	; 0x20000
 8000f1c:	60bb      	str	r3, [r7, #8]
  SCB->AIRCR =  reg_value;
 8000f1e:	4a04      	ldr	r2, [pc, #16]	; (8000f30 <__NVIC_SetPriorityGrouping+0x44>)
 8000f20:	68bb      	ldr	r3, [r7, #8]
 8000f22:	60d3      	str	r3, [r2, #12]
}
 8000f24:	bf00      	nop
 8000f26:	3714      	adds	r7, #20
 8000f28:	46bd      	mov	sp, r7
 8000f2a:	f85d 7b04 	ldr.w	r7, [sp], #4
 8000f2e:	4770      	bx	lr
 8000f30:	e000ed00 	.word	0xe000ed00

08000f34 <__NVIC_GetPriorityGrouping>:
{
 8000f34:	b480      	push	{r7}
 8000f36:	af00      	add	r7, sp, #0
  return ((uint32_t)((SCB->AIRCR & SCB_AIRCR_PRIGROUP_Msk) >> SCB_AIRCR_PRIGROUP_Pos));
 8000f38:	4b04      	ldr	r3, [pc, #16]	; (8000f4c <__NVIC_GetPriorityGrouping+0x18>)
 8000f3a:	68db      	ldr	r3, [r3, #12]
 8000f3c:	0a1b      	lsrs	r3, r3, #8
 8000f3e:	f003 0307 	and.w	r3, r3, #7
}
 8000f42:	4618      	mov	r0, r3
 8000f44:	46bd      	mov	sp, r7
 8000f46:	f85d 7b04 	ldr.w	r7, [sp], #4
 8000f4a:	4770      	bx	lr
 8000f4c:	e000ed00 	.word	0xe000ed00

08000f50 <__NVIC_EnableIRQ>:
{
 8000f50:	b480      	push	{r7}
 8000f52:	b083      	sub	sp, #12
 8000f54:	af00      	add	r7, sp, #0
 8000f56:	4603      	mov	r3, r0
 8000f58:	71fb      	strb	r3, [r7, #7]
  if ((int32_t)(IRQn) >= 0)
 8000f5a:	f997 3007 	ldrsb.w	r3, [r7, #7]
 8000f5e:	2b00      	cmp	r3, #0
 8000f60:	db0b      	blt.n	8000f7a <__NVIC_EnableIRQ+0x2a>
    NVIC->ISER[(((uint32_t)IRQn) >> 5UL)] = (uint32_t)(1UL << (((uint32_t)IRQn) & 0x1FUL));
 8000f62:	79fb      	ldrb	r3, [r7, #7]
 8000f64:	f003 021f 	and.w	r2, r3, #31
 8000f68:	4907      	ldr	r1, [pc, #28]	; (8000f88 <__NVIC_EnableIRQ+0x38>)
 8000f6a:	f997 3007 	ldrsb.w	r3, [r7, #7]
 8000f6e:	095b      	lsrs	r3, r3, #5
 8000f70:	2001      	movs	r0, #1
 8000f72:	fa00 f202 	lsl.w	r2, r0, r2
 8000f76:	f841 2023 	str.w	r2, [r1, r3, lsl #2]
}
 8000f7a:	bf00      	nop
 8000f7c:	370c      	adds	r7, #12
 8000f7e:	46bd      	mov	sp, r7
 8000f80:	f85d 7b04 	ldr.w	r7, [sp], #4
 8000f84:	4770      	bx	lr
 8000f86:	bf00      	nop
 8000f88:	e000e100 	.word	0xe000e100

08000f8c <__NVIC_SetPriority>:
{
 8000f8c:	b480      	push	{r7}
 8000f8e:	b083      	sub	sp, #12
 8000f90:	af00      	add	r7, sp, #0
 8000f92:	4603      	mov	r3, r0
 8000f94:	6039      	str	r1, [r7, #0]
 8000f96:	71fb      	strb	r3, [r7, #7]
  if ((int32_t)(IRQn) >= 0)
 8000f98:	f997 3007 	ldrsb.w	r3, [r7, #7]
 8000f9c:	2b00      	cmp	r3, #0
 8000f9e:	db0a      	blt.n	8000fb6 <__NVIC_SetPriority+0x2a>
    NVIC->IP[((uint32_t)IRQn)]               = (uint8_t)((priority << (8U - __NVIC_PRIO_BITS)) & (uint32_t)0xFFUL);
 8000fa0:	683b      	ldr	r3, [r7, #0]
 8000fa2:	b2da      	uxtb	r2, r3
 8000fa4:	490c      	ldr	r1, [pc, #48]	; (8000fd8 <__NVIC_SetPriority+0x4c>)
 8000fa6:	f997 3007 	ldrsb.w	r3, [r7, #7]
 8000faa:	0112      	lsls	r2, r2, #4
 8000fac:	b2d2      	uxtb	r2, r2
 8000fae:	440b      	add	r3, r1
 8000fb0:	f883 2300 	strb.w	r2, [r3, #768]	; 0x300
}
 8000fb4:	e00a      	b.n	8000fcc <__NVIC_SetPriority+0x40>
    SCB->SHP[(((uint32_t)IRQn) & 0xFUL)-4UL] = (uint8_t)((priority << (8U - __NVIC_PRIO_BITS)) & (uint32_t)0xFFUL);
 8000fb6:	683b      	ldr	r3, [r7, #0]
 8000fb8:	b2da      	uxtb	r2, r3
 8000fba:	4908      	ldr	r1, [pc, #32]	; (8000fdc <__NVIC_SetPriority+0x50>)
 8000fbc:	79fb      	ldrb	r3, [r7, #7]
 8000fbe:	f003 030f 	and.w	r3, r3, #15
 8000fc2:	3b04      	subs	r3, #4
 8000fc4:	0112      	lsls	r2, r2, #4
 8000fc6:	b2d2      	uxtb	r2, r2
 8000fc8:	440b      	add	r3, r1
 8000fca:	761a      	strb	r2, [r3, #24]
}
 8000fcc:	bf00      	nop
 8000fce:	370c      	adds	r7, #12
 8000fd0:	46bd      	mov	sp, r7
 8000fd2:	f85d 7b04 	ldr.w	r7, [sp], #4
 8000fd6:	4770      	bx	lr
 8000fd8:	e000e100 	.word	0xe000e100
 8000fdc:	e000ed00 	.word	0xe000ed00

08000fe0 <NVIC_EncodePriority>:
{
 8000fe0:	b480      	push	{r7}
 8000fe2:	b089      	sub	sp, #36	; 0x24
 8000fe4:	af00      	add	r7, sp, #0
 8000fe6:	60f8      	str	r0, [r7, #12]
 8000fe8:	60b9      	str	r1, [r7, #8]
 8000fea:	607a      	str	r2, [r7, #4]
  uint32_t PriorityGroupTmp = (PriorityGroup & (uint32_t)0x07UL);   /* only values 0..7 are used          */
 8000fec:	68fb      	ldr	r3, [r7, #12]
 8000fee:	f003 0307 	and.w	r3, r3, #7
 8000ff2:	61fb      	str	r3, [r7, #28]
  PreemptPriorityBits = ((7UL - PriorityGroupTmp) > (uint32_t)(__NVIC_PRIO_BITS)) ? (uint32_t)(__NVIC_PRIO_BITS) : (uint32_t)(7UL - PriorityGroupTmp);
 8000ff4:	69fb      	ldr	r3, [r7, #28]
 8000ff6:	f1c3 0307 	rsb	r3, r3, #7
 8000ffa:	2b04      	cmp	r3, #4
 8000ffc:	bf28      	it	cs
 8000ffe:	2304      	movcs	r3, #4
 8001000:	61bb      	str	r3, [r7, #24]
  SubPriorityBits     = ((PriorityGroupTmp + (uint32_t)(__NVIC_PRIO_BITS)) < (uint32_t)7UL) ? (uint32_t)0UL : (uint32_t)((PriorityGroupTmp - 7UL) + (uint32_t)(__NVIC_PRIO_BITS));
 8001002:	69fb      	ldr	r3, [r7, #28]
 8001004:	3304      	adds	r3, #4
 8001006:	2b06      	cmp	r3, #6
 8001008:	d902      	bls.n	8001010 <NVIC_EncodePriority+0x30>
 800100a:	69fb      	ldr	r3, [r7, #28]
 800100c:	3b03      	subs	r3, #3
 800100e:	e000      	b.n	8001012 <NVIC_EncodePriority+0x32>
 8001010:	2300      	movs	r3, #0
 8001012:	617b      	str	r3, [r7, #20]
           ((PreemptPriority & (uint32_t)((1UL << (PreemptPriorityBits)) - 1UL)) << SubPriorityBits) |
 8001014:	f04f 32ff 	mov.w	r2, #4294967295
 8001018:	69bb      	ldr	r3, [r7, #24]
 800101a:	fa02 f303 	lsl.w	r3, r2, r3
 800101e:	43da      	mvns	r2, r3
 8001020:	68bb      	ldr	r3, [r7, #8]
 8001022:	401a      	ands	r2, r3
 8001024:	697b      	ldr	r3, [r7, #20]
 8001026:	409a      	lsls	r2, r3
           ((SubPriority     & (uint32_t)((1UL << (SubPriorityBits    )) - 1UL)))
 8001028:	f04f 31ff 	mov.w	r1, #4294967295
 800102c:	697b      	ldr	r3, [r7, #20]
 800102e:	fa01 f303 	lsl.w	r3, r1, r3
 8001032:	43d9      	mvns	r1, r3
 8001034:	687b      	ldr	r3, [r7, #4]
 8001036:	400b      	ands	r3, r1
           ((PreemptPriority & (uint32_t)((1UL << (PreemptPriorityBits)) - 1UL)) << SubPriorityBits) |
 8001038:	4313      	orrs	r3, r2
}
 800103a:	4618      	mov	r0, r3
 800103c:	3724      	adds	r7, #36	; 0x24
 800103e:	46bd      	mov	sp, r7
 8001040:	f85d 7b04 	ldr.w	r7, [sp], #4
 8001044:	4770      	bx	lr
	...

08001048 <SysTick_Config>:
{
 8001048:	b580      	push	{r7, lr}
 800104a:	b082      	sub	sp, #8
 800104c:	af00      	add	r7, sp, #0
 800104e:	6078      	str	r0, [r7, #4]
  if ((ticks - 1UL) > SysTick_LOAD_RELOAD_Msk)
 8001050:	687b      	ldr	r3, [r7, #4]
 8001052:	3b01      	subs	r3, #1
 8001054:	f1b3 7f80 	cmp.w	r3, #16777216	; 0x1000000
 8001058:	d301      	bcc.n	800105e <SysTick_Config+0x16>
    return (1UL);                                                   /* Reload value impossible */
 800105a:	2301      	movs	r3, #1
 800105c:	e00f      	b.n	800107e <SysTick_Config+0x36>
  SysTick->LOAD  = (uint32_t)(ticks - 1UL);                         /* set reload register */
 800105e:	4a0a      	ldr	r2, [pc, #40]	; (8001088 <SysTick_Config+0x40>)
 8001060:	687b      	ldr	r3, [r7, #4]
 8001062:	3b01      	subs	r3, #1
 8001064:	6053      	str	r3, [r2, #4]
  NVIC_SetPriority (SysTick_IRQn, (1UL << __NVIC_PRIO_BITS) - 1UL); /* set Priority for Systick Interrupt */
 8001066:	210f      	movs	r1, #15
 8001068:	f04f 30ff 	mov.w	r0, #4294967295
 800106c:	f7ff ff8e 	bl	8000f8c <__NVIC_SetPriority>
  SysTick->VAL   = 0UL;                                             /* Load the SysTick Counter Value */
 8001070:	4b05      	ldr	r3, [pc, #20]	; (8001088 <SysTick_Config+0x40>)
 8001072:	2200      	movs	r2, #0
 8001074:	609a      	str	r2, [r3, #8]
  SysTick->CTRL  = SysTick_CTRL_CLKSOURCE_Msk |
 8001076:	4b04      	ldr	r3, [pc, #16]	; (8001088 <SysTick_Config+0x40>)
 8001078:	2207      	movs	r2, #7
 800107a:	601a      	str	r2, [r3, #0]
  return (0UL);                                                     /* Function successful */
 800107c:	2300      	movs	r3, #0
}
 800107e:	4618      	mov	r0, r3
 8001080:	3708      	adds	r7, #8
 8001082:	46bd      	mov	sp, r7
 8001084:	bd80      	pop	{r7, pc}
 8001086:	bf00      	nop
 8001088:	e000e010 	.word	0xe000e010

0800108c <HAL_NVIC_SetPriorityGrouping>:
  * @note   When the NVIC_PriorityGroup_0 is selected, IRQ preemption is no more possible. 
  *         The pending IRQ priority will be managed only by the subpriority. 
  * @retval None
  */
void HAL_NVIC_SetPriorityGrouping(uint32_t PriorityGroup)
{
 800108c:	b580      	push	{r7, lr}
 800108e:	b082      	sub	sp, #8
 8001090:	af00      	add	r7, sp, #0
 8001092:	6078      	str	r0, [r7, #4]
  /* Check the parameters */
  assert_param(IS_NVIC_PRIORITY_GROUP(PriorityGroup));
  
  /* Set the PRIGROUP[10:8] bits according to the PriorityGroup parameter value */
  NVIC_SetPriorityGrouping(PriorityGroup);
 8001094:	6878      	ldr	r0, [r7, #4]
 8001096:	f7ff ff29 	bl	8000eec <__NVIC_SetPriorityGrouping>
}
 800109a:	bf00      	nop
 800109c:	3708      	adds	r7, #8
 800109e:	46bd      	mov	sp, r7
 80010a0:	bd80      	pop	{r7, pc}

080010a2 <HAL_NVIC_SetPriority>:
  *         This parameter can be a value between 0 and 15
  *         A lower priority value indicates a higher priority.          
  * @retval None
  */
void HAL_NVIC_SetPriority(IRQn_Type IRQn, uint32_t PreemptPriority, uint32_t SubPriority)
{ 
 80010a2:	b580      	push	{r7, lr}
 80010a4:	b086      	sub	sp, #24
 80010a6:	af00      	add	r7, sp, #0
 80010a8:	4603      	mov	r3, r0
 80010aa:	60b9      	str	r1, [r7, #8]
 80010ac:	607a      	str	r2, [r7, #4]
 80010ae:	73fb      	strb	r3, [r7, #15]
  uint32_t prioritygroup = 0x00U;
 80010b0:	2300      	movs	r3, #0
 80010b2:	617b      	str	r3, [r7, #20]
  
  /* Check the parameters */
  assert_param(IS_NVIC_SUB_PRIORITY(SubPriority));
  assert_param(IS_NVIC_PREEMPTION_PRIORITY(PreemptPriority));
  
  prioritygroup = NVIC_GetPriorityGrouping();
 80010b4:	f7ff ff3e 	bl	8000f34 <__NVIC_GetPriorityGrouping>
 80010b8:	6178      	str	r0, [r7, #20]
  
  NVIC_SetPriority(IRQn, NVIC_EncodePriority(prioritygroup, PreemptPriority, SubPriority));
 80010ba:	687a      	ldr	r2, [r7, #4]
 80010bc:	68b9      	ldr	r1, [r7, #8]
 80010be:	6978      	ldr	r0, [r7, #20]
 80010c0:	f7ff ff8e 	bl	8000fe0 <NVIC_EncodePriority>
 80010c4:	4602      	mov	r2, r0
 80010c6:	f997 300f 	ldrsb.w	r3, [r7, #15]
 80010ca:	4611      	mov	r1, r2
 80010cc:	4618      	mov	r0, r3
 80010ce:	f7ff ff5d 	bl	8000f8c <__NVIC_SetPriority>
}
 80010d2:	bf00      	nop
 80010d4:	3718      	adds	r7, #24
 80010d6:	46bd      	mov	sp, r7
 80010d8:	bd80      	pop	{r7, pc}

080010da <HAL_NVIC_EnableIRQ>:
  *         This parameter can be an enumerator of IRQn_Type enumeration
  *         (For the complete STM32 Devices IRQ Channels list, please refer to the appropriate CMSIS device file (stm32f4xxxx.h))
  * @retval None
  */
void HAL_NVIC_EnableIRQ(IRQn_Type IRQn)
{
 80010da:	b580      	push	{r7, lr}
 80010dc:	b082      	sub	sp, #8
 80010de:	af00      	add	r7, sp, #0
 80010e0:	4603      	mov	r3, r0
 80010e2:	71fb      	strb	r3, [r7, #7]
  /* Check the parameters */
  assert_param(IS_NVIC_DEVICE_IRQ(IRQn));
  
  /* Enable interrupt */
  NVIC_EnableIRQ(IRQn);
 80010e4:	f997 3007 	ldrsb.w	r3, [r7, #7]
 80010e8:	4618      	mov	r0, r3
 80010ea:	f7ff ff31 	bl	8000f50 <__NVIC_EnableIRQ>
}
 80010ee:	bf00      	nop
 80010f0:	3708      	adds	r7, #8
 80010f2:	46bd      	mov	sp, r7
 80010f4:	bd80      	pop	{r7, pc}

080010f6 <HAL_SYSTICK_Config>:
  * @param  TicksNumb Specifies the ticks Number of ticks between two interrupts.
  * @retval status:  - 0  Function succeeded.
  *                  - 1  Function failed.
  */
uint32_t HAL_SYSTICK_Config(uint32_t TicksNumb)
{
 80010f6:	b580      	push	{r7, lr}
 80010f8:	b082      	sub	sp, #8
 80010fa:	af00      	add	r7, sp, #0
 80010fc:	6078      	str	r0, [r7, #4]
   return SysTick_Config(TicksNumb);
 80010fe:	6878      	ldr	r0, [r7, #4]
 8001100:	f7ff ffa2 	bl	8001048 <SysTick_Config>
 8001104:	4603      	mov	r3, r0
}
 8001106:	4618      	mov	r0, r3
 8001108:	3708      	adds	r7, #8
 800110a:	46bd      	mov	sp, r7
 800110c:	bd80      	pop	{r7, pc}
	...

08001110 <HAL_GPIO_Init>:
  * @param  GPIO_Init pointer to a GPIO_InitTypeDef structure that contains
  *         the configuration information for the specified GPIO peripheral.
  * @retval None
  */
void HAL_GPIO_Init(GPIO_TypeDef  *GPIOx, GPIO_InitTypeDef *GPIO_Init)
{
 8001110:	b480      	push	{r7}
 8001112:	b089      	sub	sp, #36	; 0x24
 8001114:	af00      	add	r7, sp, #0
 8001116:	6078      	str	r0, [r7, #4]
 8001118:	6039      	str	r1, [r7, #0]
  uint32_t position;
  uint32_t ioposition = 0x00U;
 800111a:	2300      	movs	r3, #0
 800111c:	617b      	str	r3, [r7, #20]
  uint32_t iocurrent = 0x00U;
 800111e:	2300      	movs	r3, #0
 8001120:	613b      	str	r3, [r7, #16]
  uint32_t temp = 0x00U;
 8001122:	2300      	movs	r3, #0
 8001124:	61bb      	str	r3, [r7, #24]
  assert_param(IS_GPIO_ALL_INSTANCE(GPIOx));
  assert_param(IS_GPIO_PIN(GPIO_Init->Pin));
  assert_param(IS_GPIO_MODE(GPIO_Init->Mode));

  /* Configure the port pins */
  for(position = 0U; position < GPIO_NUMBER; position++)
 8001126:	2300      	movs	r3, #0
 8001128:	61fb      	str	r3, [r7, #28]
 800112a:	e165      	b.n	80013f8 <HAL_GPIO_Init+0x2e8>
  {
    /* Get the IO position */
    ioposition = 0x01U << position;
 800112c:	2201      	movs	r2, #1
 800112e:	69fb      	ldr	r3, [r7, #28]
 8001130:	fa02 f303 	lsl.w	r3, r2, r3
 8001134:	617b      	str	r3, [r7, #20]
    /* Get the current IO position */
    iocurrent = (uint32_t)(GPIO_Init->Pin) & ioposition;
 8001136:	683b      	ldr	r3, [r7, #0]
 8001138:	681b      	ldr	r3, [r3, #0]
 800113a:	697a      	ldr	r2, [r7, #20]
 800113c:	4013      	ands	r3, r2
 800113e:	613b      	str	r3, [r7, #16]

    if(iocurrent == ioposition)
 8001140:	693a      	ldr	r2, [r7, #16]
 8001142:	697b      	ldr	r3, [r7, #20]
 8001144:	429a      	cmp	r2, r3
 8001146:	f040 8154 	bne.w	80013f2 <HAL_GPIO_Init+0x2e2>
    {
      /*--------------------- GPIO Mode Configuration ------------------------*/
      /* In case of Output or Alternate function mode selection */
      if(((GPIO_Init->Mode & GPIO_MODE) == MODE_OUTPUT) || \
 800114a:	683b      	ldr	r3, [r7, #0]
 800114c:	685b      	ldr	r3, [r3, #4]
 800114e:	f003 0303 	and.w	r3, r3, #3
 8001152:	2b01      	cmp	r3, #1
 8001154:	d005      	beq.n	8001162 <HAL_GPIO_Init+0x52>
          (GPIO_Init->Mode & GPIO_MODE) == MODE_AF)
 8001156:	683b      	ldr	r3, [r7, #0]
 8001158:	685b      	ldr	r3, [r3, #4]
 800115a:	f003 0303 	and.w	r3, r3, #3
      if(((GPIO_Init->Mode & GPIO_MODE) == MODE_OUTPUT) || \
 800115e:	2b02      	cmp	r3, #2
 8001160:	d130      	bne.n	80011c4 <HAL_GPIO_Init+0xb4>
      {
        /* Check the Speed parameter */
        assert_param(IS_GPIO_SPEED(GPIO_Init->Speed));
        /* Configure the IO Speed */
        temp = GPIOx->OSPEEDR; 
 8001162:	687b      	ldr	r3, [r7, #4]
 8001164:	689b      	ldr	r3, [r3, #8]
 8001166:	61bb      	str	r3, [r7, #24]
        temp &= ~(GPIO_OSPEEDER_OSPEEDR0 << (position * 2U));
 8001168:	69fb      	ldr	r3, [r7, #28]
 800116a:	005b      	lsls	r3, r3, #1
 800116c:	2203      	movs	r2, #3
 800116e:	fa02 f303 	lsl.w	r3, r2, r3
 8001172:	43db      	mvns	r3, r3
 8001174:	69ba      	ldr	r2, [r7, #24]
 8001176:	4013      	ands	r3, r2
 8001178:	61bb      	str	r3, [r7, #24]
        temp |= (GPIO_Init->Speed << (position * 2U));
 800117a:	683b      	ldr	r3, [r7, #0]
 800117c:	68da      	ldr	r2, [r3, #12]
 800117e:	69fb      	ldr	r3, [r7, #28]
 8001180:	005b      	lsls	r3, r3, #1
 8001182:	fa02 f303 	lsl.w	r3, r2, r3
 8001186:	69ba      	ldr	r2, [r7, #24]
 8001188:	4313      	orrs	r3, r2
 800118a:	61bb      	str	r3, [r7, #24]
        GPIOx->OSPEEDR = temp;
 800118c:	687b      	ldr	r3, [r7, #4]
 800118e:	69ba      	ldr	r2, [r7, #24]
 8001190:	609a      	str	r2, [r3, #8]

        /* Configure the IO Output Type */
        temp = GPIOx->OTYPER;
 8001192:	687b      	ldr	r3, [r7, #4]
 8001194:	685b      	ldr	r3, [r3, #4]
 8001196:	61bb      	str	r3, [r7, #24]
        temp &= ~(GPIO_OTYPER_OT_0 << position) ;
 8001198:	2201      	movs	r2, #1
 800119a:	69fb      	ldr	r3, [r7, #28]
 800119c:	fa02 f303 	lsl.w	r3, r2, r3
 80011a0:	43db      	mvns	r3, r3
 80011a2:	69ba      	ldr	r2, [r7, #24]
 80011a4:	4013      	ands	r3, r2
 80011a6:	61bb      	str	r3, [r7, #24]
        temp |= (((GPIO_Init->Mode & OUTPUT_TYPE) >> OUTPUT_TYPE_Pos) << position);
 80011a8:	683b      	ldr	r3, [r7, #0]
 80011aa:	685b      	ldr	r3, [r3, #4]
 80011ac:	091b      	lsrs	r3, r3, #4
 80011ae:	f003 0201 	and.w	r2, r3, #1
 80011b2:	69fb      	ldr	r3, [r7, #28]
 80011b4:	fa02 f303 	lsl.w	r3, r2, r3
 80011b8:	69ba      	ldr	r2, [r7, #24]
 80011ba:	4313      	orrs	r3, r2
 80011bc:	61bb      	str	r3, [r7, #24]
        GPIOx->OTYPER = temp;
 80011be:	687b      	ldr	r3, [r7, #4]
 80011c0:	69ba      	ldr	r2, [r7, #24]
 80011c2:	605a      	str	r2, [r3, #4]
       }

      if((GPIO_Init->Mode & GPIO_MODE) != MODE_ANALOG)
 80011c4:	683b      	ldr	r3, [r7, #0]
 80011c6:	685b      	ldr	r3, [r3, #4]
 80011c8:	f003 0303 	and.w	r3, r3, #3
 80011cc:	2b03      	cmp	r3, #3
 80011ce:	d017      	beq.n	8001200 <HAL_GPIO_Init+0xf0>
      {
        /* Check the parameters */
        assert_param(IS_GPIO_PULL(GPIO_Init->Pull));
        
        /* Activate the Pull-up or Pull down resistor for the current IO */
        temp = GPIOx->PUPDR;
 80011d0:	687b      	ldr	r3, [r7, #4]
 80011d2:	68db      	ldr	r3, [r3, #12]
 80011d4:	61bb      	str	r3, [r7, #24]
        temp &= ~(GPIO_PUPDR_PUPDR0 << (position * 2U));
 80011d6:	69fb      	ldr	r3, [r7, #28]
 80011d8:	005b      	lsls	r3, r3, #1
 80011da:	2203      	movs	r2, #3
 80011dc:	fa02 f303 	lsl.w	r3, r2, r3
 80011e0:	43db      	mvns	r3, r3
 80011e2:	69ba      	ldr	r2, [r7, #24]
 80011e4:	4013      	ands	r3, r2
 80011e6:	61bb      	str	r3, [r7, #24]
        temp |= ((GPIO_Init->Pull) << (position * 2U));
 80011e8:	683b      	ldr	r3, [r7, #0]
 80011ea:	689a      	ldr	r2, [r3, #8]
 80011ec:	69fb      	ldr	r3, [r7, #28]
 80011ee:	005b      	lsls	r3, r3, #1
 80011f0:	fa02 f303 	lsl.w	r3, r2, r3
 80011f4:	69ba      	ldr	r2, [r7, #24]
 80011f6:	4313      	orrs	r3, r2
 80011f8:	61bb      	str	r3, [r7, #24]
        GPIOx->PUPDR = temp;
 80011fa:	687b      	ldr	r3, [r7, #4]
 80011fc:	69ba      	ldr	r2, [r7, #24]
 80011fe:	60da      	str	r2, [r3, #12]
      }

      /* In case of Alternate function mode selection */
      if((GPIO_Init->Mode & GPIO_MODE) == MODE_AF)
 8001200:	683b      	ldr	r3, [r7, #0]
 8001202:	685b      	ldr	r3, [r3, #4]
 8001204:	f003 0303 	and.w	r3, r3, #3
 8001208:	2b02      	cmp	r3, #2
 800120a:	d123      	bne.n	8001254 <HAL_GPIO_Init+0x144>
      {
        /* Check the Alternate function parameter */
        assert_param(IS_GPIO_AF(GPIO_Init->Alternate));
        /* Configure Alternate function mapped with the current IO */
        temp = GPIOx->AFR[position >> 3U];
 800120c:	69fb      	ldr	r3, [r7, #28]
 800120e:	08da      	lsrs	r2, r3, #3
 8001210:	687b      	ldr	r3, [r7, #4]
 8001212:	3208      	adds	r2, #8
 8001214:	f853 3022 	ldr.w	r3, [r3, r2, lsl #2]
 8001218:	61bb      	str	r3, [r7, #24]
        temp &= ~(0xFU << ((uint32_t)(position & 0x07U) * 4U)) ;
 800121a:	69fb      	ldr	r3, [r7, #28]
 800121c:	f003 0307 	and.w	r3, r3, #7
 8001220:	009b      	lsls	r3, r3, #2
 8001222:	220f      	movs	r2, #15
 8001224:	fa02 f303 	lsl.w	r3, r2, r3
 8001228:	43db      	mvns	r3, r3
 800122a:	69ba      	ldr	r2, [r7, #24]
 800122c:	4013      	ands	r3, r2
 800122e:	61bb      	str	r3, [r7, #24]
        temp |= ((uint32_t)(GPIO_Init->Alternate) << (((uint32_t)position & 0x07U) * 4U));
 8001230:	683b      	ldr	r3, [r7, #0]
 8001232:	691a      	ldr	r2, [r3, #16]
 8001234:	69fb      	ldr	r3, [r7, #28]
 8001236:	f003 0307 	and.w	r3, r3, #7
 800123a:	009b      	lsls	r3, r3, #2
 800123c:	fa02 f303 	lsl.w	r3, r2, r3
 8001240:	69ba      	ldr	r2, [r7, #24]
 8001242:	4313      	orrs	r3, r2
 8001244:	61bb      	str	r3, [r7, #24]
        GPIOx->AFR[position >> 3U] = temp;
 8001246:	69fb      	ldr	r3, [r7, #28]
 8001248:	08da      	lsrs	r2, r3, #3
 800124a:	687b      	ldr	r3, [r7, #4]
 800124c:	3208      	adds	r2, #8
 800124e:	69b9      	ldr	r1, [r7, #24]
 8001250:	f843 1022 	str.w	r1, [r3, r2, lsl #2]
      }

      /* Configure IO Direction mode (Input, Output, Alternate or Analog) */
      temp = GPIOx->MODER;
 8001254:	687b      	ldr	r3, [r7, #4]
 8001256:	681b      	ldr	r3, [r3, #0]
 8001258:	61bb      	str	r3, [r7, #24]
      temp &= ~(GPIO_MODER_MODER0 << (position * 2U));
 800125a:	69fb      	ldr	r3, [r7, #28]
 800125c:	005b      	lsls	r3, r3, #1
 800125e:	2203      	movs	r2, #3
 8001260:	fa02 f303 	lsl.w	r3, r2, r3
 8001264:	43db      	mvns	r3, r3
 8001266:	69ba      	ldr	r2, [r7, #24]
 8001268:	4013      	ands	r3, r2
 800126a:	61bb      	str	r3, [r7, #24]
      temp |= ((GPIO_Init->Mode & GPIO_MODE) << (position * 2U));
 800126c:	683b      	ldr	r3, [r7, #0]
 800126e:	685b      	ldr	r3, [r3, #4]
 8001270:	f003 0203 	and.w	r2, r3, #3
 8001274:	69fb      	ldr	r3, [r7, #28]
 8001276:	005b      	lsls	r3, r3, #1
 8001278:	fa02 f303 	lsl.w	r3, r2, r3
 800127c:	69ba      	ldr	r2, [r7, #24]
 800127e:	4313      	orrs	r3, r2
 8001280:	61bb      	str	r3, [r7, #24]
      GPIOx->MODER = temp;
 8001282:	687b      	ldr	r3, [r7, #4]
 8001284:	69ba      	ldr	r2, [r7, #24]
 8001286:	601a      	str	r2, [r3, #0]

      /*--------------------- EXTI Mode Configuration ------------------------*/
      /* Configure the External Interrupt or event for the current IO */
      if((GPIO_Init->Mode & EXTI_MODE) != 0x00U)
 8001288:	683b      	ldr	r3, [r7, #0]
 800128a:	685b      	ldr	r3, [r3, #4]
 800128c:	f403 3340 	and.w	r3, r3, #196608	; 0x30000
 8001290:	2b00      	cmp	r3, #0
 8001292:	f000 80ae 	beq.w	80013f2 <HAL_GPIO_Init+0x2e2>
      {
        /* Enable SYSCFG Clock */
        __HAL_RCC_SYSCFG_CLK_ENABLE();
 8001296:	2300      	movs	r3, #0
 8001298:	60fb      	str	r3, [r7, #12]
 800129a:	4b5d      	ldr	r3, [pc, #372]	; (8001410 <HAL_GPIO_Init+0x300>)
 800129c:	6c5b      	ldr	r3, [r3, #68]	; 0x44
 800129e:	4a5c      	ldr	r2, [pc, #368]	; (8001410 <HAL_GPIO_Init+0x300>)
 80012a0:	f443 4380 	orr.w	r3, r3, #16384	; 0x4000
 80012a4:	6453      	str	r3, [r2, #68]	; 0x44
 80012a6:	4b5a      	ldr	r3, [pc, #360]	; (8001410 <HAL_GPIO_Init+0x300>)
 80012a8:	6c5b      	ldr	r3, [r3, #68]	; 0x44
 80012aa:	f403 4380 	and.w	r3, r3, #16384	; 0x4000
 80012ae:	60fb      	str	r3, [r7, #12]
 80012b0:	68fb      	ldr	r3, [r7, #12]

        temp = SYSCFG->EXTICR[position >> 2U];
 80012b2:	4a58      	ldr	r2, [pc, #352]	; (8001414 <HAL_GPIO_Init+0x304>)
 80012b4:	69fb      	ldr	r3, [r7, #28]
 80012b6:	089b      	lsrs	r3, r3, #2
 80012b8:	3302      	adds	r3, #2
 80012ba:	f852 3023 	ldr.w	r3, [r2, r3, lsl #2]
 80012be:	61bb      	str	r3, [r7, #24]
        temp &= ~(0x0FU << (4U * (position & 0x03U)));
 80012c0:	69fb      	ldr	r3, [r7, #28]
 80012c2:	f003 0303 	and.w	r3, r3, #3
 80012c6:	009b      	lsls	r3, r3, #2
 80012c8:	220f      	movs	r2, #15
 80012ca:	fa02 f303 	lsl.w	r3, r2, r3
 80012ce:	43db      	mvns	r3, r3
 80012d0:	69ba      	ldr	r2, [r7, #24]
 80012d2:	4013      	ands	r3, r2
 80012d4:	61bb      	str	r3, [r7, #24]
        temp |= ((uint32_t)(GPIO_GET_INDEX(GPIOx)) << (4U * (position & 0x03U)));
 80012d6:	687b      	ldr	r3, [r7, #4]
 80012d8:	4a4f      	ldr	r2, [pc, #316]	; (8001418 <HAL_GPIO_Init+0x308>)
 80012da:	4293      	cmp	r3, r2
 80012dc:	d025      	beq.n	800132a <HAL_GPIO_Init+0x21a>
 80012de:	687b      	ldr	r3, [r7, #4]
 80012e0:	4a4e      	ldr	r2, [pc, #312]	; (800141c <HAL_GPIO_Init+0x30c>)
 80012e2:	4293      	cmp	r3, r2
 80012e4:	d01f      	beq.n	8001326 <HAL_GPIO_Init+0x216>
 80012e6:	687b      	ldr	r3, [r7, #4]
 80012e8:	4a4d      	ldr	r2, [pc, #308]	; (8001420 <HAL_GPIO_Init+0x310>)
 80012ea:	4293      	cmp	r3, r2
 80012ec:	d019      	beq.n	8001322 <HAL_GPIO_Init+0x212>
 80012ee:	687b      	ldr	r3, [r7, #4]
 80012f0:	4a4c      	ldr	r2, [pc, #304]	; (8001424 <HAL_GPIO_Init+0x314>)
 80012f2:	4293      	cmp	r3, r2
 80012f4:	d013      	beq.n	800131e <HAL_GPIO_Init+0x20e>
 80012f6:	687b      	ldr	r3, [r7, #4]
 80012f8:	4a4b      	ldr	r2, [pc, #300]	; (8001428 <HAL_GPIO_Init+0x318>)
 80012fa:	4293      	cmp	r3, r2
 80012fc:	d00d      	beq.n	800131a <HAL_GPIO_Init+0x20a>
 80012fe:	687b      	ldr	r3, [r7, #4]
 8001300:	4a4a      	ldr	r2, [pc, #296]	; (800142c <HAL_GPIO_Init+0x31c>)
 8001302:	4293      	cmp	r3, r2
 8001304:	d007      	beq.n	8001316 <HAL_GPIO_Init+0x206>
 8001306:	687b      	ldr	r3, [r7, #4]
 8001308:	4a49      	ldr	r2, [pc, #292]	; (8001430 <HAL_GPIO_Init+0x320>)
 800130a:	4293      	cmp	r3, r2
 800130c:	d101      	bne.n	8001312 <HAL_GPIO_Init+0x202>
 800130e:	2306      	movs	r3, #6
 8001310:	e00c      	b.n	800132c <HAL_GPIO_Init+0x21c>
 8001312:	2307      	movs	r3, #7
 8001314:	e00a      	b.n	800132c <HAL_GPIO_Init+0x21c>
 8001316:	2305      	movs	r3, #5
 8001318:	e008      	b.n	800132c <HAL_GPIO_Init+0x21c>
 800131a:	2304      	movs	r3, #4
 800131c:	e006      	b.n	800132c <HAL_GPIO_Init+0x21c>
 800131e:	2303      	movs	r3, #3
 8001320:	e004      	b.n	800132c <HAL_GPIO_Init+0x21c>
 8001322:	2302      	movs	r3, #2
 8001324:	e002      	b.n	800132c <HAL_GPIO_Init+0x21c>
 8001326:	2301      	movs	r3, #1
 8001328:	e000      	b.n	800132c <HAL_GPIO_Init+0x21c>
 800132a:	2300      	movs	r3, #0
 800132c:	69fa      	ldr	r2, [r7, #28]
 800132e:	f002 0203 	and.w	r2, r2, #3
 8001332:	0092      	lsls	r2, r2, #2
 8001334:	4093      	lsls	r3, r2
 8001336:	69ba      	ldr	r2, [r7, #24]
 8001338:	4313      	orrs	r3, r2
 800133a:	61bb      	str	r3, [r7, #24]
        SYSCFG->EXTICR[position >> 2U] = temp;
 800133c:	4935      	ldr	r1, [pc, #212]	; (8001414 <HAL_GPIO_Init+0x304>)
 800133e:	69fb      	ldr	r3, [r7, #28]
 8001340:	089b      	lsrs	r3, r3, #2
 8001342:	3302      	adds	r3, #2
 8001344:	69ba      	ldr	r2, [r7, #24]
 8001346:	f841 2023 	str.w	r2, [r1, r3, lsl #2]

        /* Clear EXTI line configuration */
        temp = EXTI->IMR;
 800134a:	4b3a      	ldr	r3, [pc, #232]	; (8001434 <HAL_GPIO_Init+0x324>)
 800134c:	681b      	ldr	r3, [r3, #0]
 800134e:	61bb      	str	r3, [r7, #24]
        temp &= ~((uint32_t)iocurrent);
 8001350:	693b      	ldr	r3, [r7, #16]
 8001352:	43db      	mvns	r3, r3
 8001354:	69ba      	ldr	r2, [r7, #24]
 8001356:	4013      	ands	r3, r2
 8001358:	61bb      	str	r3, [r7, #24]
        if((GPIO_Init->Mode & EXTI_IT) != 0x00U)
 800135a:	683b      	ldr	r3, [r7, #0]
 800135c:	685b      	ldr	r3, [r3, #4]
 800135e:	f403 3380 	and.w	r3, r3, #65536	; 0x10000
 8001362:	2b00      	cmp	r3, #0
 8001364:	d003      	beq.n	800136e <HAL_GPIO_Init+0x25e>
        {
          temp |= iocurrent;
 8001366:	69ba      	ldr	r2, [r7, #24]
 8001368:	693b      	ldr	r3, [r7, #16]
 800136a:	4313      	orrs	r3, r2
 800136c:	61bb      	str	r3, [r7, #24]
        }
        EXTI->IMR = temp;
 800136e:	4a31      	ldr	r2, [pc, #196]	; (8001434 <HAL_GPIO_Init+0x324>)
 8001370:	69bb      	ldr	r3, [r7, #24]
 8001372:	6013      	str	r3, [r2, #0]

        temp = EXTI->EMR;
 8001374:	4b2f      	ldr	r3, [pc, #188]	; (8001434 <HAL_GPIO_Init+0x324>)
 8001376:	685b      	ldr	r3, [r3, #4]
 8001378:	61bb      	str	r3, [r7, #24]
        temp &= ~((uint32_t)iocurrent);
 800137a:	693b      	ldr	r3, [r7, #16]
 800137c:	43db      	mvns	r3, r3
 800137e:	69ba      	ldr	r2, [r7, #24]
 8001380:	4013      	ands	r3, r2
 8001382:	61bb      	str	r3, [r7, #24]
        if((GPIO_Init->Mode & EXTI_EVT) != 0x00U)
 8001384:	683b      	ldr	r3, [r7, #0]
 8001386:	685b      	ldr	r3, [r3, #4]
 8001388:	f403 3300 	and.w	r3, r3, #131072	; 0x20000
 800138c:	2b00      	cmp	r3, #0
 800138e:	d003      	beq.n	8001398 <HAL_GPIO_Init+0x288>
        {
          temp |= iocurrent;
 8001390:	69ba      	ldr	r2, [r7, #24]
 8001392:	693b      	ldr	r3, [r7, #16]
 8001394:	4313      	orrs	r3, r2
 8001396:	61bb      	str	r3, [r7, #24]
        }
        EXTI->EMR = temp;
 8001398:	4a26      	ldr	r2, [pc, #152]	; (8001434 <HAL_GPIO_Init+0x324>)
 800139a:	69bb      	ldr	r3, [r7, #24]
 800139c:	6053      	str	r3, [r2, #4]

        /* Clear Rising Falling edge configuration */
        temp = EXTI->RTSR;
 800139e:	4b25      	ldr	r3, [pc, #148]	; (8001434 <HAL_GPIO_Init+0x324>)
 80013a0:	689b      	ldr	r3, [r3, #8]
 80013a2:	61bb      	str	r3, [r7, #24]
        temp &= ~((uint32_t)iocurrent);
 80013a4:	693b      	ldr	r3, [r7, #16]
 80013a6:	43db      	mvns	r3, r3
 80013a8:	69ba      	ldr	r2, [r7, #24]
 80013aa:	4013      	ands	r3, r2
 80013ac:	61bb      	str	r3, [r7, #24]
        if((GPIO_Init->Mode & TRIGGER_RISING) != 0x00U)
 80013ae:	683b      	ldr	r3, [r7, #0]
 80013b0:	685b      	ldr	r3, [r3, #4]
 80013b2:	f403 1380 	and.w	r3, r3, #1048576	; 0x100000
 80013b6:	2b00      	cmp	r3, #0
 80013b8:	d003      	beq.n	80013c2 <HAL_GPIO_Init+0x2b2>
        {
          temp |= iocurrent;
 80013ba:	69ba      	ldr	r2, [r7, #24]
 80013bc:	693b      	ldr	r3, [r7, #16]
 80013be:	4313      	orrs	r3, r2
 80013c0:	61bb      	str	r3, [r7, #24]
        }
        EXTI->RTSR = temp;
 80013c2:	4a1c      	ldr	r2, [pc, #112]	; (8001434 <HAL_GPIO_Init+0x324>)
 80013c4:	69bb      	ldr	r3, [r7, #24]
 80013c6:	6093      	str	r3, [r2, #8]

        temp = EXTI->FTSR;
 80013c8:	4b1a      	ldr	r3, [pc, #104]	; (8001434 <HAL_GPIO_Init+0x324>)
 80013ca:	68db      	ldr	r3, [r3, #12]
 80013cc:	61bb      	str	r3, [r7, #24]
        temp &= ~((uint32_t)iocurrent);
 80013ce:	693b      	ldr	r3, [r7, #16]
 80013d0:	43db      	mvns	r3, r3
 80013d2:	69ba      	ldr	r2, [r7, #24]
 80013d4:	4013      	ands	r3, r2
 80013d6:	61bb      	str	r3, [r7, #24]
        if((GPIO_Init->Mode & TRIGGER_FALLING) != 0x00U)
 80013d8:	683b      	ldr	r3, [r7, #0]
 80013da:	685b      	ldr	r3, [r3, #4]
 80013dc:	f403 1300 	and.w	r3, r3, #2097152	; 0x200000
 80013e0:	2b00      	cmp	r3, #0
 80013e2:	d003      	beq.n	80013ec <HAL_GPIO_Init+0x2dc>
        {
          temp |= iocurrent;
 80013e4:	69ba      	ldr	r2, [r7, #24]
 80013e6:	693b      	ldr	r3, [r7, #16]
 80013e8:	4313      	orrs	r3, r2
 80013ea:	61bb      	str	r3, [r7, #24]
        }
        EXTI->FTSR = temp;
 80013ec:	4a11      	ldr	r2, [pc, #68]	; (8001434 <HAL_GPIO_Init+0x324>)
 80013ee:	69bb      	ldr	r3, [r7, #24]
 80013f0:	60d3      	str	r3, [r2, #12]
  for(position = 0U; position < GPIO_NUMBER; position++)
 80013f2:	69fb      	ldr	r3, [r7, #28]
 80013f4:	3301      	adds	r3, #1
 80013f6:	61fb      	str	r3, [r7, #28]
 80013f8:	69fb      	ldr	r3, [r7, #28]
 80013fa:	2b0f      	cmp	r3, #15
 80013fc:	f67f ae96 	bls.w	800112c <HAL_GPIO_Init+0x1c>
      }
    }
  }
}
 8001400:	bf00      	nop
 8001402:	bf00      	nop
 8001404:	3724      	adds	r7, #36	; 0x24
 8001406:	46bd      	mov	sp, r7
 8001408:	f85d 7b04 	ldr.w	r7, [sp], #4
 800140c:	4770      	bx	lr
 800140e:	bf00      	nop
 8001410:	40023800 	.word	0x40023800
 8001414:	40013800 	.word	0x40013800
 8001418:	40020000 	.word	0x40020000
 800141c:	40020400 	.word	0x40020400
 8001420:	40020800 	.word	0x40020800
 8001424:	40020c00 	.word	0x40020c00
 8001428:	40021000 	.word	0x40021000
 800142c:	40021400 	.word	0x40021400
 8001430:	40021800 	.word	0x40021800
 8001434:	40013c00 	.word	0x40013c00

08001438 <HAL_GPIO_WritePin>:
  *            @arg GPIO_PIN_RESET: to clear the port pin
  *            @arg GPIO_PIN_SET: to set the port pin
  * @retval None
  */
void HAL_GPIO_WritePin(GPIO_TypeDef* GPIOx, uint16_t GPIO_Pin, GPIO_PinState PinState)
{
 8001438:	b480      	push	{r7}
 800143a:	b083      	sub	sp, #12
 800143c:	af00      	add	r7, sp, #0
 800143e:	6078      	str	r0, [r7, #4]
 8001440:	460b      	mov	r3, r1
 8001442:	807b      	strh	r3, [r7, #2]
 8001444:	4613      	mov	r3, r2
 8001446:	707b      	strb	r3, [r7, #1]
  /* Check the parameters */
  assert_param(IS_GPIO_PIN(GPIO_Pin));
  assert_param(IS_GPIO_PIN_ACTION(PinState));

  if(PinState != GPIO_PIN_RESET)
 8001448:	787b      	ldrb	r3, [r7, #1]
 800144a:	2b00      	cmp	r3, #0
 800144c:	d003      	beq.n	8001456 <HAL_GPIO_WritePin+0x1e>
  {
    GPIOx->BSRR = GPIO_Pin;
 800144e:	887a      	ldrh	r2, [r7, #2]
 8001450:	687b      	ldr	r3, [r7, #4]
 8001452:	619a      	str	r2, [r3, #24]
  }
  else
  {
    GPIOx->BSRR = (uint32_t)GPIO_Pin << 16U;
  }
}
 8001454:	e003      	b.n	800145e <HAL_GPIO_WritePin+0x26>
    GPIOx->BSRR = (uint32_t)GPIO_Pin << 16U;
 8001456:	887b      	ldrh	r3, [r7, #2]
 8001458:	041a      	lsls	r2, r3, #16
 800145a:	687b      	ldr	r3, [r7, #4]
 800145c:	619a      	str	r2, [r3, #24]
}
 800145e:	bf00      	nop
 8001460:	370c      	adds	r7, #12
 8001462:	46bd      	mov	sp, r7
 8001464:	f85d 7b04 	ldr.w	r7, [sp], #4
 8001468:	4770      	bx	lr

0800146a <HAL_HCD_Init>:
  * @brief  Initialize the host driver.
  * @param  hhcd HCD handle
  * @retval HAL status
  */
HAL_StatusTypeDef HAL_HCD_Init(HCD_HandleTypeDef *hhcd)
{
 800146a:	b5f0      	push	{r4, r5, r6, r7, lr}
 800146c:	b08f      	sub	sp, #60	; 0x3c
 800146e:	af0a      	add	r7, sp, #40	; 0x28
 8001470:	6078      	str	r0, [r7, #4]
  USB_OTG_GlobalTypeDef *USBx;

  /* Check the HCD handle allocation */
  if (hhcd == NULL)
 8001472:	687b      	ldr	r3, [r7, #4]
 8001474:	2b00      	cmp	r3, #0
 8001476:	d101      	bne.n	800147c <HAL_HCD_Init+0x12>
  {
    return HAL_ERROR;
 8001478:	2301      	movs	r3, #1
 800147a:	e054      	b.n	8001526 <HAL_HCD_Init+0xbc>
  }

  /* Check the parameters */
  assert_param(IS_HCD_ALL_INSTANCE(hhcd->Instance));

  USBx = hhcd->Instance;
 800147c:	687b      	ldr	r3, [r7, #4]
 800147e:	681b      	ldr	r3, [r3, #0]
 8001480:	60fb      	str	r3, [r7, #12]

  if (hhcd->State == HAL_HCD_STATE_RESET)
 8001482:	687b      	ldr	r3, [r7, #4]
 8001484:	f893 32f9 	ldrb.w	r3, [r3, #761]	; 0x2f9
 8001488:	b2db      	uxtb	r3, r3
 800148a:	2b00      	cmp	r3, #0
 800148c:	d106      	bne.n	800149c <HAL_HCD_Init+0x32>
  {
    /* Allocate lock resource and initialize it */
    hhcd->Lock = HAL_UNLOCKED;
 800148e:	687b      	ldr	r3, [r7, #4]
 8001490:	2200      	movs	r2, #0
 8001492:	f883 22f8 	strb.w	r2, [r3, #760]	; 0x2f8

    /* Init the low level hardware */
    hhcd->MspInitCallback(hhcd);
#else
    /* Init the low level hardware : GPIO, CLOCK, NVIC... */
    HAL_HCD_MspInit(hhcd);
 8001496:	6878      	ldr	r0, [r7, #4]
 8001498:	f006 fc96 	bl	8007dc8 <HAL_HCD_MspInit>
#endif /* (USE_HAL_HCD_REGISTER_CALLBACKS) */
  }

  hhcd->State = HAL_HCD_STATE_BUSY;
 800149c:	687b      	ldr	r3, [r7, #4]
 800149e:	2203      	movs	r2, #3
 80014a0:	f883 22f9 	strb.w	r2, [r3, #761]	; 0x2f9

  /* Disable DMA mode for FS instance */
  if ((USBx->CID & (0x1U << 8)) == 0U)
 80014a4:	68fb      	ldr	r3, [r7, #12]
 80014a6:	6bdb      	ldr	r3, [r3, #60]	; 0x3c
 80014a8:	f403 7380 	and.w	r3, r3, #256	; 0x100
 80014ac:	2b00      	cmp	r3, #0
 80014ae:	d102      	bne.n	80014b6 <HAL_HCD_Init+0x4c>
  {
    hhcd->Init.dma_enable = 0U;
 80014b0:	687b      	ldr	r3, [r7, #4]
 80014b2:	2200      	movs	r2, #0
 80014b4:	611a      	str	r2, [r3, #16]
  }

  /* Disable the Interrupts */
  __HAL_HCD_DISABLE(hhcd);
 80014b6:	687b      	ldr	r3, [r7, #4]
 80014b8:	681b      	ldr	r3, [r3, #0]
 80014ba:	4618      	mov	r0, r3
 80014bc:	f003 f962 	bl	8004784 <USB_DisableGlobalInt>

  /* Init the Core (common init.) */
  (void)USB_CoreInit(hhcd->Instance, hhcd->Init);
 80014c0:	687b      	ldr	r3, [r7, #4]
 80014c2:	681b      	ldr	r3, [r3, #0]
 80014c4:	603b      	str	r3, [r7, #0]
 80014c6:	687e      	ldr	r6, [r7, #4]
 80014c8:	466d      	mov	r5, sp
 80014ca:	f106 0410 	add.w	r4, r6, #16
 80014ce:	cc0f      	ldmia	r4!, {r0, r1, r2, r3}
 80014d0:	c50f      	stmia	r5!, {r0, r1, r2, r3}
 80014d2:	cc0f      	ldmia	r4!, {r0, r1, r2, r3}
 80014d4:	c50f      	stmia	r5!, {r0, r1, r2, r3}
 80014d6:	e894 0003 	ldmia.w	r4, {r0, r1}
 80014da:	e885 0003 	stmia.w	r5, {r0, r1}
 80014de:	1d33      	adds	r3, r6, #4
 80014e0:	cb0e      	ldmia	r3, {r1, r2, r3}
 80014e2:	6838      	ldr	r0, [r7, #0]
 80014e4:	f003 f8dc 	bl	80046a0 <USB_CoreInit>

  /* Force Host Mode*/
  (void)USB_SetCurrentMode(hhcd->Instance, USB_HOST_MODE);
 80014e8:	687b      	ldr	r3, [r7, #4]
 80014ea:	681b      	ldr	r3, [r3, #0]
 80014ec:	2101      	movs	r1, #1
 80014ee:	4618      	mov	r0, r3
 80014f0:	f003 f959 	bl	80047a6 <USB_SetCurrentMode>

  /* Init Host */
  (void)USB_HostInit(hhcd->Instance, hhcd->Init);
 80014f4:	687b      	ldr	r3, [r7, #4]
 80014f6:	681b      	ldr	r3, [r3, #0]
 80014f8:	603b      	str	r3, [r7, #0]
 80014fa:	687e      	ldr	r6, [r7, #4]
 80014fc:	466d      	mov	r5, sp
 80014fe:	f106 0410 	add.w	r4, r6, #16
 8001502:	cc0f      	ldmia	r4!, {r0, r1, r2, r3}
 8001504:	c50f      	stmia	r5!, {r0, r1, r2, r3}
 8001506:	cc0f      	ldmia	r4!, {r0, r1, r2, r3}
 8001508:	c50f      	stmia	r5!, {r0, r1, r2, r3}
 800150a:	e894 0003 	ldmia.w	r4, {r0, r1}
 800150e:	e885 0003 	stmia.w	r5, {r0, r1}
 8001512:	1d33      	adds	r3, r6, #4
 8001514:	cb0e      	ldmia	r3, {r1, r2, r3}
 8001516:	6838      	ldr	r0, [r7, #0]
 8001518:	f003 fac0 	bl	8004a9c <USB_HostInit>

  hhcd->State = HAL_HCD_STATE_READY;
 800151c:	687b      	ldr	r3, [r7, #4]
 800151e:	2201      	movs	r2, #1
 8001520:	f883 22f9 	strb.w	r2, [r3, #761]	; 0x2f9

  return HAL_OK;
 8001524:	2300      	movs	r3, #0
}
 8001526:	4618      	mov	r0, r3
 8001528:	3714      	adds	r7, #20
 800152a:	46bd      	mov	sp, r7
 800152c:	bdf0      	pop	{r4, r5, r6, r7, pc}

0800152e <HAL_HCD_HC_Init>:
                                  uint8_t epnum,
                                  uint8_t dev_address,
                                  uint8_t speed,
                                  uint8_t ep_type,
                                  uint16_t mps)
{
 800152e:	b590      	push	{r4, r7, lr}
 8001530:	b089      	sub	sp, #36	; 0x24
 8001532:	af04      	add	r7, sp, #16
 8001534:	6078      	str	r0, [r7, #4]
 8001536:	4608      	mov	r0, r1
 8001538:	4611      	mov	r1, r2
 800153a:	461a      	mov	r2, r3
 800153c:	4603      	mov	r3, r0
 800153e:	70fb      	strb	r3, [r7, #3]
 8001540:	460b      	mov	r3, r1
 8001542:	70bb      	strb	r3, [r7, #2]
 8001544:	4613      	mov	r3, r2
 8001546:	707b      	strb	r3, [r7, #1]
  HAL_StatusTypeDef status;

  __HAL_LOCK(hhcd);
 8001548:	687b      	ldr	r3, [r7, #4]
 800154a:	f893 32f8 	ldrb.w	r3, [r3, #760]	; 0x2f8
 800154e:	2b01      	cmp	r3, #1
 8001550:	d101      	bne.n	8001556 <HAL_HCD_HC_Init+0x28>
 8001552:	2302      	movs	r3, #2
 8001554:	e076      	b.n	8001644 <HAL_HCD_HC_Init+0x116>
 8001556:	687b      	ldr	r3, [r7, #4]
 8001558:	2201      	movs	r2, #1
 800155a:	f883 22f8 	strb.w	r2, [r3, #760]	; 0x2f8
  hhcd->hc[ch_num].do_ping = 0U;
 800155e:	78fb      	ldrb	r3, [r7, #3]
 8001560:	687a      	ldr	r2, [r7, #4]
 8001562:	212c      	movs	r1, #44	; 0x2c
 8001564:	fb01 f303 	mul.w	r3, r1, r3
 8001568:	4413      	add	r3, r2
 800156a:	333d      	adds	r3, #61	; 0x3d
 800156c:	2200      	movs	r2, #0
 800156e:	701a      	strb	r2, [r3, #0]
  hhcd->hc[ch_num].dev_addr = dev_address;
 8001570:	78fb      	ldrb	r3, [r7, #3]
 8001572:	687a      	ldr	r2, [r7, #4]
 8001574:	212c      	movs	r1, #44	; 0x2c
 8001576:	fb01 f303 	mul.w	r3, r1, r3
 800157a:	4413      	add	r3, r2
 800157c:	3338      	adds	r3, #56	; 0x38
 800157e:	787a      	ldrb	r2, [r7, #1]
 8001580:	701a      	strb	r2, [r3, #0]
  hhcd->hc[ch_num].max_packet = mps;
 8001582:	78fb      	ldrb	r3, [r7, #3]
 8001584:	687a      	ldr	r2, [r7, #4]
 8001586:	212c      	movs	r1, #44	; 0x2c
 8001588:	fb01 f303 	mul.w	r3, r1, r3
 800158c:	4413      	add	r3, r2
 800158e:	3340      	adds	r3, #64	; 0x40
 8001590:	8d3a      	ldrh	r2, [r7, #40]	; 0x28
 8001592:	801a      	strh	r2, [r3, #0]
  hhcd->hc[ch_num].ch_num = ch_num;
 8001594:	78fb      	ldrb	r3, [r7, #3]
 8001596:	687a      	ldr	r2, [r7, #4]
 8001598:	212c      	movs	r1, #44	; 0x2c
 800159a:	fb01 f303 	mul.w	r3, r1, r3
 800159e:	4413      	add	r3, r2
 80015a0:	3339      	adds	r3, #57	; 0x39
 80015a2:	78fa      	ldrb	r2, [r7, #3]
 80015a4:	701a      	strb	r2, [r3, #0]
  hhcd->hc[ch_num].ep_type = ep_type;
 80015a6:	78fb      	ldrb	r3, [r7, #3]
 80015a8:	687a      	ldr	r2, [r7, #4]
 80015aa:	212c      	movs	r1, #44	; 0x2c
 80015ac:	fb01 f303 	mul.w	r3, r1, r3
 80015b0:	4413      	add	r3, r2
 80015b2:	333f      	adds	r3, #63	; 0x3f
 80015b4:	f897 2024 	ldrb.w	r2, [r7, #36]	; 0x24
 80015b8:	701a      	strb	r2, [r3, #0]
  hhcd->hc[ch_num].ep_num = epnum & 0x7FU;
 80015ba:	78fb      	ldrb	r3, [r7, #3]
 80015bc:	78ba      	ldrb	r2, [r7, #2]
 80015be:	f002 027f 	and.w	r2, r2, #127	; 0x7f
 80015c2:	b2d0      	uxtb	r0, r2
 80015c4:	687a      	ldr	r2, [r7, #4]
 80015c6:	212c      	movs	r1, #44	; 0x2c
 80015c8:	fb01 f303 	mul.w	r3, r1, r3
 80015cc:	4413      	add	r3, r2
 80015ce:	333a      	adds	r3, #58	; 0x3a
 80015d0:	4602      	mov	r2, r0
 80015d2:	701a      	strb	r2, [r3, #0]

  if ((epnum & 0x80U) == 0x80U)
 80015d4:	f997 3002 	ldrsb.w	r3, [r7, #2]
 80015d8:	2b00      	cmp	r3, #0
 80015da:	da09      	bge.n	80015f0 <HAL_HCD_HC_Init+0xc2>
  {
    hhcd->hc[ch_num].ep_is_in = 1U;
 80015dc:	78fb      	ldrb	r3, [r7, #3]
 80015de:	687a      	ldr	r2, [r7, #4]
 80015e0:	212c      	movs	r1, #44	; 0x2c
 80015e2:	fb01 f303 	mul.w	r3, r1, r3
 80015e6:	4413      	add	r3, r2
 80015e8:	333b      	adds	r3, #59	; 0x3b
 80015ea:	2201      	movs	r2, #1
 80015ec:	701a      	strb	r2, [r3, #0]
 80015ee:	e008      	b.n	8001602 <HAL_HCD_HC_Init+0xd4>
  }
  else
  {
    hhcd->hc[ch_num].ep_is_in = 0U;
 80015f0:	78fb      	ldrb	r3, [r7, #3]
 80015f2:	687a      	ldr	r2, [r7, #4]
 80015f4:	212c      	movs	r1, #44	; 0x2c
 80015f6:	fb01 f303 	mul.w	r3, r1, r3
 80015fa:	4413      	add	r3, r2
 80015fc:	333b      	adds	r3, #59	; 0x3b
 80015fe:	2200      	movs	r2, #0
 8001600:	701a      	strb	r2, [r3, #0]
  }

  hhcd->hc[ch_num].speed = speed;
 8001602:	78fb      	ldrb	r3, [r7, #3]
 8001604:	687a      	ldr	r2, [r7, #4]
 8001606:	212c      	movs	r1, #44	; 0x2c
 8001608:	fb01 f303 	mul.w	r3, r1, r3
 800160c:	4413      	add	r3, r2
 800160e:	333c      	adds	r3, #60	; 0x3c
 8001610:	f897 2020 	ldrb.w	r2, [r7, #32]
 8001614:	701a      	strb	r2, [r3, #0]

  status =  USB_HC_Init(hhcd->Instance,
 8001616:	687b      	ldr	r3, [r7, #4]
 8001618:	6818      	ldr	r0, [r3, #0]
 800161a:	787c      	ldrb	r4, [r7, #1]
 800161c:	78ba      	ldrb	r2, [r7, #2]
 800161e:	78f9      	ldrb	r1, [r7, #3]
 8001620:	8d3b      	ldrh	r3, [r7, #40]	; 0x28
 8001622:	9302      	str	r3, [sp, #8]
 8001624:	f897 3024 	ldrb.w	r3, [r7, #36]	; 0x24
 8001628:	9301      	str	r3, [sp, #4]
 800162a:	f897 3020 	ldrb.w	r3, [r7, #32]
 800162e:	9300      	str	r3, [sp, #0]
 8001630:	4623      	mov	r3, r4
 8001632:	f003 fba1 	bl	8004d78 <USB_HC_Init>
 8001636:	4603      	mov	r3, r0
 8001638:	73fb      	strb	r3, [r7, #15]
                        epnum,
                        dev_address,
                        speed,
                        ep_type,
                        mps);
  __HAL_UNLOCK(hhcd);
 800163a:	687b      	ldr	r3, [r7, #4]
 800163c:	2200      	movs	r2, #0
 800163e:	f883 22f8 	strb.w	r2, [r3, #760]	; 0x2f8

  return status;
 8001642:	7bfb      	ldrb	r3, [r7, #15]
}
 8001644:	4618      	mov	r0, r3
 8001646:	3714      	adds	r7, #20
 8001648:	46bd      	mov	sp, r7
 800164a:	bd90      	pop	{r4, r7, pc}

0800164c <HAL_HCD_HC_Halt>:
  * @param  ch_num Channel number.
  *         This parameter can be a value from 1 to 15
  * @retval HAL status
  */
HAL_StatusTypeDef HAL_HCD_HC_Halt(HCD_HandleTypeDef *hhcd, uint8_t ch_num)
{
 800164c:	b580      	push	{r7, lr}
 800164e:	b084      	sub	sp, #16
 8001650:	af00      	add	r7, sp, #0
 8001652:	6078      	str	r0, [r7, #4]
 8001654:	460b      	mov	r3, r1
 8001656:	70fb      	strb	r3, [r7, #3]
  HAL_StatusTypeDef status = HAL_OK;
 8001658:	2300      	movs	r3, #0
 800165a:	73fb      	strb	r3, [r7, #15]

  __HAL_LOCK(hhcd);
 800165c:	687b      	ldr	r3, [r7, #4]
 800165e:	f893 32f8 	ldrb.w	r3, [r3, #760]	; 0x2f8
 8001662:	2b01      	cmp	r3, #1
 8001664:	d101      	bne.n	800166a <HAL_HCD_HC_Halt+0x1e>
 8001666:	2302      	movs	r3, #2
 8001668:	e00f      	b.n	800168a <HAL_HCD_HC_Halt+0x3e>
 800166a:	687b      	ldr	r3, [r7, #4]
 800166c:	2201      	movs	r2, #1
 800166e:	f883 22f8 	strb.w	r2, [r3, #760]	; 0x2f8
  (void)USB_HC_Halt(hhcd->Instance, (uint8_t)ch_num);
 8001672:	687b      	ldr	r3, [r7, #4]
 8001674:	681b      	ldr	r3, [r3, #0]
 8001676:	78fa      	ldrb	r2, [r7, #3]
 8001678:	4611      	mov	r1, r2
 800167a:	4618      	mov	r0, r3
 800167c:	f003 fddd 	bl	800523a <USB_HC_Halt>
  __HAL_UNLOCK(hhcd);
 8001680:	687b      	ldr	r3, [r7, #4]
 8001682:	2200      	movs	r2, #0
 8001684:	f883 22f8 	strb.w	r2, [r3, #760]	; 0x2f8

  return status;
 8001688:	7bfb      	ldrb	r3, [r7, #15]
}
 800168a:	4618      	mov	r0, r3
 800168c:	3710      	adds	r7, #16
 800168e:	46bd      	mov	sp, r7
 8001690:	bd80      	pop	{r7, pc}
	...

08001694 <HAL_HCD_HC_SubmitRequest>:
                                           uint8_t ep_type,
                                           uint8_t token,
                                           uint8_t *pbuff,
                                           uint16_t length,
                                           uint8_t do_ping)
{
 8001694:	b580      	push	{r7, lr}
 8001696:	b082      	sub	sp, #8
 8001698:	af00      	add	r7, sp, #0
 800169a:	6078      	str	r0, [r7, #4]
 800169c:	4608      	mov	r0, r1
 800169e:	4611      	mov	r1, r2
 80016a0:	461a      	mov	r2, r3
 80016a2:	4603      	mov	r3, r0
 80016a4:	70fb      	strb	r3, [r7, #3]
 80016a6:	460b      	mov	r3, r1
 80016a8:	70bb      	strb	r3, [r7, #2]
 80016aa:	4613      	mov	r3, r2
 80016ac:	707b      	strb	r3, [r7, #1]
  hhcd->hc[ch_num].ep_is_in = direction;
 80016ae:	78fb      	ldrb	r3, [r7, #3]
 80016b0:	687a      	ldr	r2, [r7, #4]
 80016b2:	212c      	movs	r1, #44	; 0x2c
 80016b4:	fb01 f303 	mul.w	r3, r1, r3
 80016b8:	4413      	add	r3, r2
 80016ba:	333b      	adds	r3, #59	; 0x3b
 80016bc:	78ba      	ldrb	r2, [r7, #2]
 80016be:	701a      	strb	r2, [r3, #0]
  hhcd->hc[ch_num].ep_type  = ep_type;
 80016c0:	78fb      	ldrb	r3, [r7, #3]
 80016c2:	687a      	ldr	r2, [r7, #4]
 80016c4:	212c      	movs	r1, #44	; 0x2c
 80016c6:	fb01 f303 	mul.w	r3, r1, r3
 80016ca:	4413      	add	r3, r2
 80016cc:	333f      	adds	r3, #63	; 0x3f
 80016ce:	787a      	ldrb	r2, [r7, #1]
 80016d0:	701a      	strb	r2, [r3, #0]

  if (token == 0U)
 80016d2:	7c3b      	ldrb	r3, [r7, #16]
 80016d4:	2b00      	cmp	r3, #0
 80016d6:	d112      	bne.n	80016fe <HAL_HCD_HC_SubmitRequest+0x6a>
  {
    hhcd->hc[ch_num].data_pid = HC_PID_SETUP;
 80016d8:	78fb      	ldrb	r3, [r7, #3]
 80016da:	687a      	ldr	r2, [r7, #4]
 80016dc:	212c      	movs	r1, #44	; 0x2c
 80016de:	fb01 f303 	mul.w	r3, r1, r3
 80016e2:	4413      	add	r3, r2
 80016e4:	3342      	adds	r3, #66	; 0x42
 80016e6:	2203      	movs	r2, #3
 80016e8:	701a      	strb	r2, [r3, #0]
    hhcd->hc[ch_num].do_ping = do_ping;
 80016ea:	78fb      	ldrb	r3, [r7, #3]
 80016ec:	687a      	ldr	r2, [r7, #4]
 80016ee:	212c      	movs	r1, #44	; 0x2c
 80016f0:	fb01 f303 	mul.w	r3, r1, r3
 80016f4:	4413      	add	r3, r2
 80016f6:	333d      	adds	r3, #61	; 0x3d
 80016f8:	7f3a      	ldrb	r2, [r7, #28]
 80016fa:	701a      	strb	r2, [r3, #0]
 80016fc:	e008      	b.n	8001710 <HAL_HCD_HC_SubmitRequest+0x7c>
  }
  else
  {
    hhcd->hc[ch_num].data_pid = HC_PID_DATA1;
 80016fe:	78fb      	ldrb	r3, [r7, #3]
 8001700:	687a      	ldr	r2, [r7, #4]
 8001702:	212c      	movs	r1, #44	; 0x2c
 8001704:	fb01 f303 	mul.w	r3, r1, r3
 8001708:	4413      	add	r3, r2
 800170a:	3342      	adds	r3, #66	; 0x42
 800170c:	2202      	movs	r2, #2
 800170e:	701a      	strb	r2, [r3, #0]
  }

  /* Manage Data Toggle */
  switch (ep_type)
 8001710:	787b      	ldrb	r3, [r7, #1]
 8001712:	2b03      	cmp	r3, #3
 8001714:	f200 80c6 	bhi.w	80018a4 <HAL_HCD_HC_SubmitRequest+0x210>
 8001718:	a201      	add	r2, pc, #4	; (adr r2, 8001720 <HAL_HCD_HC_SubmitRequest+0x8c>)
 800171a:	f852 f023 	ldr.w	pc, [r2, r3, lsl #2]
 800171e:	bf00      	nop
 8001720:	08001731 	.word	0x08001731
 8001724:	08001891 	.word	0x08001891
 8001728:	08001795 	.word	0x08001795
 800172c:	08001813 	.word	0x08001813
  {
    case EP_TYPE_CTRL:
      if ((token == 1U) && (direction == 0U)) /*send data */
 8001730:	7c3b      	ldrb	r3, [r7, #16]
 8001732:	2b01      	cmp	r3, #1
 8001734:	f040 80b8 	bne.w	80018a8 <HAL_HCD_HC_SubmitRequest+0x214>
 8001738:	78bb      	ldrb	r3, [r7, #2]
 800173a:	2b00      	cmp	r3, #0
 800173c:	f040 80b4 	bne.w	80018a8 <HAL_HCD_HC_SubmitRequest+0x214>
      {
        if (length == 0U)
 8001740:	8b3b      	ldrh	r3, [r7, #24]
 8001742:	2b00      	cmp	r3, #0
 8001744:	d108      	bne.n	8001758 <HAL_HCD_HC_SubmitRequest+0xc4>
        {
          /* For Status OUT stage, Length==0, Status Out PID = 1 */
          hhcd->hc[ch_num].toggle_out = 1U;
 8001746:	78fb      	ldrb	r3, [r7, #3]
 8001748:	687a      	ldr	r2, [r7, #4]
 800174a:	212c      	movs	r1, #44	; 0x2c
 800174c:	fb01 f303 	mul.w	r3, r1, r3
 8001750:	4413      	add	r3, r2
 8001752:	3355      	adds	r3, #85	; 0x55
 8001754:	2201      	movs	r2, #1
 8001756:	701a      	strb	r2, [r3, #0]
        }

        /* Set the Data Toggle bit as per the Flag */
        if (hhcd->hc[ch_num].toggle_out == 0U)
 8001758:	78fb      	ldrb	r3, [r7, #3]
 800175a:	687a      	ldr	r2, [r7, #4]
 800175c:	212c      	movs	r1, #44	; 0x2c
 800175e:	fb01 f303 	mul.w	r3, r1, r3
 8001762:	4413      	add	r3, r2
 8001764:	3355      	adds	r3, #85	; 0x55
 8001766:	781b      	ldrb	r3, [r3, #0]
 8001768:	2b00      	cmp	r3, #0
 800176a:	d109      	bne.n	8001780 <HAL_HCD_HC_SubmitRequest+0xec>
        {
          /* Put the PID 0 */
          hhcd->hc[ch_num].data_pid = HC_PID_DATA0;
 800176c:	78fb      	ldrb	r3, [r7, #3]
 800176e:	687a      	ldr	r2, [r7, #4]
 8001770:	212c      	movs	r1, #44	; 0x2c
 8001772:	fb01 f303 	mul.w	r3, r1, r3
 8001776:	4413      	add	r3, r2
 8001778:	3342      	adds	r3, #66	; 0x42
 800177a:	2200      	movs	r2, #0
 800177c:	701a      	strb	r2, [r3, #0]
        {
          /* Put the PID 1 */
          hhcd->hc[ch_num].data_pid = HC_PID_DATA1;
        }
      }
      break;
 800177e:	e093      	b.n	80018a8 <HAL_HCD_HC_SubmitRequest+0x214>
          hhcd->hc[ch_num].data_pid = HC_PID_DATA1;
 8001780:	78fb      	ldrb	r3, [r7, #3]
 8001782:	687a      	ldr	r2, [r7, #4]
 8001784:	212c      	movs	r1, #44	; 0x2c
 8001786:	fb01 f303 	mul.w	r3, r1, r3
 800178a:	4413      	add	r3, r2
 800178c:	3342      	adds	r3, #66	; 0x42
 800178e:	2202      	movs	r2, #2
 8001790:	701a      	strb	r2, [r3, #0]
      break;
 8001792:	e089      	b.n	80018a8 <HAL_HCD_HC_SubmitRequest+0x214>

    case EP_TYPE_BULK:
      if (direction == 0U)
 8001794:	78bb      	ldrb	r3, [r7, #2]
 8001796:	2b00      	cmp	r3, #0
 8001798:	d11d      	bne.n	80017d6 <HAL_HCD_HC_SubmitRequest+0x142>
      {
        /* Set the Data Toggle bit as per the Flag */
        if (hhcd->hc[ch_num].toggle_out == 0U)
 800179a:	78fb      	ldrb	r3, [r7, #3]
 800179c:	687a      	ldr	r2, [r7, #4]
 800179e:	212c      	movs	r1, #44	; 0x2c
 80017a0:	fb01 f303 	mul.w	r3, r1, r3
 80017a4:	4413      	add	r3, r2
 80017a6:	3355      	adds	r3, #85	; 0x55
 80017a8:	781b      	ldrb	r3, [r3, #0]
 80017aa:	2b00      	cmp	r3, #0
 80017ac:	d109      	bne.n	80017c2 <HAL_HCD_HC_SubmitRequest+0x12e>
        {
          /* Put the PID 0 */
          hhcd->hc[ch_num].data_pid = HC_PID_DATA0;
 80017ae:	78fb      	ldrb	r3, [r7, #3]
 80017b0:	687a      	ldr	r2, [r7, #4]
 80017b2:	212c      	movs	r1, #44	; 0x2c
 80017b4:	fb01 f303 	mul.w	r3, r1, r3
 80017b8:	4413      	add	r3, r2
 80017ba:	3342      	adds	r3, #66	; 0x42
 80017bc:	2200      	movs	r2, #0
 80017be:	701a      	strb	r2, [r3, #0]
        {
          hhcd->hc[ch_num].data_pid = HC_PID_DATA1;
        }
      }

      break;
 80017c0:	e073      	b.n	80018aa <HAL_HCD_HC_SubmitRequest+0x216>
          hhcd->hc[ch_num].data_pid = HC_PID_DATA1;
 80017c2:	78fb      	ldrb	r3, [r7, #3]
 80017c4:	687a      	ldr	r2, [r7, #4]
 80017c6:	212c      	movs	r1, #44	; 0x2c
 80017c8:	fb01 f303 	mul.w	r3, r1, r3
 80017cc:	4413      	add	r3, r2
 80017ce:	3342      	adds	r3, #66	; 0x42
 80017d0:	2202      	movs	r2, #2
 80017d2:	701a      	strb	r2, [r3, #0]
      break;
 80017d4:	e069      	b.n	80018aa <HAL_HCD_HC_SubmitRequest+0x216>
        if (hhcd->hc[ch_num].toggle_in == 0U)
 80017d6:	78fb      	ldrb	r3, [r7, #3]
 80017d8:	687a      	ldr	r2, [r7, #4]
 80017da:	212c      	movs	r1, #44	; 0x2c
 80017dc:	fb01 f303 	mul.w	r3, r1, r3
 80017e0:	4413      	add	r3, r2
 80017e2:	3354      	adds	r3, #84	; 0x54
 80017e4:	781b      	ldrb	r3, [r3, #0]
 80017e6:	2b00      	cmp	r3, #0
 80017e8:	d109      	bne.n	80017fe <HAL_HCD_HC_SubmitRequest+0x16a>
          hhcd->hc[ch_num].data_pid = HC_PID_DATA0;
 80017ea:	78fb      	ldrb	r3, [r7, #3]
 80017ec:	687a      	ldr	r2, [r7, #4]
 80017ee:	212c      	movs	r1, #44	; 0x2c
 80017f0:	fb01 f303 	mul.w	r3, r1, r3
 80017f4:	4413      	add	r3, r2
 80017f6:	3342      	adds	r3, #66	; 0x42
 80017f8:	2200      	movs	r2, #0
 80017fa:	701a      	strb	r2, [r3, #0]
      break;
 80017fc:	e055      	b.n	80018aa <HAL_HCD_HC_SubmitRequest+0x216>
          hhcd->hc[ch_num].data_pid = HC_PID_DATA1;
 80017fe:	78fb      	ldrb	r3, [r7, #3]
 8001800:	687a      	ldr	r2, [r7, #4]
 8001802:	212c      	movs	r1, #44	; 0x2c
 8001804:	fb01 f303 	mul.w	r3, r1, r3
 8001808:	4413      	add	r3, r2
 800180a:	3342      	adds	r3, #66	; 0x42
 800180c:	2202      	movs	r2, #2
 800180e:	701a      	strb	r2, [r3, #0]
      break;
 8001810:	e04b      	b.n	80018aa <HAL_HCD_HC_SubmitRequest+0x216>
    case EP_TYPE_INTR:
      if (direction == 0U)
 8001812:	78bb      	ldrb	r3, [r7, #2]
 8001814:	2b00      	cmp	r3, #0
 8001816:	d11d      	bne.n	8001854 <HAL_HCD_HC_SubmitRequest+0x1c0>
      {
        /* Set the Data Toggle bit as per the Flag */
        if (hhcd->hc[ch_num].toggle_out == 0U)
 8001818:	78fb      	ldrb	r3, [r7, #3]
 800181a:	687a      	ldr	r2, [r7, #4]
 800181c:	212c      	movs	r1, #44	; 0x2c
 800181e:	fb01 f303 	mul.w	r3, r1, r3
 8001822:	4413      	add	r3, r2
 8001824:	3355      	adds	r3, #85	; 0x55
 8001826:	781b      	ldrb	r3, [r3, #0]
 8001828:	2b00      	cmp	r3, #0
 800182a:	d109      	bne.n	8001840 <HAL_HCD_HC_SubmitRequest+0x1ac>
        {
          /* Put the PID 0 */
          hhcd->hc[ch_num].data_pid = HC_PID_DATA0;
 800182c:	78fb      	ldrb	r3, [r7, #3]
 800182e:	687a      	ldr	r2, [r7, #4]
 8001830:	212c      	movs	r1, #44	; 0x2c
 8001832:	fb01 f303 	mul.w	r3, r1, r3
 8001836:	4413      	add	r3, r2
 8001838:	3342      	adds	r3, #66	; 0x42
 800183a:	2200      	movs	r2, #0
 800183c:	701a      	strb	r2, [r3, #0]
        else
        {
          hhcd->hc[ch_num].data_pid = HC_PID_DATA1;
        }
      }
      break;
 800183e:	e034      	b.n	80018aa <HAL_HCD_HC_SubmitRequest+0x216>
          hhcd->hc[ch_num].data_pid = HC_PID_DATA1;
 8001840:	78fb      	ldrb	r3, [r7, #3]
 8001842:	687a      	ldr	r2, [r7, #4]
 8001844:	212c      	movs	r1, #44	; 0x2c
 8001846:	fb01 f303 	mul.w	r3, r1, r3
 800184a:	4413      	add	r3, r2
 800184c:	3342      	adds	r3, #66	; 0x42
 800184e:	2202      	movs	r2, #2
 8001850:	701a      	strb	r2, [r3, #0]
      break;
 8001852:	e02a      	b.n	80018aa <HAL_HCD_HC_SubmitRequest+0x216>
        if (hhcd->hc[ch_num].toggle_in == 0U)
 8001854:	78fb      	ldrb	r3, [r7, #3]
 8001856:	687a      	ldr	r2, [r7, #4]
 8001858:	212c      	movs	r1, #44	; 0x2c
 800185a:	fb01 f303 	mul.w	r3, r1, r3
 800185e:	4413      	add	r3, r2
 8001860:	3354      	adds	r3, #84	; 0x54
 8001862:	781b      	ldrb	r3, [r3, #0]
 8001864:	2b00      	cmp	r3, #0
 8001866:	d109      	bne.n	800187c <HAL_HCD_HC_SubmitRequest+0x1e8>
          hhcd->hc[ch_num].data_pid = HC_PID_DATA0;
 8001868:	78fb      	ldrb	r3, [r7, #3]
 800186a:	687a      	ldr	r2, [r7, #4]
 800186c:	212c      	movs	r1, #44	; 0x2c
 800186e:	fb01 f303 	mul.w	r3, r1, r3
 8001872:	4413      	add	r3, r2
 8001874:	3342      	adds	r3, #66	; 0x42
 8001876:	2200      	movs	r2, #0
 8001878:	701a      	strb	r2, [r3, #0]
      break;
 800187a:	e016      	b.n	80018aa <HAL_HCD_HC_SubmitRequest+0x216>
          hhcd->hc[ch_num].data_pid = HC_PID_DATA1;
 800187c:	78fb      	ldrb	r3, [r7, #3]
 800187e:	687a      	ldr	r2, [r7, #4]
 8001880:	212c      	movs	r1, #44	; 0x2c
 8001882:	fb01 f303 	mul.w	r3, r1, r3
 8001886:	4413      	add	r3, r2
 8001888:	3342      	adds	r3, #66	; 0x42
 800188a:	2202      	movs	r2, #2
 800188c:	701a      	strb	r2, [r3, #0]
      break;
 800188e:	e00c      	b.n	80018aa <HAL_HCD_HC_SubmitRequest+0x216>

    case EP_TYPE_ISOC:
      hhcd->hc[ch_num].data_pid = HC_PID_DATA0;
 8001890:	78fb      	ldrb	r3, [r7, #3]
 8001892:	687a      	ldr	r2, [r7, #4]
 8001894:	212c      	movs	r1, #44	; 0x2c
 8001896:	fb01 f303 	mul.w	r3, r1, r3
 800189a:	4413      	add	r3, r2
 800189c:	3342      	adds	r3, #66	; 0x42
 800189e:	2200      	movs	r2, #0
 80018a0:	701a      	strb	r2, [r3, #0]
      break;
 80018a2:	e002      	b.n	80018aa <HAL_HCD_HC_SubmitRequest+0x216>

    default:
      break;
 80018a4:	bf00      	nop
 80018a6:	e000      	b.n	80018aa <HAL_HCD_HC_SubmitRequest+0x216>
      break;
 80018a8:	bf00      	nop
  }

  hhcd->hc[ch_num].xfer_buff = pbuff;
 80018aa:	78fb      	ldrb	r3, [r7, #3]
 80018ac:	687a      	ldr	r2, [r7, #4]
 80018ae:	212c      	movs	r1, #44	; 0x2c
 80018b0:	fb01 f303 	mul.w	r3, r1, r3
 80018b4:	4413      	add	r3, r2
 80018b6:	3344      	adds	r3, #68	; 0x44
 80018b8:	697a      	ldr	r2, [r7, #20]
 80018ba:	601a      	str	r2, [r3, #0]
  hhcd->hc[ch_num].xfer_len  = length;
 80018bc:	78fb      	ldrb	r3, [r7, #3]
 80018be:	8b3a      	ldrh	r2, [r7, #24]
 80018c0:	6879      	ldr	r1, [r7, #4]
 80018c2:	202c      	movs	r0, #44	; 0x2c
 80018c4:	fb00 f303 	mul.w	r3, r0, r3
 80018c8:	440b      	add	r3, r1
 80018ca:	334c      	adds	r3, #76	; 0x4c
 80018cc:	601a      	str	r2, [r3, #0]
  hhcd->hc[ch_num].urb_state = URB_IDLE;
 80018ce:	78fb      	ldrb	r3, [r7, #3]
 80018d0:	687a      	ldr	r2, [r7, #4]
 80018d2:	212c      	movs	r1, #44	; 0x2c
 80018d4:	fb01 f303 	mul.w	r3, r1, r3
 80018d8:	4413      	add	r3, r2
 80018da:	3360      	adds	r3, #96	; 0x60
 80018dc:	2200      	movs	r2, #0
 80018de:	701a      	strb	r2, [r3, #0]
  hhcd->hc[ch_num].xfer_count = 0U;
 80018e0:	78fb      	ldrb	r3, [r7, #3]
 80018e2:	687a      	ldr	r2, [r7, #4]
 80018e4:	212c      	movs	r1, #44	; 0x2c
 80018e6:	fb01 f303 	mul.w	r3, r1, r3
 80018ea:	4413      	add	r3, r2
 80018ec:	3350      	adds	r3, #80	; 0x50
 80018ee:	2200      	movs	r2, #0
 80018f0:	601a      	str	r2, [r3, #0]
  hhcd->hc[ch_num].ch_num = ch_num;
 80018f2:	78fb      	ldrb	r3, [r7, #3]
 80018f4:	687a      	ldr	r2, [r7, #4]
 80018f6:	212c      	movs	r1, #44	; 0x2c
 80018f8:	fb01 f303 	mul.w	r3, r1, r3
 80018fc:	4413      	add	r3, r2
 80018fe:	3339      	adds	r3, #57	; 0x39
 8001900:	78fa      	ldrb	r2, [r7, #3]
 8001902:	701a      	strb	r2, [r3, #0]
  hhcd->hc[ch_num].state = HC_IDLE;
 8001904:	78fb      	ldrb	r3, [r7, #3]
 8001906:	687a      	ldr	r2, [r7, #4]
 8001908:	212c      	movs	r1, #44	; 0x2c
 800190a:	fb01 f303 	mul.w	r3, r1, r3
 800190e:	4413      	add	r3, r2
 8001910:	3361      	adds	r3, #97	; 0x61
 8001912:	2200      	movs	r2, #0
 8001914:	701a      	strb	r2, [r3, #0]

  return USB_HC_StartXfer(hhcd->Instance, &hhcd->hc[ch_num], (uint8_t)hhcd->Init.dma_enable);
 8001916:	687b      	ldr	r3, [r7, #4]
 8001918:	6818      	ldr	r0, [r3, #0]
 800191a:	78fb      	ldrb	r3, [r7, #3]
 800191c:	222c      	movs	r2, #44	; 0x2c
 800191e:	fb02 f303 	mul.w	r3, r2, r3
 8001922:	3338      	adds	r3, #56	; 0x38
 8001924:	687a      	ldr	r2, [r7, #4]
 8001926:	18d1      	adds	r1, r2, r3
 8001928:	687b      	ldr	r3, [r7, #4]
 800192a:	691b      	ldr	r3, [r3, #16]
 800192c:	b2db      	uxtb	r3, r3
 800192e:	461a      	mov	r2, r3
 8001930:	f003 fb30 	bl	8004f94 <USB_HC_StartXfer>
 8001934:	4603      	mov	r3, r0
}
 8001936:	4618      	mov	r0, r3
 8001938:	3708      	adds	r7, #8
 800193a:	46bd      	mov	sp, r7
 800193c:	bd80      	pop	{r7, pc}
 800193e:	bf00      	nop

08001940 <HAL_HCD_IRQHandler>:
  * @brief  Handle HCD interrupt request.
  * @param  hhcd HCD handle
  * @retval None
  */
void HAL_HCD_IRQHandler(HCD_HandleTypeDef *hhcd)
{
 8001940:	b580      	push	{r7, lr}
 8001942:	b086      	sub	sp, #24
 8001944:	af00      	add	r7, sp, #0
 8001946:	6078      	str	r0, [r7, #4]
  USB_OTG_GlobalTypeDef *USBx = hhcd->Instance;
 8001948:	687b      	ldr	r3, [r7, #4]
 800194a:	681b      	ldr	r3, [r3, #0]
 800194c:	613b      	str	r3, [r7, #16]
  uint32_t USBx_BASE = (uint32_t)USBx;
 800194e:	693b      	ldr	r3, [r7, #16]
 8001950:	60fb      	str	r3, [r7, #12]
  uint32_t i;
  uint32_t interrupt;

  /* Ensure that we are in device mode */
  if (USB_GetMode(hhcd->Instance) == USB_OTG_MODE_HOST)
 8001952:	687b      	ldr	r3, [r7, #4]
 8001954:	681b      	ldr	r3, [r3, #0]
 8001956:	4618      	mov	r0, r3
 8001958:	f003 f85f 	bl	8004a1a <USB_GetMode>
 800195c:	4603      	mov	r3, r0
 800195e:	2b01      	cmp	r3, #1
 8001960:	f040 80f6 	bne.w	8001b50 <HAL_HCD_IRQHandler+0x210>
  {
    /* Avoid spurious interrupt */
    if (__HAL_HCD_IS_INVALID_INTERRUPT(hhcd))
 8001964:	687b      	ldr	r3, [r7, #4]
 8001966:	681b      	ldr	r3, [r3, #0]
 8001968:	4618      	mov	r0, r3
 800196a:	f003 f843 	bl	80049f4 <USB_ReadInterrupts>
 800196e:	4603      	mov	r3, r0
 8001970:	2b00      	cmp	r3, #0
 8001972:	f000 80ec 	beq.w	8001b4e <HAL_HCD_IRQHandler+0x20e>
    {
      return;
    }

    if (__HAL_HCD_GET_FLAG(hhcd, USB_OTG_GINTSTS_PXFR_INCOMPISOOUT))
 8001976:	687b      	ldr	r3, [r7, #4]
 8001978:	681b      	ldr	r3, [r3, #0]
 800197a:	4618      	mov	r0, r3
 800197c:	f003 f83a 	bl	80049f4 <USB_ReadInterrupts>
 8001980:	4603      	mov	r3, r0
 8001982:	f403 1300 	and.w	r3, r3, #2097152	; 0x200000
 8001986:	f5b3 1f00 	cmp.w	r3, #2097152	; 0x200000
 800198a:	d104      	bne.n	8001996 <HAL_HCD_IRQHandler+0x56>
    {
      /* Incorrect mode, acknowledge the interrupt */
      __HAL_HCD_CLEAR_FLAG(hhcd, USB_OTG_GINTSTS_PXFR_INCOMPISOOUT);
 800198c:	687b      	ldr	r3, [r7, #4]
 800198e:	681b      	ldr	r3, [r3, #0]
 8001990:	f44f 1200 	mov.w	r2, #2097152	; 0x200000
 8001994:	615a      	str	r2, [r3, #20]
    }

    if (__HAL_HCD_GET_FLAG(hhcd, USB_OTG_GINTSTS_IISOIXFR))
 8001996:	687b      	ldr	r3, [r7, #4]
 8001998:	681b      	ldr	r3, [r3, #0]
 800199a:	4618      	mov	r0, r3
 800199c:	f003 f82a 	bl	80049f4 <USB_ReadInterrupts>
 80019a0:	4603      	mov	r3, r0
 80019a2:	f403 1380 	and.w	r3, r3, #1048576	; 0x100000
 80019a6:	f5b3 1f80 	cmp.w	r3, #1048576	; 0x100000
 80019aa:	d104      	bne.n	80019b6 <HAL_HCD_IRQHandler+0x76>
    {
      /* Incorrect mode, acknowledge the interrupt */
      __HAL_HCD_CLEAR_FLAG(hhcd, USB_OTG_GINTSTS_IISOIXFR);
 80019ac:	687b      	ldr	r3, [r7, #4]
 80019ae:	681b      	ldr	r3, [r3, #0]
 80019b0:	f44f 1280 	mov.w	r2, #1048576	; 0x100000
 80019b4:	615a      	str	r2, [r3, #20]
    }

    if (__HAL_HCD_GET_FLAG(hhcd, USB_OTG_GINTSTS_PTXFE))
 80019b6:	687b      	ldr	r3, [r7, #4]
 80019b8:	681b      	ldr	r3, [r3, #0]
 80019ba:	4618      	mov	r0, r3
 80019bc:	f003 f81a 	bl	80049f4 <USB_ReadInterrupts>
 80019c0:	4603      	mov	r3, r0
 80019c2:	f003 6380 	and.w	r3, r3, #67108864	; 0x4000000
 80019c6:	f1b3 6f80 	cmp.w	r3, #67108864	; 0x4000000
 80019ca:	d104      	bne.n	80019d6 <HAL_HCD_IRQHandler+0x96>
    {
      /* Incorrect mode, acknowledge the interrupt */
      __HAL_HCD_CLEAR_FLAG(hhcd, USB_OTG_GINTSTS_PTXFE);
 80019cc:	687b      	ldr	r3, [r7, #4]
 80019ce:	681b      	ldr	r3, [r3, #0]
 80019d0:	f04f 6280 	mov.w	r2, #67108864	; 0x4000000
 80019d4:	615a      	str	r2, [r3, #20]
    }

    if (__HAL_HCD_GET_FLAG(hhcd, USB_OTG_GINTSTS_MMIS))
 80019d6:	687b      	ldr	r3, [r7, #4]
 80019d8:	681b      	ldr	r3, [r3, #0]
 80019da:	4618      	mov	r0, r3
 80019dc:	f003 f80a 	bl	80049f4 <USB_ReadInterrupts>
 80019e0:	4603      	mov	r3, r0
 80019e2:	f003 0302 	and.w	r3, r3, #2
 80019e6:	2b02      	cmp	r3, #2
 80019e8:	d103      	bne.n	80019f2 <HAL_HCD_IRQHandler+0xb2>
    {
      /* Incorrect mode, acknowledge the interrupt */
      __HAL_HCD_CLEAR_FLAG(hhcd, USB_OTG_GINTSTS_MMIS);
 80019ea:	687b      	ldr	r3, [r7, #4]
 80019ec:	681b      	ldr	r3, [r3, #0]
 80019ee:	2202      	movs	r2, #2
 80019f0:	615a      	str	r2, [r3, #20]
    }

    /* Handle Host Disconnect Interrupts */
    if (__HAL_HCD_GET_FLAG(hhcd, USB_OTG_GINTSTS_DISCINT))
 80019f2:	687b      	ldr	r3, [r7, #4]
 80019f4:	681b      	ldr	r3, [r3, #0]
 80019f6:	4618      	mov	r0, r3
 80019f8:	f002 fffc 	bl	80049f4 <USB_ReadInterrupts>
 80019fc:	4603      	mov	r3, r0
 80019fe:	f003 5300 	and.w	r3, r3, #536870912	; 0x20000000
 8001a02:	f1b3 5f00 	cmp.w	r3, #536870912	; 0x20000000
 8001a06:	d11c      	bne.n	8001a42 <HAL_HCD_IRQHandler+0x102>
    {
      __HAL_HCD_CLEAR_FLAG(hhcd, USB_OTG_GINTSTS_DISCINT);
 8001a08:	687b      	ldr	r3, [r7, #4]
 8001a0a:	681b      	ldr	r3, [r3, #0]
 8001a0c:	f04f 5200 	mov.w	r2, #536870912	; 0x20000000
 8001a10:	615a      	str	r2, [r3, #20]

      if ((USBx_HPRT0 & USB_OTG_HPRT_PCSTS) == 0U)
 8001a12:	68fb      	ldr	r3, [r7, #12]
 8001a14:	f503 6388 	add.w	r3, r3, #1088	; 0x440
 8001a18:	681b      	ldr	r3, [r3, #0]
 8001a1a:	f003 0301 	and.w	r3, r3, #1
 8001a1e:	2b00      	cmp	r3, #0
 8001a20:	d10f      	bne.n	8001a42 <HAL_HCD_IRQHandler+0x102>
      {
        /* Flush USB Fifo */
        (void)USB_FlushTxFifo(USBx, 0x10U);
 8001a22:	2110      	movs	r1, #16
 8001a24:	6938      	ldr	r0, [r7, #16]
 8001a26:	f002 ff0b 	bl	8004840 <USB_FlushTxFifo>
        (void)USB_FlushRxFifo(USBx);
 8001a2a:	6938      	ldr	r0, [r7, #16]
 8001a2c:	f002 ff2c 	bl	8004888 <USB_FlushRxFifo>

        /* Restore FS Clock */
        (void)USB_InitFSLSPClkSel(hhcd->Instance, HCFG_48_MHZ);
 8001a30:	687b      	ldr	r3, [r7, #4]
 8001a32:	681b      	ldr	r3, [r3, #0]
 8001a34:	2101      	movs	r1, #1
 8001a36:	4618      	mov	r0, r3
 8001a38:	f003 f8d8 	bl	8004bec <USB_InitFSLSPClkSel>

        /* Handle Host Port Disconnect Interrupt */
#if (USE_HAL_HCD_REGISTER_CALLBACKS == 1U)
        hhcd->DisconnectCallback(hhcd);
#else
        HAL_HCD_Disconnect_Callback(hhcd);
 8001a3c:	6878      	ldr	r0, [r7, #4]
 8001a3e:	f006 fa41 	bl	8007ec4 <HAL_HCD_Disconnect_Callback>
#endif /* USE_HAL_HCD_REGISTER_CALLBACKS */
      }
    }

    /* Handle Host Port Interrupts */
    if (__HAL_HCD_GET_FLAG(hhcd, USB_OTG_GINTSTS_HPRTINT))
 8001a42:	687b      	ldr	r3, [r7, #4]
 8001a44:	681b      	ldr	r3, [r3, #0]
 8001a46:	4618      	mov	r0, r3
 8001a48:	f002 ffd4 	bl	80049f4 <USB_ReadInterrupts>
 8001a4c:	4603      	mov	r3, r0
 8001a4e:	f003 7380 	and.w	r3, r3, #16777216	; 0x1000000
 8001a52:	f1b3 7f80 	cmp.w	r3, #16777216	; 0x1000000
 8001a56:	d102      	bne.n	8001a5e <HAL_HCD_IRQHandler+0x11e>
    {
      HCD_Port_IRQHandler(hhcd);
 8001a58:	6878      	ldr	r0, [r7, #4]
 8001a5a:	f001 fa03 	bl	8002e64 <HCD_Port_IRQHandler>
    }

    /* Handle Host SOF Interrupt */
    if (__HAL_HCD_GET_FLAG(hhcd, USB_OTG_GINTSTS_SOF))
 8001a5e:	687b      	ldr	r3, [r7, #4]
 8001a60:	681b      	ldr	r3, [r3, #0]
 8001a62:	4618      	mov	r0, r3
 8001a64:	f002 ffc6 	bl	80049f4 <USB_ReadInterrupts>
 8001a68:	4603      	mov	r3, r0
 8001a6a:	f003 0308 	and.w	r3, r3, #8
 8001a6e:	2b08      	cmp	r3, #8
 8001a70:	d106      	bne.n	8001a80 <HAL_HCD_IRQHandler+0x140>
    {
#if (USE_HAL_HCD_REGISTER_CALLBACKS == 1U)
      hhcd->SOFCallback(hhcd);
#else
      HAL_HCD_SOF_Callback(hhcd);
 8001a72:	6878      	ldr	r0, [r7, #4]
 8001a74:	f006 fa0a 	bl	8007e8c <HAL_HCD_SOF_Callback>
#endif /* USE_HAL_HCD_REGISTER_CALLBACKS */

      __HAL_HCD_CLEAR_FLAG(hhcd, USB_OTG_GINTSTS_SOF);
 8001a78:	687b      	ldr	r3, [r7, #4]
 8001a7a:	681b      	ldr	r3, [r3, #0]
 8001a7c:	2208      	movs	r2, #8
 8001a7e:	615a      	str	r2, [r3, #20]
    }

    /* Handle Rx Queue Level Interrupts */
    if ((__HAL_HCD_GET_FLAG(hhcd, USB_OTG_GINTSTS_RXFLVL)) != 0U)
 8001a80:	687b      	ldr	r3, [r7, #4]
 8001a82:	681b      	ldr	r3, [r3, #0]
 8001a84:	4618      	mov	r0, r3
 8001a86:	f002 ffb5 	bl	80049f4 <USB_ReadInterrupts>
 8001a8a:	4603      	mov	r3, r0
 8001a8c:	f003 0310 	and.w	r3, r3, #16
 8001a90:	2b10      	cmp	r3, #16
 8001a92:	d101      	bne.n	8001a98 <HAL_HCD_IRQHandler+0x158>
 8001a94:	2301      	movs	r3, #1
 8001a96:	e000      	b.n	8001a9a <HAL_HCD_IRQHandler+0x15a>
 8001a98:	2300      	movs	r3, #0
 8001a9a:	2b00      	cmp	r3, #0
 8001a9c:	d012      	beq.n	8001ac4 <HAL_HCD_IRQHandler+0x184>
    {
      USB_MASK_INTERRUPT(hhcd->Instance, USB_OTG_GINTSTS_RXFLVL);
 8001a9e:	687b      	ldr	r3, [r7, #4]
 8001aa0:	681b      	ldr	r3, [r3, #0]
 8001aa2:	699a      	ldr	r2, [r3, #24]
 8001aa4:	687b      	ldr	r3, [r7, #4]
 8001aa6:	681b      	ldr	r3, [r3, #0]
 8001aa8:	f022 0210 	bic.w	r2, r2, #16
 8001aac:	619a      	str	r2, [r3, #24]

      HCD_RXQLVL_IRQHandler(hhcd);
 8001aae:	6878      	ldr	r0, [r7, #4]
 8001ab0:	f001 f906 	bl	8002cc0 <HCD_RXQLVL_IRQHandler>

      USB_UNMASK_INTERRUPT(hhcd->Instance, USB_OTG_GINTSTS_RXFLVL);
 8001ab4:	687b      	ldr	r3, [r7, #4]
 8001ab6:	681b      	ldr	r3, [r3, #0]
 8001ab8:	699a      	ldr	r2, [r3, #24]
 8001aba:	687b      	ldr	r3, [r7, #4]
 8001abc:	681b      	ldr	r3, [r3, #0]
 8001abe:	f042 0210 	orr.w	r2, r2, #16
 8001ac2:	619a      	str	r2, [r3, #24]
    }

    /* Handle Host channel Interrupt */
    if (__HAL_HCD_GET_FLAG(hhcd, USB_OTG_GINTSTS_HCINT))
 8001ac4:	687b      	ldr	r3, [r7, #4]
 8001ac6:	681b      	ldr	r3, [r3, #0]
 8001ac8:	4618      	mov	r0, r3
 8001aca:	f002 ff93 	bl	80049f4 <USB_ReadInterrupts>
 8001ace:	4603      	mov	r3, r0
 8001ad0:	f003 7300 	and.w	r3, r3, #33554432	; 0x2000000
 8001ad4:	f1b3 7f00 	cmp.w	r3, #33554432	; 0x2000000
 8001ad8:	d13a      	bne.n	8001b50 <HAL_HCD_IRQHandler+0x210>
    {
      interrupt = USB_HC_ReadInterrupt(hhcd->Instance);
 8001ada:	687b      	ldr	r3, [r7, #4]
 8001adc:	681b      	ldr	r3, [r3, #0]
 8001ade:	4618      	mov	r0, r3
 8001ae0:	f003 fb9a 	bl	8005218 <USB_HC_ReadInterrupt>
 8001ae4:	60b8      	str	r0, [r7, #8]
      for (i = 0U; i < hhcd->Init.Host_channels; i++)
 8001ae6:	2300      	movs	r3, #0
 8001ae8:	617b      	str	r3, [r7, #20]
 8001aea:	e025      	b.n	8001b38 <HAL_HCD_IRQHandler+0x1f8>
      {
        if ((interrupt & (1UL << (i & 0xFU))) != 0U)
 8001aec:	697b      	ldr	r3, [r7, #20]
 8001aee:	f003 030f 	and.w	r3, r3, #15
 8001af2:	68ba      	ldr	r2, [r7, #8]
 8001af4:	fa22 f303 	lsr.w	r3, r2, r3
 8001af8:	f003 0301 	and.w	r3, r3, #1
 8001afc:	2b00      	cmp	r3, #0
 8001afe:	d018      	beq.n	8001b32 <HAL_HCD_IRQHandler+0x1f2>
        {
          if ((USBx_HC(i)->HCCHAR & USB_OTG_HCCHAR_EPDIR) == USB_OTG_HCCHAR_EPDIR)
 8001b00:	697b      	ldr	r3, [r7, #20]
 8001b02:	015a      	lsls	r2, r3, #5
 8001b04:	68fb      	ldr	r3, [r7, #12]
 8001b06:	4413      	add	r3, r2
 8001b08:	f503 63a0 	add.w	r3, r3, #1280	; 0x500
 8001b0c:	681b      	ldr	r3, [r3, #0]
 8001b0e:	f403 4300 	and.w	r3, r3, #32768	; 0x8000
 8001b12:	f5b3 4f00 	cmp.w	r3, #32768	; 0x8000
 8001b16:	d106      	bne.n	8001b26 <HAL_HCD_IRQHandler+0x1e6>
          {
            HCD_HC_IN_IRQHandler(hhcd, (uint8_t)i);
 8001b18:	697b      	ldr	r3, [r7, #20]
 8001b1a:	b2db      	uxtb	r3, r3
 8001b1c:	4619      	mov	r1, r3
 8001b1e:	6878      	ldr	r0, [r7, #4]
 8001b20:	f000 f8ab 	bl	8001c7a <HCD_HC_IN_IRQHandler>
 8001b24:	e005      	b.n	8001b32 <HAL_HCD_IRQHandler+0x1f2>
          }
          else
          {
            HCD_HC_OUT_IRQHandler(hhcd, (uint8_t)i);
 8001b26:	697b      	ldr	r3, [r7, #20]
 8001b28:	b2db      	uxtb	r3, r3
 8001b2a:	4619      	mov	r1, r3
 8001b2c:	6878      	ldr	r0, [r7, #4]
 8001b2e:	f000 fcc6 	bl	80024be <HCD_HC_OUT_IRQHandler>
      for (i = 0U; i < hhcd->Init.Host_channels; i++)
 8001b32:	697b      	ldr	r3, [r7, #20]
 8001b34:	3301      	adds	r3, #1
 8001b36:	617b      	str	r3, [r7, #20]
 8001b38:	687b      	ldr	r3, [r7, #4]
 8001b3a:	689b      	ldr	r3, [r3, #8]
 8001b3c:	697a      	ldr	r2, [r7, #20]
 8001b3e:	429a      	cmp	r2, r3
 8001b40:	d3d4      	bcc.n	8001aec <HAL_HCD_IRQHandler+0x1ac>
          }
        }
      }
      __HAL_HCD_CLEAR_FLAG(hhcd, USB_OTG_GINTSTS_HCINT);
 8001b42:	687b      	ldr	r3, [r7, #4]
 8001b44:	681b      	ldr	r3, [r3, #0]
 8001b46:	f04f 7200 	mov.w	r2, #33554432	; 0x2000000
 8001b4a:	615a      	str	r2, [r3, #20]
 8001b4c:	e000      	b.n	8001b50 <HAL_HCD_IRQHandler+0x210>
      return;
 8001b4e:	bf00      	nop
    }
  }
}
 8001b50:	3718      	adds	r7, #24
 8001b52:	46bd      	mov	sp, r7
 8001b54:	bd80      	pop	{r7, pc}

08001b56 <HAL_HCD_Start>:
  * @brief  Start the host driver.
  * @param  hhcd HCD handle
  * @retval HAL status
  */
HAL_StatusTypeDef HAL_HCD_Start(HCD_HandleTypeDef *hhcd)
{
 8001b56:	b580      	push	{r7, lr}
 8001b58:	b082      	sub	sp, #8
 8001b5a:	af00      	add	r7, sp, #0
 8001b5c:	6078      	str	r0, [r7, #4]
  __HAL_LOCK(hhcd);
 8001b5e:	687b      	ldr	r3, [r7, #4]
 8001b60:	f893 32f8 	ldrb.w	r3, [r3, #760]	; 0x2f8
 8001b64:	2b01      	cmp	r3, #1
 8001b66:	d101      	bne.n	8001b6c <HAL_HCD_Start+0x16>
 8001b68:	2302      	movs	r3, #2
 8001b6a:	e013      	b.n	8001b94 <HAL_HCD_Start+0x3e>
 8001b6c:	687b      	ldr	r3, [r7, #4]
 8001b6e:	2201      	movs	r2, #1
 8001b70:	f883 22f8 	strb.w	r2, [r3, #760]	; 0x2f8
  /* Enable port power */
  (void)USB_DriveVbus(hhcd->Instance, 1U);
 8001b74:	687b      	ldr	r3, [r7, #4]
 8001b76:	681b      	ldr	r3, [r3, #0]
 8001b78:	2101      	movs	r1, #1
 8001b7a:	4618      	mov	r0, r3
 8001b7c:	f003 f89a 	bl	8004cb4 <USB_DriveVbus>

  /* Enable global interrupt */
  __HAL_HCD_ENABLE(hhcd);
 8001b80:	687b      	ldr	r3, [r7, #4]
 8001b82:	681b      	ldr	r3, [r3, #0]
 8001b84:	4618      	mov	r0, r3
 8001b86:	f002 fdec 	bl	8004762 <USB_EnableGlobalInt>
  __HAL_UNLOCK(hhcd);
 8001b8a:	687b      	ldr	r3, [r7, #4]
 8001b8c:	2200      	movs	r2, #0
 8001b8e:	f883 22f8 	strb.w	r2, [r3, #760]	; 0x2f8

  return HAL_OK;
 8001b92:	2300      	movs	r3, #0
}
 8001b94:	4618      	mov	r0, r3
 8001b96:	3708      	adds	r7, #8
 8001b98:	46bd      	mov	sp, r7
 8001b9a:	bd80      	pop	{r7, pc}

08001b9c <HAL_HCD_Stop>:
  * @param  hhcd HCD handle
  * @retval HAL status
  */

HAL_StatusTypeDef HAL_HCD_Stop(HCD_HandleTypeDef *hhcd)
{
 8001b9c:	b580      	push	{r7, lr}
 8001b9e:	b082      	sub	sp, #8
 8001ba0:	af00      	add	r7, sp, #0
 8001ba2:	6078      	str	r0, [r7, #4]
  __HAL_LOCK(hhcd);
 8001ba4:	687b      	ldr	r3, [r7, #4]
 8001ba6:	f893 32f8 	ldrb.w	r3, [r3, #760]	; 0x2f8
 8001baa:	2b01      	cmp	r3, #1
 8001bac:	d101      	bne.n	8001bb2 <HAL_HCD_Stop+0x16>
 8001bae:	2302      	movs	r3, #2
 8001bb0:	e00d      	b.n	8001bce <HAL_HCD_Stop+0x32>
 8001bb2:	687b      	ldr	r3, [r7, #4]
 8001bb4:	2201      	movs	r2, #1
 8001bb6:	f883 22f8 	strb.w	r2, [r3, #760]	; 0x2f8
  (void)USB_StopHost(hhcd->Instance);
 8001bba:	687b      	ldr	r3, [r7, #4]
 8001bbc:	681b      	ldr	r3, [r3, #0]
 8001bbe:	4618      	mov	r0, r3
 8001bc0:	f003 fc94 	bl	80054ec <USB_StopHost>
  __HAL_UNLOCK(hhcd);
 8001bc4:	687b      	ldr	r3, [r7, #4]
 8001bc6:	2200      	movs	r2, #0
 8001bc8:	f883 22f8 	strb.w	r2, [r3, #760]	; 0x2f8

  return HAL_OK;
 8001bcc:	2300      	movs	r3, #0
}
 8001bce:	4618      	mov	r0, r3
 8001bd0:	3708      	adds	r7, #8
 8001bd2:	46bd      	mov	sp, r7
 8001bd4:	bd80      	pop	{r7, pc}

08001bd6 <HAL_HCD_ResetPort>:
  * @brief  Reset the host port.
  * @param  hhcd HCD handle
  * @retval HAL status
  */
HAL_StatusTypeDef HAL_HCD_ResetPort(HCD_HandleTypeDef *hhcd)
{
 8001bd6:	b580      	push	{r7, lr}
 8001bd8:	b082      	sub	sp, #8
 8001bda:	af00      	add	r7, sp, #0
 8001bdc:	6078      	str	r0, [r7, #4]
  return (USB_ResetPort(hhcd->Instance));
 8001bde:	687b      	ldr	r3, [r7, #4]
 8001be0:	681b      	ldr	r3, [r3, #0]
 8001be2:	4618      	mov	r0, r3
 8001be4:	f003 f83c 	bl	8004c60 <USB_ResetPort>
 8001be8:	4603      	mov	r3, r0
}
 8001bea:	4618      	mov	r0, r3
 8001bec:	3708      	adds	r7, #8
 8001bee:	46bd      	mov	sp, r7
 8001bf0:	bd80      	pop	{r7, pc}

08001bf2 <HAL_HCD_HC_GetURBState>:
  *            URB_NYET/
  *            URB_ERROR/
  *            URB_STALL
  */
HCD_URBStateTypeDef HAL_HCD_HC_GetURBState(HCD_HandleTypeDef *hhcd, uint8_t chnum)
{
 8001bf2:	b480      	push	{r7}
 8001bf4:	b083      	sub	sp, #12
 8001bf6:	af00      	add	r7, sp, #0
 8001bf8:	6078      	str	r0, [r7, #4]
 8001bfa:	460b      	mov	r3, r1
 8001bfc:	70fb      	strb	r3, [r7, #3]
  return hhcd->hc[chnum].urb_state;
 8001bfe:	78fb      	ldrb	r3, [r7, #3]
 8001c00:	687a      	ldr	r2, [r7, #4]
 8001c02:	212c      	movs	r1, #44	; 0x2c
 8001c04:	fb01 f303 	mul.w	r3, r1, r3
 8001c08:	4413      	add	r3, r2
 8001c0a:	3360      	adds	r3, #96	; 0x60
 8001c0c:	781b      	ldrb	r3, [r3, #0]
}
 8001c0e:	4618      	mov	r0, r3
 8001c10:	370c      	adds	r7, #12
 8001c12:	46bd      	mov	sp, r7
 8001c14:	f85d 7b04 	ldr.w	r7, [sp], #4
 8001c18:	4770      	bx	lr

08001c1a <HAL_HCD_HC_GetXferCount>:
  * @param  chnum Channel number.
  *         This parameter can be a value from 1 to 15
  * @retval last transfer size in byte
  */
uint32_t HAL_HCD_HC_GetXferCount(HCD_HandleTypeDef *hhcd, uint8_t chnum)
{
 8001c1a:	b480      	push	{r7}
 8001c1c:	b083      	sub	sp, #12
 8001c1e:	af00      	add	r7, sp, #0
 8001c20:	6078      	str	r0, [r7, #4]
 8001c22:	460b      	mov	r3, r1
 8001c24:	70fb      	strb	r3, [r7, #3]
  return hhcd->hc[chnum].xfer_count;
 8001c26:	78fb      	ldrb	r3, [r7, #3]
 8001c28:	687a      	ldr	r2, [r7, #4]
 8001c2a:	212c      	movs	r1, #44	; 0x2c
 8001c2c:	fb01 f303 	mul.w	r3, r1, r3
 8001c30:	4413      	add	r3, r2
 8001c32:	3350      	adds	r3, #80	; 0x50
 8001c34:	681b      	ldr	r3, [r3, #0]
}
 8001c36:	4618      	mov	r0, r3
 8001c38:	370c      	adds	r7, #12
 8001c3a:	46bd      	mov	sp, r7
 8001c3c:	f85d 7b04 	ldr.w	r7, [sp], #4
 8001c40:	4770      	bx	lr

08001c42 <HAL_HCD_GetCurrentFrame>:
  * @brief  Return the current Host frame number.
  * @param  hhcd HCD handle
  * @retval Current Host frame number
  */
uint32_t HAL_HCD_GetCurrentFrame(HCD_HandleTypeDef *hhcd)
{
 8001c42:	b580      	push	{r7, lr}
 8001c44:	b082      	sub	sp, #8
 8001c46:	af00      	add	r7, sp, #0
 8001c48:	6078      	str	r0, [r7, #4]
  return (USB_GetCurrentFrame(hhcd->Instance));
 8001c4a:	687b      	ldr	r3, [r7, #4]
 8001c4c:	681b      	ldr	r3, [r3, #0]
 8001c4e:	4618      	mov	r0, r3
 8001c50:	f003 f880 	bl	8004d54 <USB_GetCurrentFrame>
 8001c54:	4603      	mov	r3, r0
}
 8001c56:	4618      	mov	r0, r3
 8001c58:	3708      	adds	r7, #8
 8001c5a:	46bd      	mov	sp, r7
 8001c5c:	bd80      	pop	{r7, pc}

08001c5e <HAL_HCD_GetCurrentSpeed>:
  * @brief  Return the Host enumeration speed.
  * @param  hhcd HCD handle
  * @retval Enumeration speed
  */
uint32_t HAL_HCD_GetCurrentSpeed(HCD_HandleTypeDef *hhcd)
{
 8001c5e:	b580      	push	{r7, lr}
 8001c60:	b082      	sub	sp, #8
 8001c62:	af00      	add	r7, sp, #0
 8001c64:	6078      	str	r0, [r7, #4]
  return (USB_GetHostSpeed(hhcd->Instance));
 8001c66:	687b      	ldr	r3, [r7, #4]
 8001c68:	681b      	ldr	r3, [r3, #0]
 8001c6a:	4618      	mov	r0, r3
 8001c6c:	f003 f85b 	bl	8004d26 <USB_GetHostSpeed>
 8001c70:	4603      	mov	r3, r0
}
 8001c72:	4618      	mov	r0, r3
 8001c74:	3708      	adds	r7, #8
 8001c76:	46bd      	mov	sp, r7
 8001c78:	bd80      	pop	{r7, pc}

08001c7a <HCD_HC_IN_IRQHandler>:
  * @param  chnum Channel number.
  *         This parameter can be a value from 1 to 15
  * @retval none
  */
static void HCD_HC_IN_IRQHandler(HCD_HandleTypeDef *hhcd, uint8_t chnum)
{
 8001c7a:	b580      	push	{r7, lr}
 8001c7c:	b086      	sub	sp, #24
 8001c7e:	af00      	add	r7, sp, #0
 8001c80:	6078      	str	r0, [r7, #4]
 8001c82:	460b      	mov	r3, r1
 8001c84:	70fb      	strb	r3, [r7, #3]
  USB_OTG_GlobalTypeDef *USBx = hhcd->Instance;
 8001c86:	687b      	ldr	r3, [r7, #4]
 8001c88:	681b      	ldr	r3, [r3, #0]
 8001c8a:	617b      	str	r3, [r7, #20]
  uint32_t USBx_BASE = (uint32_t)USBx;
 8001c8c:	697b      	ldr	r3, [r7, #20]
 8001c8e:	613b      	str	r3, [r7, #16]
  uint32_t ch_num = (uint32_t)chnum;
 8001c90:	78fb      	ldrb	r3, [r7, #3]
 8001c92:	60fb      	str	r3, [r7, #12]

  uint32_t tmpreg;

  if ((USBx_HC(ch_num)->HCINT & USB_OTG_HCINT_AHBERR) == USB_OTG_HCINT_AHBERR)
 8001c94:	68fb      	ldr	r3, [r7, #12]
 8001c96:	015a      	lsls	r2, r3, #5
 8001c98:	693b      	ldr	r3, [r7, #16]
 8001c9a:	4413      	add	r3, r2
 8001c9c:	f503 63a0 	add.w	r3, r3, #1280	; 0x500
 8001ca0:	689b      	ldr	r3, [r3, #8]
 8001ca2:	f003 0304 	and.w	r3, r3, #4
 8001ca6:	2b04      	cmp	r3, #4
 8001ca8:	d119      	bne.n	8001cde <HCD_HC_IN_IRQHandler+0x64>
  {
    __HAL_HCD_CLEAR_HC_INT(ch_num, USB_OTG_HCINT_AHBERR);
 8001caa:	68fb      	ldr	r3, [r7, #12]
 8001cac:	015a      	lsls	r2, r3, #5
 8001cae:	693b      	ldr	r3, [r7, #16]
 8001cb0:	4413      	add	r3, r2
 8001cb2:	f503 63a0 	add.w	r3, r3, #1280	; 0x500
 8001cb6:	461a      	mov	r2, r3
 8001cb8:	2304      	movs	r3, #4
 8001cba:	6093      	str	r3, [r2, #8]
    __HAL_HCD_UNMASK_HALT_HC_INT(ch_num);
 8001cbc:	68fb      	ldr	r3, [r7, #12]
 8001cbe:	015a      	lsls	r2, r3, #5
 8001cc0:	693b      	ldr	r3, [r7, #16]
 8001cc2:	4413      	add	r3, r2
 8001cc4:	f503 63a0 	add.w	r3, r3, #1280	; 0x500
 8001cc8:	68db      	ldr	r3, [r3, #12]
 8001cca:	68fa      	ldr	r2, [r7, #12]
 8001ccc:	0151      	lsls	r1, r2, #5
 8001cce:	693a      	ldr	r2, [r7, #16]
 8001cd0:	440a      	add	r2, r1
 8001cd2:	f502 62a0 	add.w	r2, r2, #1280	; 0x500
 8001cd6:	f043 0302 	orr.w	r3, r3, #2
 8001cda:	60d3      	str	r3, [r2, #12]
 8001cdc:	e101      	b.n	8001ee2 <HCD_HC_IN_IRQHandler+0x268>
  }
  else if ((USBx_HC(ch_num)->HCINT & USB_OTG_HCINT_BBERR) == USB_OTG_HCINT_BBERR)
 8001cde:	68fb      	ldr	r3, [r7, #12]
 8001ce0:	015a      	lsls	r2, r3, #5
 8001ce2:	693b      	ldr	r3, [r7, #16]
 8001ce4:	4413      	add	r3, r2
 8001ce6:	f503 63a0 	add.w	r3, r3, #1280	; 0x500
 8001cea:	689b      	ldr	r3, [r3, #8]
 8001cec:	f403 7380 	and.w	r3, r3, #256	; 0x100
 8001cf0:	f5b3 7f80 	cmp.w	r3, #256	; 0x100
 8001cf4:	d12b      	bne.n	8001d4e <HCD_HC_IN_IRQHandler+0xd4>
  {
    __HAL_HCD_CLEAR_HC_INT(ch_num, USB_OTG_HCINT_BBERR);
 8001cf6:	68fb      	ldr	r3, [r7, #12]
 8001cf8:	015a      	lsls	r2, r3, #5
 8001cfa:	693b      	ldr	r3, [r7, #16]
 8001cfc:	4413      	add	r3, r2
 8001cfe:	f503 63a0 	add.w	r3, r3, #1280	; 0x500
 8001d02:	461a      	mov	r2, r3
 8001d04:	f44f 7380 	mov.w	r3, #256	; 0x100
 8001d08:	6093      	str	r3, [r2, #8]
    hhcd->hc[ch_num].state = HC_BBLERR;
 8001d0a:	687a      	ldr	r2, [r7, #4]
 8001d0c:	68fb      	ldr	r3, [r7, #12]
 8001d0e:	212c      	movs	r1, #44	; 0x2c
 8001d10:	fb01 f303 	mul.w	r3, r1, r3
 8001d14:	4413      	add	r3, r2
 8001d16:	3361      	adds	r3, #97	; 0x61
 8001d18:	2207      	movs	r2, #7
 8001d1a:	701a      	strb	r2, [r3, #0]
    __HAL_HCD_UNMASK_HALT_HC_INT(ch_num);
 8001d1c:	68fb      	ldr	r3, [r7, #12]
 8001d1e:	015a      	lsls	r2, r3, #5
 8001d20:	693b      	ldr	r3, [r7, #16]
 8001d22:	4413      	add	r3, r2
 8001d24:	f503 63a0 	add.w	r3, r3, #1280	; 0x500
 8001d28:	68db      	ldr	r3, [r3, #12]
 8001d2a:	68fa      	ldr	r2, [r7, #12]
 8001d2c:	0151      	lsls	r1, r2, #5
 8001d2e:	693a      	ldr	r2, [r7, #16]
 8001d30:	440a      	add	r2, r1
 8001d32:	f502 62a0 	add.w	r2, r2, #1280	; 0x500
 8001d36:	f043 0302 	orr.w	r3, r3, #2
 8001d3a:	60d3      	str	r3, [r2, #12]
    (void)USB_HC_Halt(hhcd->Instance, (uint8_t)ch_num);
 8001d3c:	687b      	ldr	r3, [r7, #4]
 8001d3e:	681b      	ldr	r3, [r3, #0]
 8001d40:	68fa      	ldr	r2, [r7, #12]
 8001d42:	b2d2      	uxtb	r2, r2
 8001d44:	4611      	mov	r1, r2
 8001d46:	4618      	mov	r0, r3
 8001d48:	f003 fa77 	bl	800523a <USB_HC_Halt>
 8001d4c:	e0c9      	b.n	8001ee2 <HCD_HC_IN_IRQHandler+0x268>
  }
  else if ((USBx_HC(ch_num)->HCINT & USB_OTG_HCINT_ACK) == USB_OTG_HCINT_ACK)
 8001d4e:	68fb      	ldr	r3, [r7, #12]
 8001d50:	015a      	lsls	r2, r3, #5
 8001d52:	693b      	ldr	r3, [r7, #16]
 8001d54:	4413      	add	r3, r2
 8001d56:	f503 63a0 	add.w	r3, r3, #1280	; 0x500
 8001d5a:	689b      	ldr	r3, [r3, #8]
 8001d5c:	f003 0320 	and.w	r3, r3, #32
 8001d60:	2b20      	cmp	r3, #32
 8001d62:	d109      	bne.n	8001d78 <HCD_HC_IN_IRQHandler+0xfe>
  {
    __HAL_HCD_CLEAR_HC_INT(ch_num, USB_OTG_HCINT_ACK);
 8001d64:	68fb      	ldr	r3, [r7, #12]
 8001d66:	015a      	lsls	r2, r3, #5
 8001d68:	693b      	ldr	r3, [r7, #16]
 8001d6a:	4413      	add	r3, r2
 8001d6c:	f503 63a0 	add.w	r3, r3, #1280	; 0x500
 8001d70:	461a      	mov	r2, r3
 8001d72:	2320      	movs	r3, #32
 8001d74:	6093      	str	r3, [r2, #8]
 8001d76:	e0b4      	b.n	8001ee2 <HCD_HC_IN_IRQHandler+0x268>
  }
  else if ((USBx_HC(ch_num)->HCINT & USB_OTG_HCINT_STALL) == USB_OTG_HCINT_STALL)
 8001d78:	68fb      	ldr	r3, [r7, #12]
 8001d7a:	015a      	lsls	r2, r3, #5
 8001d7c:	693b      	ldr	r3, [r7, #16]
 8001d7e:	4413      	add	r3, r2
 8001d80:	f503 63a0 	add.w	r3, r3, #1280	; 0x500
 8001d84:	689b      	ldr	r3, [r3, #8]
 8001d86:	f003 0308 	and.w	r3, r3, #8
 8001d8a:	2b08      	cmp	r3, #8
 8001d8c:	d133      	bne.n	8001df6 <HCD_HC_IN_IRQHandler+0x17c>
  {
    __HAL_HCD_UNMASK_HALT_HC_INT(ch_num);
 8001d8e:	68fb      	ldr	r3, [r7, #12]
 8001d90:	015a      	lsls	r2, r3, #5
 8001d92:	693b      	ldr	r3, [r7, #16]
 8001d94:	4413      	add	r3, r2
 8001d96:	f503 63a0 	add.w	r3, r3, #1280	; 0x500
 8001d9a:	68db      	ldr	r3, [r3, #12]
 8001d9c:	68fa      	ldr	r2, [r7, #12]
 8001d9e:	0151      	lsls	r1, r2, #5
 8001da0:	693a      	ldr	r2, [r7, #16]
 8001da2:	440a      	add	r2, r1
 8001da4:	f502 62a0 	add.w	r2, r2, #1280	; 0x500
 8001da8:	f043 0302 	orr.w	r3, r3, #2
 8001dac:	60d3      	str	r3, [r2, #12]
    hhcd->hc[ch_num].state = HC_STALL;
 8001dae:	687a      	ldr	r2, [r7, #4]
 8001db0:	68fb      	ldr	r3, [r7, #12]
 8001db2:	212c      	movs	r1, #44	; 0x2c
 8001db4:	fb01 f303 	mul.w	r3, r1, r3
 8001db8:	4413      	add	r3, r2
 8001dba:	3361      	adds	r3, #97	; 0x61
 8001dbc:	2205      	movs	r2, #5
 8001dbe:	701a      	strb	r2, [r3, #0]
    __HAL_HCD_CLEAR_HC_INT(ch_num, USB_OTG_HCINT_NAK);
 8001dc0:	68fb      	ldr	r3, [r7, #12]
 8001dc2:	015a      	lsls	r2, r3, #5
 8001dc4:	693b      	ldr	r3, [r7, #16]
 8001dc6:	4413      	add	r3, r2
 8001dc8:	f503 63a0 	add.w	r3, r3, #1280	; 0x500
 8001dcc:	461a      	mov	r2, r3
 8001dce:	2310      	movs	r3, #16
 8001dd0:	6093      	str	r3, [r2, #8]
    __HAL_HCD_CLEAR_HC_INT(ch_num, USB_OTG_HCINT_STALL);
 8001dd2:	68fb      	ldr	r3, [r7, #12]
 8001dd4:	015a      	lsls	r2, r3, #5
 8001dd6:	693b      	ldr	r3, [r7, #16]
 8001dd8:	4413      	add	r3, r2
 8001dda:	f503 63a0 	add.w	r3, r3, #1280	; 0x500
 8001dde:	461a      	mov	r2, r3
 8001de0:	2308      	movs	r3, #8
 8001de2:	6093      	str	r3, [r2, #8]
    (void)USB_HC_Halt(hhcd->Instance, (uint8_t)ch_num);
 8001de4:	687b      	ldr	r3, [r7, #4]
 8001de6:	681b      	ldr	r3, [r3, #0]
 8001de8:	68fa      	ldr	r2, [r7, #12]
 8001dea:	b2d2      	uxtb	r2, r2
 8001dec:	4611      	mov	r1, r2
 8001dee:	4618      	mov	r0, r3
 8001df0:	f003 fa23 	bl	800523a <USB_HC_Halt>
 8001df4:	e075      	b.n	8001ee2 <HCD_HC_IN_IRQHandler+0x268>
  }
  else if ((USBx_HC(ch_num)->HCINT & USB_OTG_HCINT_DTERR) == USB_OTG_HCINT_DTERR)
 8001df6:	68fb      	ldr	r3, [r7, #12]
 8001df8:	015a      	lsls	r2, r3, #5
 8001dfa:	693b      	ldr	r3, [r7, #16]
 8001dfc:	4413      	add	r3, r2
 8001dfe:	f503 63a0 	add.w	r3, r3, #1280	; 0x500
 8001e02:	689b      	ldr	r3, [r3, #8]
 8001e04:	f403 6380 	and.w	r3, r3, #1024	; 0x400
 8001e08:	f5b3 6f80 	cmp.w	r3, #1024	; 0x400
 8001e0c:	d134      	bne.n	8001e78 <HCD_HC_IN_IRQHandler+0x1fe>
  {
    __HAL_HCD_UNMASK_HALT_HC_INT(ch_num);
 8001e0e:	68fb      	ldr	r3, [r7, #12]
 8001e10:	015a      	lsls	r2, r3, #5
 8001e12:	693b      	ldr	r3, [r7, #16]
 8001e14:	4413      	add	r3, r2
 8001e16:	f503 63a0 	add.w	r3, r3, #1280	; 0x500
 8001e1a:	68db      	ldr	r3, [r3, #12]
 8001e1c:	68fa      	ldr	r2, [r7, #12]
 8001e1e:	0151      	lsls	r1, r2, #5
 8001e20:	693a      	ldr	r2, [r7, #16]
 8001e22:	440a      	add	r2, r1
 8001e24:	f502 62a0 	add.w	r2, r2, #1280	; 0x500
 8001e28:	f043 0302 	orr.w	r3, r3, #2
 8001e2c:	60d3      	str	r3, [r2, #12]
    hhcd->hc[ch_num].state = HC_DATATGLERR;
 8001e2e:	687a      	ldr	r2, [r7, #4]
 8001e30:	68fb      	ldr	r3, [r7, #12]
 8001e32:	212c      	movs	r1, #44	; 0x2c
 8001e34:	fb01 f303 	mul.w	r3, r1, r3
 8001e38:	4413      	add	r3, r2
 8001e3a:	3361      	adds	r3, #97	; 0x61
 8001e3c:	2208      	movs	r2, #8
 8001e3e:	701a      	strb	r2, [r3, #0]
    __HAL_HCD_CLEAR_HC_INT(ch_num, USB_OTG_HCINT_NAK);
 8001e40:	68fb      	ldr	r3, [r7, #12]
 8001e42:	015a      	lsls	r2, r3, #5
 8001e44:	693b      	ldr	r3, [r7, #16]
 8001e46:	4413      	add	r3, r2
 8001e48:	f503 63a0 	add.w	r3, r3, #1280	; 0x500
 8001e4c:	461a      	mov	r2, r3
 8001e4e:	2310      	movs	r3, #16
 8001e50:	6093      	str	r3, [r2, #8]
    __HAL_HCD_CLEAR_HC_INT(ch_num, USB_OTG_HCINT_DTERR);
 8001e52:	68fb      	ldr	r3, [r7, #12]
 8001e54:	015a      	lsls	r2, r3, #5
 8001e56:	693b      	ldr	r3, [r7, #16]
 8001e58:	4413      	add	r3, r2
 8001e5a:	f503 63a0 	add.w	r3, r3, #1280	; 0x500
 8001e5e:	461a      	mov	r2, r3
 8001e60:	f44f 6380 	mov.w	r3, #1024	; 0x400
 8001e64:	6093      	str	r3, [r2, #8]
    (void)USB_HC_Halt(hhcd->Instance, (uint8_t)ch_num);
 8001e66:	687b      	ldr	r3, [r7, #4]
 8001e68:	681b      	ldr	r3, [r3, #0]
 8001e6a:	68fa      	ldr	r2, [r7, #12]
 8001e6c:	b2d2      	uxtb	r2, r2
 8001e6e:	4611      	mov	r1, r2
 8001e70:	4618      	mov	r0, r3
 8001e72:	f003 f9e2 	bl	800523a <USB_HC_Halt>
 8001e76:	e034      	b.n	8001ee2 <HCD_HC_IN_IRQHandler+0x268>
  }
  else if ((USBx_HC(ch_num)->HCINT & USB_OTG_HCINT_TXERR) == USB_OTG_HCINT_TXERR)
 8001e78:	68fb      	ldr	r3, [r7, #12]
 8001e7a:	015a      	lsls	r2, r3, #5
 8001e7c:	693b      	ldr	r3, [r7, #16]
 8001e7e:	4413      	add	r3, r2
 8001e80:	f503 63a0 	add.w	r3, r3, #1280	; 0x500
 8001e84:	689b      	ldr	r3, [r3, #8]
 8001e86:	f003 0380 	and.w	r3, r3, #128	; 0x80
 8001e8a:	2b80      	cmp	r3, #128	; 0x80
 8001e8c:	d129      	bne.n	8001ee2 <HCD_HC_IN_IRQHandler+0x268>
  {
    __HAL_HCD_UNMASK_HALT_HC_INT(ch_num);
 8001e8e:	68fb      	ldr	r3, [r7, #12]
 8001e90:	015a      	lsls	r2, r3, #5
 8001e92:	693b      	ldr	r3, [r7, #16]
 8001e94:	4413      	add	r3, r2
 8001e96:	f503 63a0 	add.w	r3, r3, #1280	; 0x500
 8001e9a:	68db      	ldr	r3, [r3, #12]
 8001e9c:	68fa      	ldr	r2, [r7, #12]
 8001e9e:	0151      	lsls	r1, r2, #5
 8001ea0:	693a      	ldr	r2, [r7, #16]
 8001ea2:	440a      	add	r2, r1
 8001ea4:	f502 62a0 	add.w	r2, r2, #1280	; 0x500
 8001ea8:	f043 0302 	orr.w	r3, r3, #2
 8001eac:	60d3      	str	r3, [r2, #12]
    hhcd->hc[ch_num].state = HC_XACTERR;
 8001eae:	687a      	ldr	r2, [r7, #4]
 8001eb0:	68fb      	ldr	r3, [r7, #12]
 8001eb2:	212c      	movs	r1, #44	; 0x2c
 8001eb4:	fb01 f303 	mul.w	r3, r1, r3
 8001eb8:	4413      	add	r3, r2
 8001eba:	3361      	adds	r3, #97	; 0x61
 8001ebc:	2206      	movs	r2, #6
 8001ebe:	701a      	strb	r2, [r3, #0]
    (void)USB_HC_Halt(hhcd->Instance, (uint8_t)ch_num);
 8001ec0:	687b      	ldr	r3, [r7, #4]
 8001ec2:	681b      	ldr	r3, [r3, #0]
 8001ec4:	68fa      	ldr	r2, [r7, #12]
 8001ec6:	b2d2      	uxtb	r2, r2
 8001ec8:	4611      	mov	r1, r2
 8001eca:	4618      	mov	r0, r3
 8001ecc:	f003 f9b5 	bl	800523a <USB_HC_Halt>
    __HAL_HCD_CLEAR_HC_INT(ch_num, USB_OTG_HCINT_TXERR);
 8001ed0:	68fb      	ldr	r3, [r7, #12]
 8001ed2:	015a      	lsls	r2, r3, #5
 8001ed4:	693b      	ldr	r3, [r7, #16]
 8001ed6:	4413      	add	r3, r2
 8001ed8:	f503 63a0 	add.w	r3, r3, #1280	; 0x500
 8001edc:	461a      	mov	r2, r3
 8001ede:	2380      	movs	r3, #128	; 0x80
 8001ee0:	6093      	str	r3, [r2, #8]
  else
  {
    /* ... */
  }

  if ((USBx_HC(ch_num)->HCINT & USB_OTG_HCINT_FRMOR) == USB_OTG_HCINT_FRMOR)
 8001ee2:	68fb      	ldr	r3, [r7, #12]
 8001ee4:	015a      	lsls	r2, r3, #5
 8001ee6:	693b      	ldr	r3, [r7, #16]
 8001ee8:	4413      	add	r3, r2
 8001eea:	f503 63a0 	add.w	r3, r3, #1280	; 0x500
 8001eee:	689b      	ldr	r3, [r3, #8]
 8001ef0:	f403 7300 	and.w	r3, r3, #512	; 0x200
 8001ef4:	f5b3 7f00 	cmp.w	r3, #512	; 0x200
 8001ef8:	d122      	bne.n	8001f40 <HCD_HC_IN_IRQHandler+0x2c6>
  {
    __HAL_HCD_UNMASK_HALT_HC_INT(ch_num);
 8001efa:	68fb      	ldr	r3, [r7, #12]
 8001efc:	015a      	lsls	r2, r3, #5
 8001efe:	693b      	ldr	r3, [r7, #16]
 8001f00:	4413      	add	r3, r2
 8001f02:	f503 63a0 	add.w	r3, r3, #1280	; 0x500
 8001f06:	68db      	ldr	r3, [r3, #12]
 8001f08:	68fa      	ldr	r2, [r7, #12]
 8001f0a:	0151      	lsls	r1, r2, #5
 8001f0c:	693a      	ldr	r2, [r7, #16]
 8001f0e:	440a      	add	r2, r1
 8001f10:	f502 62a0 	add.w	r2, r2, #1280	; 0x500
 8001f14:	f043 0302 	orr.w	r3, r3, #2
 8001f18:	60d3      	str	r3, [r2, #12]
    (void)USB_HC_Halt(hhcd->Instance, (uint8_t)ch_num);
 8001f1a:	687b      	ldr	r3, [r7, #4]
 8001f1c:	681b      	ldr	r3, [r3, #0]
 8001f1e:	68fa      	ldr	r2, [r7, #12]
 8001f20:	b2d2      	uxtb	r2, r2
 8001f22:	4611      	mov	r1, r2
 8001f24:	4618      	mov	r0, r3
 8001f26:	f003 f988 	bl	800523a <USB_HC_Halt>
    __HAL_HCD_CLEAR_HC_INT(ch_num, USB_OTG_HCINT_FRMOR);
 8001f2a:	68fb      	ldr	r3, [r7, #12]
 8001f2c:	015a      	lsls	r2, r3, #5
 8001f2e:	693b      	ldr	r3, [r7, #16]
 8001f30:	4413      	add	r3, r2
 8001f32:	f503 63a0 	add.w	r3, r3, #1280	; 0x500
 8001f36:	461a      	mov	r2, r3
 8001f38:	f44f 7300 	mov.w	r3, #512	; 0x200
 8001f3c:	6093      	str	r3, [r2, #8]
  }
  else
  {
    /* ... */
  }
}
 8001f3e:	e2ba      	b.n	80024b6 <HCD_HC_IN_IRQHandler+0x83c>
  else if ((USBx_HC(ch_num)->HCINT & USB_OTG_HCINT_XFRC) == USB_OTG_HCINT_XFRC)
 8001f40:	68fb      	ldr	r3, [r7, #12]
 8001f42:	015a      	lsls	r2, r3, #5
 8001f44:	693b      	ldr	r3, [r7, #16]
 8001f46:	4413      	add	r3, r2
 8001f48:	f503 63a0 	add.w	r3, r3, #1280	; 0x500
 8001f4c:	689b      	ldr	r3, [r3, #8]
 8001f4e:	f003 0301 	and.w	r3, r3, #1
 8001f52:	2b01      	cmp	r3, #1
 8001f54:	f040 811b 	bne.w	800218e <HCD_HC_IN_IRQHandler+0x514>
    if (hhcd->Init.dma_enable != 0U)
 8001f58:	687b      	ldr	r3, [r7, #4]
 8001f5a:	691b      	ldr	r3, [r3, #16]
 8001f5c:	2b00      	cmp	r3, #0
 8001f5e:	d019      	beq.n	8001f94 <HCD_HC_IN_IRQHandler+0x31a>
      hhcd->hc[ch_num].xfer_count = hhcd->hc[ch_num].XferSize - \
 8001f60:	687a      	ldr	r2, [r7, #4]
 8001f62:	68fb      	ldr	r3, [r7, #12]
 8001f64:	212c      	movs	r1, #44	; 0x2c
 8001f66:	fb01 f303 	mul.w	r3, r1, r3
 8001f6a:	4413      	add	r3, r2
 8001f6c:	3348      	adds	r3, #72	; 0x48
 8001f6e:	681a      	ldr	r2, [r3, #0]
                                    (USBx_HC(ch_num)->HCTSIZ & USB_OTG_HCTSIZ_XFRSIZ);
 8001f70:	68fb      	ldr	r3, [r7, #12]
 8001f72:	0159      	lsls	r1, r3, #5
 8001f74:	693b      	ldr	r3, [r7, #16]
 8001f76:	440b      	add	r3, r1
 8001f78:	f503 63a0 	add.w	r3, r3, #1280	; 0x500
 8001f7c:	691b      	ldr	r3, [r3, #16]
 8001f7e:	f3c3 0312 	ubfx	r3, r3, #0, #19
      hhcd->hc[ch_num].xfer_count = hhcd->hc[ch_num].XferSize - \
 8001f82:	1ad2      	subs	r2, r2, r3
 8001f84:	6879      	ldr	r1, [r7, #4]
 8001f86:	68fb      	ldr	r3, [r7, #12]
 8001f88:	202c      	movs	r0, #44	; 0x2c
 8001f8a:	fb00 f303 	mul.w	r3, r0, r3
 8001f8e:	440b      	add	r3, r1
 8001f90:	3350      	adds	r3, #80	; 0x50
 8001f92:	601a      	str	r2, [r3, #0]
    hhcd->hc[ch_num].state = HC_XFRC;
 8001f94:	687a      	ldr	r2, [r7, #4]
 8001f96:	68fb      	ldr	r3, [r7, #12]
 8001f98:	212c      	movs	r1, #44	; 0x2c
 8001f9a:	fb01 f303 	mul.w	r3, r1, r3
 8001f9e:	4413      	add	r3, r2
 8001fa0:	3361      	adds	r3, #97	; 0x61
 8001fa2:	2201      	movs	r2, #1
 8001fa4:	701a      	strb	r2, [r3, #0]
    hhcd->hc[ch_num].ErrCnt = 0U;
 8001fa6:	687a      	ldr	r2, [r7, #4]
 8001fa8:	68fb      	ldr	r3, [r7, #12]
 8001faa:	212c      	movs	r1, #44	; 0x2c
 8001fac:	fb01 f303 	mul.w	r3, r1, r3
 8001fb0:	4413      	add	r3, r2
 8001fb2:	335c      	adds	r3, #92	; 0x5c
 8001fb4:	2200      	movs	r2, #0
 8001fb6:	601a      	str	r2, [r3, #0]
    __HAL_HCD_CLEAR_HC_INT(ch_num, USB_OTG_HCINT_XFRC);
 8001fb8:	68fb      	ldr	r3, [r7, #12]
 8001fba:	015a      	lsls	r2, r3, #5
 8001fbc:	693b      	ldr	r3, [r7, #16]
 8001fbe:	4413      	add	r3, r2
 8001fc0:	f503 63a0 	add.w	r3, r3, #1280	; 0x500
 8001fc4:	461a      	mov	r2, r3
 8001fc6:	2301      	movs	r3, #1
 8001fc8:	6093      	str	r3, [r2, #8]
    if ((hhcd->hc[ch_num].ep_type == EP_TYPE_CTRL) ||
 8001fca:	687a      	ldr	r2, [r7, #4]
 8001fcc:	68fb      	ldr	r3, [r7, #12]
 8001fce:	212c      	movs	r1, #44	; 0x2c
 8001fd0:	fb01 f303 	mul.w	r3, r1, r3
 8001fd4:	4413      	add	r3, r2
 8001fd6:	333f      	adds	r3, #63	; 0x3f
 8001fd8:	781b      	ldrb	r3, [r3, #0]
 8001fda:	2b00      	cmp	r3, #0
 8001fdc:	d009      	beq.n	8001ff2 <HCD_HC_IN_IRQHandler+0x378>
        (hhcd->hc[ch_num].ep_type == EP_TYPE_BULK))
 8001fde:	687a      	ldr	r2, [r7, #4]
 8001fe0:	68fb      	ldr	r3, [r7, #12]
 8001fe2:	212c      	movs	r1, #44	; 0x2c
 8001fe4:	fb01 f303 	mul.w	r3, r1, r3
 8001fe8:	4413      	add	r3, r2
 8001fea:	333f      	adds	r3, #63	; 0x3f
 8001fec:	781b      	ldrb	r3, [r3, #0]
    if ((hhcd->hc[ch_num].ep_type == EP_TYPE_CTRL) ||
 8001fee:	2b02      	cmp	r3, #2
 8001ff0:	d121      	bne.n	8002036 <HCD_HC_IN_IRQHandler+0x3bc>
      __HAL_HCD_UNMASK_HALT_HC_INT(ch_num);
 8001ff2:	68fb      	ldr	r3, [r7, #12]
 8001ff4:	015a      	lsls	r2, r3, #5
 8001ff6:	693b      	ldr	r3, [r7, #16]
 8001ff8:	4413      	add	r3, r2
 8001ffa:	f503 63a0 	add.w	r3, r3, #1280	; 0x500
 8001ffe:	68db      	ldr	r3, [r3, #12]
 8002000:	68fa      	ldr	r2, [r7, #12]
 8002002:	0151      	lsls	r1, r2, #5
 8002004:	693a      	ldr	r2, [r7, #16]
 8002006:	440a      	add	r2, r1
 8002008:	f502 62a0 	add.w	r2, r2, #1280	; 0x500
 800200c:	f043 0302 	orr.w	r3, r3, #2
 8002010:	60d3      	str	r3, [r2, #12]
      (void)USB_HC_Halt(hhcd->Instance, (uint8_t)ch_num);
 8002012:	687b      	ldr	r3, [r7, #4]
 8002014:	681b      	ldr	r3, [r3, #0]
 8002016:	68fa      	ldr	r2, [r7, #12]
 8002018:	b2d2      	uxtb	r2, r2
 800201a:	4611      	mov	r1, r2
 800201c:	4618      	mov	r0, r3
 800201e:	f003 f90c 	bl	800523a <USB_HC_Halt>
      __HAL_HCD_CLEAR_HC_INT(ch_num, USB_OTG_HCINT_NAK);
 8002022:	68fb      	ldr	r3, [r7, #12]
 8002024:	015a      	lsls	r2, r3, #5
 8002026:	693b      	ldr	r3, [r7, #16]
 8002028:	4413      	add	r3, r2
 800202a:	f503 63a0 	add.w	r3, r3, #1280	; 0x500
 800202e:	461a      	mov	r2, r3
 8002030:	2310      	movs	r3, #16
 8002032:	6093      	str	r3, [r2, #8]
 8002034:	e066      	b.n	8002104 <HCD_HC_IN_IRQHandler+0x48a>
    else if (hhcd->hc[ch_num].ep_type == EP_TYPE_INTR)
 8002036:	687a      	ldr	r2, [r7, #4]
 8002038:	68fb      	ldr	r3, [r7, #12]
 800203a:	212c      	movs	r1, #44	; 0x2c
 800203c:	fb01 f303 	mul.w	r3, r1, r3
 8002040:	4413      	add	r3, r2
 8002042:	333f      	adds	r3, #63	; 0x3f
 8002044:	781b      	ldrb	r3, [r3, #0]
 8002046:	2b03      	cmp	r3, #3
 8002048:	d127      	bne.n	800209a <HCD_HC_IN_IRQHandler+0x420>
      USBx_HC(ch_num)->HCCHAR |= USB_OTG_HCCHAR_ODDFRM;
 800204a:	68fb      	ldr	r3, [r7, #12]
 800204c:	015a      	lsls	r2, r3, #5
 800204e:	693b      	ldr	r3, [r7, #16]
 8002050:	4413      	add	r3, r2
 8002052:	f503 63a0 	add.w	r3, r3, #1280	; 0x500
 8002056:	681b      	ldr	r3, [r3, #0]
 8002058:	68fa      	ldr	r2, [r7, #12]
 800205a:	0151      	lsls	r1, r2, #5
 800205c:	693a      	ldr	r2, [r7, #16]
 800205e:	440a      	add	r2, r1
 8002060:	f502 62a0 	add.w	r2, r2, #1280	; 0x500
 8002064:	f043 5300 	orr.w	r3, r3, #536870912	; 0x20000000
 8002068:	6013      	str	r3, [r2, #0]
      hhcd->hc[ch_num].urb_state = URB_DONE;
 800206a:	687a      	ldr	r2, [r7, #4]
 800206c:	68fb      	ldr	r3, [r7, #12]
 800206e:	212c      	movs	r1, #44	; 0x2c
 8002070:	fb01 f303 	mul.w	r3, r1, r3
 8002074:	4413      	add	r3, r2
 8002076:	3360      	adds	r3, #96	; 0x60
 8002078:	2201      	movs	r2, #1
 800207a:	701a      	strb	r2, [r3, #0]
      HAL_HCD_HC_NotifyURBChange_Callback(hhcd, (uint8_t)ch_num, hhcd->hc[ch_num].urb_state);
 800207c:	68fb      	ldr	r3, [r7, #12]
 800207e:	b2d9      	uxtb	r1, r3
 8002080:	687a      	ldr	r2, [r7, #4]
 8002082:	68fb      	ldr	r3, [r7, #12]
 8002084:	202c      	movs	r0, #44	; 0x2c
 8002086:	fb00 f303 	mul.w	r3, r0, r3
 800208a:	4413      	add	r3, r2
 800208c:	3360      	adds	r3, #96	; 0x60
 800208e:	781b      	ldrb	r3, [r3, #0]
 8002090:	461a      	mov	r2, r3
 8002092:	6878      	ldr	r0, [r7, #4]
 8002094:	f005 ff24 	bl	8007ee0 <HAL_HCD_HC_NotifyURBChange_Callback>
 8002098:	e034      	b.n	8002104 <HCD_HC_IN_IRQHandler+0x48a>
    else if (hhcd->hc[ch_num].ep_type == EP_TYPE_ISOC)
 800209a:	687a      	ldr	r2, [r7, #4]
 800209c:	68fb      	ldr	r3, [r7, #12]
 800209e:	212c      	movs	r1, #44	; 0x2c
 80020a0:	fb01 f303 	mul.w	r3, r1, r3
 80020a4:	4413      	add	r3, r2
 80020a6:	333f      	adds	r3, #63	; 0x3f
 80020a8:	781b      	ldrb	r3, [r3, #0]
 80020aa:	2b01      	cmp	r3, #1
 80020ac:	d12a      	bne.n	8002104 <HCD_HC_IN_IRQHandler+0x48a>
      hhcd->hc[ch_num].urb_state = URB_DONE;
 80020ae:	687a      	ldr	r2, [r7, #4]
 80020b0:	68fb      	ldr	r3, [r7, #12]
 80020b2:	212c      	movs	r1, #44	; 0x2c
 80020b4:	fb01 f303 	mul.w	r3, r1, r3
 80020b8:	4413      	add	r3, r2
 80020ba:	3360      	adds	r3, #96	; 0x60
 80020bc:	2201      	movs	r2, #1
 80020be:	701a      	strb	r2, [r3, #0]
      hhcd->hc[ch_num].toggle_in ^= 1U;
 80020c0:	687a      	ldr	r2, [r7, #4]
 80020c2:	68fb      	ldr	r3, [r7, #12]
 80020c4:	212c      	movs	r1, #44	; 0x2c
 80020c6:	fb01 f303 	mul.w	r3, r1, r3
 80020ca:	4413      	add	r3, r2
 80020cc:	3354      	adds	r3, #84	; 0x54
 80020ce:	781b      	ldrb	r3, [r3, #0]
 80020d0:	f083 0301 	eor.w	r3, r3, #1
 80020d4:	b2d8      	uxtb	r0, r3
 80020d6:	687a      	ldr	r2, [r7, #4]
 80020d8:	68fb      	ldr	r3, [r7, #12]
 80020da:	212c      	movs	r1, #44	; 0x2c
 80020dc:	fb01 f303 	mul.w	r3, r1, r3
 80020e0:	4413      	add	r3, r2
 80020e2:	3354      	adds	r3, #84	; 0x54
 80020e4:	4602      	mov	r2, r0
 80020e6:	701a      	strb	r2, [r3, #0]
      HAL_HCD_HC_NotifyURBChange_Callback(hhcd, (uint8_t)ch_num, hhcd->hc[ch_num].urb_state);
 80020e8:	68fb      	ldr	r3, [r7, #12]
 80020ea:	b2d9      	uxtb	r1, r3
 80020ec:	687a      	ldr	r2, [r7, #4]
 80020ee:	68fb      	ldr	r3, [r7, #12]
 80020f0:	202c      	movs	r0, #44	; 0x2c
 80020f2:	fb00 f303 	mul.w	r3, r0, r3
 80020f6:	4413      	add	r3, r2
 80020f8:	3360      	adds	r3, #96	; 0x60
 80020fa:	781b      	ldrb	r3, [r3, #0]
 80020fc:	461a      	mov	r2, r3
 80020fe:	6878      	ldr	r0, [r7, #4]
 8002100:	f005 feee 	bl	8007ee0 <HAL_HCD_HC_NotifyURBChange_Callback>
    if (hhcd->Init.dma_enable == 1U)
 8002104:	687b      	ldr	r3, [r7, #4]
 8002106:	691b      	ldr	r3, [r3, #16]
 8002108:	2b01      	cmp	r3, #1
 800210a:	d12b      	bne.n	8002164 <HCD_HC_IN_IRQHandler+0x4ea>
      if (((hhcd->hc[ch_num].XferSize / hhcd->hc[ch_num].max_packet) & 1U) != 0U)
 800210c:	687a      	ldr	r2, [r7, #4]
 800210e:	68fb      	ldr	r3, [r7, #12]
 8002110:	212c      	movs	r1, #44	; 0x2c
 8002112:	fb01 f303 	mul.w	r3, r1, r3
 8002116:	4413      	add	r3, r2
 8002118:	3348      	adds	r3, #72	; 0x48
 800211a:	681b      	ldr	r3, [r3, #0]
 800211c:	6879      	ldr	r1, [r7, #4]
 800211e:	68fa      	ldr	r2, [r7, #12]
 8002120:	202c      	movs	r0, #44	; 0x2c
 8002122:	fb00 f202 	mul.w	r2, r0, r2
 8002126:	440a      	add	r2, r1
 8002128:	3240      	adds	r2, #64	; 0x40
 800212a:	8812      	ldrh	r2, [r2, #0]
 800212c:	fbb3 f3f2 	udiv	r3, r3, r2
 8002130:	f003 0301 	and.w	r3, r3, #1
 8002134:	2b00      	cmp	r3, #0
 8002136:	f000 81be 	beq.w	80024b6 <HCD_HC_IN_IRQHandler+0x83c>
        hhcd->hc[ch_num].toggle_in ^= 1U;
 800213a:	687a      	ldr	r2, [r7, #4]
 800213c:	68fb      	ldr	r3, [r7, #12]
 800213e:	212c      	movs	r1, #44	; 0x2c
 8002140:	fb01 f303 	mul.w	r3, r1, r3
 8002144:	4413      	add	r3, r2
 8002146:	3354      	adds	r3, #84	; 0x54
 8002148:	781b      	ldrb	r3, [r3, #0]
 800214a:	f083 0301 	eor.w	r3, r3, #1
 800214e:	b2d8      	uxtb	r0, r3
 8002150:	687a      	ldr	r2, [r7, #4]
 8002152:	68fb      	ldr	r3, [r7, #12]
 8002154:	212c      	movs	r1, #44	; 0x2c
 8002156:	fb01 f303 	mul.w	r3, r1, r3
 800215a:	4413      	add	r3, r2
 800215c:	3354      	adds	r3, #84	; 0x54
 800215e:	4602      	mov	r2, r0
 8002160:	701a      	strb	r2, [r3, #0]
}
 8002162:	e1a8      	b.n	80024b6 <HCD_HC_IN_IRQHandler+0x83c>
      hhcd->hc[ch_num].toggle_in ^= 1U;
 8002164:	687a      	ldr	r2, [r7, #4]
 8002166:	68fb      	ldr	r3, [r7, #12]
 8002168:	212c      	movs	r1, #44	; 0x2c
 800216a:	fb01 f303 	mul.w	r3, r1, r3
 800216e:	4413      	add	r3, r2
 8002170:	3354      	adds	r3, #84	; 0x54
 8002172:	781b      	ldrb	r3, [r3, #0]
 8002174:	f083 0301 	eor.w	r3, r3, #1
 8002178:	b2d8      	uxtb	r0, r3
 800217a:	687a      	ldr	r2, [r7, #4]
 800217c:	68fb      	ldr	r3, [r7, #12]
 800217e:	212c      	movs	r1, #44	; 0x2c
 8002180:	fb01 f303 	mul.w	r3, r1, r3
 8002184:	4413      	add	r3, r2
 8002186:	3354      	adds	r3, #84	; 0x54
 8002188:	4602      	mov	r2, r0
 800218a:	701a      	strb	r2, [r3, #0]
}
 800218c:	e193      	b.n	80024b6 <HCD_HC_IN_IRQHandler+0x83c>
  else if ((USBx_HC(ch_num)->HCINT & USB_OTG_HCINT_CHH) == USB_OTG_HCINT_CHH)
 800218e:	68fb      	ldr	r3, [r7, #12]
 8002190:	015a      	lsls	r2, r3, #5
 8002192:	693b      	ldr	r3, [r7, #16]
 8002194:	4413      	add	r3, r2
 8002196:	f503 63a0 	add.w	r3, r3, #1280	; 0x500
 800219a:	689b      	ldr	r3, [r3, #8]
 800219c:	f003 0302 	and.w	r3, r3, #2
 80021a0:	2b02      	cmp	r3, #2
 80021a2:	f040 8106 	bne.w	80023b2 <HCD_HC_IN_IRQHandler+0x738>
    __HAL_HCD_MASK_HALT_HC_INT(ch_num);
 80021a6:	68fb      	ldr	r3, [r7, #12]
 80021a8:	015a      	lsls	r2, r3, #5
 80021aa:	693b      	ldr	r3, [r7, #16]
 80021ac:	4413      	add	r3, r2
 80021ae:	f503 63a0 	add.w	r3, r3, #1280	; 0x500
 80021b2:	68db      	ldr	r3, [r3, #12]
 80021b4:	68fa      	ldr	r2, [r7, #12]
 80021b6:	0151      	lsls	r1, r2, #5
 80021b8:	693a      	ldr	r2, [r7, #16]
 80021ba:	440a      	add	r2, r1
 80021bc:	f502 62a0 	add.w	r2, r2, #1280	; 0x500
 80021c0:	f023 0302 	bic.w	r3, r3, #2
 80021c4:	60d3      	str	r3, [r2, #12]
    if (hhcd->hc[ch_num].state == HC_XFRC)
 80021c6:	687a      	ldr	r2, [r7, #4]
 80021c8:	68fb      	ldr	r3, [r7, #12]
 80021ca:	212c      	movs	r1, #44	; 0x2c
 80021cc:	fb01 f303 	mul.w	r3, r1, r3
 80021d0:	4413      	add	r3, r2
 80021d2:	3361      	adds	r3, #97	; 0x61
 80021d4:	781b      	ldrb	r3, [r3, #0]
 80021d6:	2b01      	cmp	r3, #1
 80021d8:	d109      	bne.n	80021ee <HCD_HC_IN_IRQHandler+0x574>
      hhcd->hc[ch_num].urb_state = URB_DONE;
 80021da:	687a      	ldr	r2, [r7, #4]
 80021dc:	68fb      	ldr	r3, [r7, #12]
 80021de:	212c      	movs	r1, #44	; 0x2c
 80021e0:	fb01 f303 	mul.w	r3, r1, r3
 80021e4:	4413      	add	r3, r2
 80021e6:	3360      	adds	r3, #96	; 0x60
 80021e8:	2201      	movs	r2, #1
 80021ea:	701a      	strb	r2, [r3, #0]
 80021ec:	e0c9      	b.n	8002382 <HCD_HC_IN_IRQHandler+0x708>
    else if (hhcd->hc[ch_num].state == HC_STALL)
 80021ee:	687a      	ldr	r2, [r7, #4]
 80021f0:	68fb      	ldr	r3, [r7, #12]
 80021f2:	212c      	movs	r1, #44	; 0x2c
 80021f4:	fb01 f303 	mul.w	r3, r1, r3
 80021f8:	4413      	add	r3, r2
 80021fa:	3361      	adds	r3, #97	; 0x61
 80021fc:	781b      	ldrb	r3, [r3, #0]
 80021fe:	2b05      	cmp	r3, #5
 8002200:	d109      	bne.n	8002216 <HCD_HC_IN_IRQHandler+0x59c>
      hhcd->hc[ch_num].urb_state = URB_STALL;
 8002202:	687a      	ldr	r2, [r7, #4]
 8002204:	68fb      	ldr	r3, [r7, #12]
 8002206:	212c      	movs	r1, #44	; 0x2c
 8002208:	fb01 f303 	mul.w	r3, r1, r3
 800220c:	4413      	add	r3, r2
 800220e:	3360      	adds	r3, #96	; 0x60
 8002210:	2205      	movs	r2, #5
 8002212:	701a      	strb	r2, [r3, #0]
 8002214:	e0b5      	b.n	8002382 <HCD_HC_IN_IRQHandler+0x708>
    else if ((hhcd->hc[ch_num].state == HC_XACTERR) ||
 8002216:	687a      	ldr	r2, [r7, #4]
 8002218:	68fb      	ldr	r3, [r7, #12]
 800221a:	212c      	movs	r1, #44	; 0x2c
 800221c:	fb01 f303 	mul.w	r3, r1, r3
 8002220:	4413      	add	r3, r2
 8002222:	3361      	adds	r3, #97	; 0x61
 8002224:	781b      	ldrb	r3, [r3, #0]
 8002226:	2b06      	cmp	r3, #6
 8002228:	d009      	beq.n	800223e <HCD_HC_IN_IRQHandler+0x5c4>
             (hhcd->hc[ch_num].state == HC_DATATGLERR))
 800222a:	687a      	ldr	r2, [r7, #4]
 800222c:	68fb      	ldr	r3, [r7, #12]
 800222e:	212c      	movs	r1, #44	; 0x2c
 8002230:	fb01 f303 	mul.w	r3, r1, r3
 8002234:	4413      	add	r3, r2
 8002236:	3361      	adds	r3, #97	; 0x61
 8002238:	781b      	ldrb	r3, [r3, #0]
    else if ((hhcd->hc[ch_num].state == HC_XACTERR) ||
 800223a:	2b08      	cmp	r3, #8
 800223c:	d150      	bne.n	80022e0 <HCD_HC_IN_IRQHandler+0x666>
      hhcd->hc[ch_num].ErrCnt++;
 800223e:	687a      	ldr	r2, [r7, #4]
 8002240:	68fb      	ldr	r3, [r7, #12]
 8002242:	212c      	movs	r1, #44	; 0x2c
 8002244:	fb01 f303 	mul.w	r3, r1, r3
 8002248:	4413      	add	r3, r2
 800224a:	335c      	adds	r3, #92	; 0x5c
 800224c:	681b      	ldr	r3, [r3, #0]
 800224e:	1c5a      	adds	r2, r3, #1
 8002250:	6879      	ldr	r1, [r7, #4]
 8002252:	68fb      	ldr	r3, [r7, #12]
 8002254:	202c      	movs	r0, #44	; 0x2c
 8002256:	fb00 f303 	mul.w	r3, r0, r3
 800225a:	440b      	add	r3, r1
 800225c:	335c      	adds	r3, #92	; 0x5c
 800225e:	601a      	str	r2, [r3, #0]
      if (hhcd->hc[ch_num].ErrCnt > 2U)
 8002260:	687a      	ldr	r2, [r7, #4]
 8002262:	68fb      	ldr	r3, [r7, #12]
 8002264:	212c      	movs	r1, #44	; 0x2c
 8002266:	fb01 f303 	mul.w	r3, r1, r3
 800226a:	4413      	add	r3, r2
 800226c:	335c      	adds	r3, #92	; 0x5c
 800226e:	681b      	ldr	r3, [r3, #0]
 8002270:	2b02      	cmp	r3, #2
 8002272:	d912      	bls.n	800229a <HCD_HC_IN_IRQHandler+0x620>
        hhcd->hc[ch_num].ErrCnt = 0U;
 8002274:	687a      	ldr	r2, [r7, #4]
 8002276:	68fb      	ldr	r3, [r7, #12]
 8002278:	212c      	movs	r1, #44	; 0x2c
 800227a:	fb01 f303 	mul.w	r3, r1, r3
 800227e:	4413      	add	r3, r2
 8002280:	335c      	adds	r3, #92	; 0x5c
 8002282:	2200      	movs	r2, #0
 8002284:	601a      	str	r2, [r3, #0]
        hhcd->hc[ch_num].urb_state = URB_ERROR;
 8002286:	687a      	ldr	r2, [r7, #4]
 8002288:	68fb      	ldr	r3, [r7, #12]
 800228a:	212c      	movs	r1, #44	; 0x2c
 800228c:	fb01 f303 	mul.w	r3, r1, r3
 8002290:	4413      	add	r3, r2
 8002292:	3360      	adds	r3, #96	; 0x60
 8002294:	2204      	movs	r2, #4
 8002296:	701a      	strb	r2, [r3, #0]
      if (hhcd->hc[ch_num].ErrCnt > 2U)
 8002298:	e073      	b.n	8002382 <HCD_HC_IN_IRQHandler+0x708>
        hhcd->hc[ch_num].urb_state = URB_NOTREADY;
 800229a:	687a      	ldr	r2, [r7, #4]
 800229c:	68fb      	ldr	r3, [r7, #12]
 800229e:	212c      	movs	r1, #44	; 0x2c
 80022a0:	fb01 f303 	mul.w	r3, r1, r3
 80022a4:	4413      	add	r3, r2
 80022a6:	3360      	adds	r3, #96	; 0x60
 80022a8:	2202      	movs	r2, #2
 80022aa:	701a      	strb	r2, [r3, #0]
        tmpreg = USBx_HC(ch_num)->HCCHAR;
 80022ac:	68fb      	ldr	r3, [r7, #12]
 80022ae:	015a      	lsls	r2, r3, #5
 80022b0:	693b      	ldr	r3, [r7, #16]
 80022b2:	4413      	add	r3, r2
 80022b4:	f503 63a0 	add.w	r3, r3, #1280	; 0x500
 80022b8:	681b      	ldr	r3, [r3, #0]
 80022ba:	60bb      	str	r3, [r7, #8]
        tmpreg &= ~USB_OTG_HCCHAR_CHDIS;
 80022bc:	68bb      	ldr	r3, [r7, #8]
 80022be:	f023 4380 	bic.w	r3, r3, #1073741824	; 0x40000000
 80022c2:	60bb      	str	r3, [r7, #8]
        tmpreg |= USB_OTG_HCCHAR_CHENA;
 80022c4:	68bb      	ldr	r3, [r7, #8]
 80022c6:	f043 4300 	orr.w	r3, r3, #2147483648	; 0x80000000
 80022ca:	60bb      	str	r3, [r7, #8]
        USBx_HC(ch_num)->HCCHAR = tmpreg;
 80022cc:	68fb      	ldr	r3, [r7, #12]
 80022ce:	015a      	lsls	r2, r3, #5
 80022d0:	693b      	ldr	r3, [r7, #16]
 80022d2:	4413      	add	r3, r2
 80022d4:	f503 63a0 	add.w	r3, r3, #1280	; 0x500
 80022d8:	461a      	mov	r2, r3
 80022da:	68bb      	ldr	r3, [r7, #8]
 80022dc:	6013      	str	r3, [r2, #0]
      if (hhcd->hc[ch_num].ErrCnt > 2U)
 80022de:	e050      	b.n	8002382 <HCD_HC_IN_IRQHandler+0x708>
    else if (hhcd->hc[ch_num].state == HC_NAK)
 80022e0:	687a      	ldr	r2, [r7, #4]
 80022e2:	68fb      	ldr	r3, [r7, #12]
 80022e4:	212c      	movs	r1, #44	; 0x2c
 80022e6:	fb01 f303 	mul.w	r3, r1, r3
 80022ea:	4413      	add	r3, r2
 80022ec:	3361      	adds	r3, #97	; 0x61
 80022ee:	781b      	ldrb	r3, [r3, #0]
 80022f0:	2b03      	cmp	r3, #3
 80022f2:	d122      	bne.n	800233a <HCD_HC_IN_IRQHandler+0x6c0>
      hhcd->hc[ch_num].urb_state  = URB_NOTREADY;
 80022f4:	687a      	ldr	r2, [r7, #4]
 80022f6:	68fb      	ldr	r3, [r7, #12]
 80022f8:	212c      	movs	r1, #44	; 0x2c
 80022fa:	fb01 f303 	mul.w	r3, r1, r3
 80022fe:	4413      	add	r3, r2
 8002300:	3360      	adds	r3, #96	; 0x60
 8002302:	2202      	movs	r2, #2
 8002304:	701a      	strb	r2, [r3, #0]
      tmpreg = USBx_HC(ch_num)->HCCHAR;
 8002306:	68fb      	ldr	r3, [r7, #12]
 8002308:	015a      	lsls	r2, r3, #5
 800230a:	693b      	ldr	r3, [r7, #16]
 800230c:	4413      	add	r3, r2
 800230e:	f503 63a0 	add.w	r3, r3, #1280	; 0x500
 8002312:	681b      	ldr	r3, [r3, #0]
 8002314:	60bb      	str	r3, [r7, #8]
      tmpreg &= ~USB_OTG_HCCHAR_CHDIS;
 8002316:	68bb      	ldr	r3, [r7, #8]
 8002318:	f023 4380 	bic.w	r3, r3, #1073741824	; 0x40000000
 800231c:	60bb      	str	r3, [r7, #8]
      tmpreg |= USB_OTG_HCCHAR_CHENA;
 800231e:	68bb      	ldr	r3, [r7, #8]
 8002320:	f043 4300 	orr.w	r3, r3, #2147483648	; 0x80000000
 8002324:	60bb      	str	r3, [r7, #8]
      USBx_HC(ch_num)->HCCHAR = tmpreg;
 8002326:	68fb      	ldr	r3, [r7, #12]
 8002328:	015a      	lsls	r2, r3, #5
 800232a:	693b      	ldr	r3, [r7, #16]
 800232c:	4413      	add	r3, r2
 800232e:	f503 63a0 	add.w	r3, r3, #1280	; 0x500
 8002332:	461a      	mov	r2, r3
 8002334:	68bb      	ldr	r3, [r7, #8]
 8002336:	6013      	str	r3, [r2, #0]
 8002338:	e023      	b.n	8002382 <HCD_HC_IN_IRQHandler+0x708>
    else if (hhcd->hc[ch_num].state == HC_BBLERR)
 800233a:	687a      	ldr	r2, [r7, #4]
 800233c:	68fb      	ldr	r3, [r7, #12]
 800233e:	212c      	movs	r1, #44	; 0x2c
 8002340:	fb01 f303 	mul.w	r3, r1, r3
